:020000040800F2
:10500000005000203D5A0008C5590008CB5900083F
:10501000D1590008D7590008DD59000800000000E8
:10502000000000000000000000000000E35900083C
:10503000EF59000800000000FB590008075A00085B
:10504000855A0008855A0008855A0008855A0008C4
:10505000855A0008855A0008855A0008135A000826
:10506000855A0008855A0008855A0008855A0008A4
:10507000855A0008855A0008855A0008855A000894
:10508000855A0008855A0008855A0008855A000884
:10509000855A0008855A0008855A0008855A000874
:1050A000855A0008855A0008855A0008855A000864
:1050B000855A0008855A0008855A0008855A000854
:1050C000855A0008855A0008855A0008855A000844
:1050D000855A0008855A0008855A0008855A000834
:1050E000855A0008855A0008855A0008000000000B
:1050F00000000000000000000000000000000000B0
:0C51000000000000000000005FF808F153
:10510C0010B5054C237833B9044B13B10448AFF3F5
:10511C0000800123237010BD10000020000000004F
:10512C004C74000808B5034B1BB103490348AFF39B
:10513C00008008BD00000000140000204C74000822
:10514C0080B485B000AF78607B681B68FB60FB683F
:10515C0018461437BD4680BC7047000080B582B03D
:10516C0000AF0A48FFF7ECFF78607B68B3F1FF3FB4
:10517C0002D100F00DF804E07B68002B01D100F0A7
:10518C0087F800BF0837BD4680BD00BF00FC010892
:10519C0080B582B000AF1848FFF7D2FF78606FF08F
:1051AC000C033B607B6813F10F0F02D100F046F843
:1051BC001DE07B6813F10C0F03D07B68B3F1FF3F4C
:1051CC0015D100F01BF838603B6813F10E0F04D1B9
:1051DC0000F066F800F032F809E03B6813F10C0FB0
:1051EC0003D03B68B3F1FF3F01D100F0C3F900BF1E
:1051FC000837BD4680BD00BF14FC010880B582B0E5
:10520C0000AF0D48FFF79CFF78607B6813F10D0F22
:10521C0002D16FF00D030BE07B6813F10C0F03D080
:10522C007B68B3F1FF3F02D16FF00B0300E07B68AA
:10523C0018460837BD4680BD34FC010880B582B0E5
:10524C0000AF0E4B00221A6000F02EFC0C4B00221B
:10525C009A6000237B600B4B1B687B60BFF35F8FF6
:10526C0000BF094B094A9A60BFF34F8F00BF7B68A0
:10527C00984700BF0837BD4680BD00BF10E000E076
:10528C00001002400450000800ED00E0005000083F
:10529C0080B500AF00F07AF900F0E8F900BF80BDEE
:1052AC00B0B58AB000AF00233B620023FB61002342
:1052BC00BB612B48FFF744FF78617B699B087B61DE
:1052CC0000237B600123BB60264BFB6016233B61F4
:1052DC0001F026F93A463B1D1146184601F008FA32
:1052EC0001F044F901F01CF900237B621DE07B6A9C
:1052FC0003F1007303F5A0539B00FB617B6A03F180
:10530C00007303F528539B003B623B6A1B68BB612F
:10531C00BB6900221C46154622462B46F969022021
:10532C0001F08EF87B6A01337B627A6A7B699A4260
:10533C00DDD301F01BF97B699B0019460A4800F08C
:10534C0083F86FF00E01094800F07EF86FF00C0145
:10535C00074800F079F800BF2837BD46B0BD00BF44
:10536C0038FC01080050000818FC010814FC010866
:10537C0034FC0108B0B58AB000AF00233B620023B7
:10538C00FB610023BB612B48FFF7DAFE78617B6978
:10539C009B087B6100237B600123BB60264BFB6079
:1053AC0016233B6101F0BCF83A463B1D11461846EA
:1053BC0001F09EF901F0DAF801F0B2F800237B62FB
:1053CC001DE07B6A03F1007303F5A0539B00FB61A6
:1053DC007B6A03F1007303F528539B003B62FB6966
:1053EC001B68BB61BB6900221C46154622462B4636
:1053FC00396A022001F024F87B6A01337B627A6AF5
:10540C007B699A42DDD301F0B1F87B699B001946A8
:10541C000A4800F019F86FF00E01094800F014F872
:10542C006FF00C01074800F00FF800BF2837BD469D
:10543C00B0BD00BF18FC010800A8000838FC01082A
:10544C0014FC010834FC01082DE9B043B2B000AFE4
:10545C00786039600023A7F8C6300023A7F8C43061
:10546C000023C7F8C030414BC7F8C03031E0D7F843
:10547C00C0207B689A4214BF01230023DAB2D7F80C
:10548C00C0301B68B3F1FF3F14BF01230023DBB214
:10549C001340DBB2002B17D0B7F8C6309B00C833D3
:1054AC003B44D7F8C02043F8582CD7F8C020B7F8A5
:1054BC00C63012689B00C8333B4443F8A82CB7F89D
:1054CC00C6300133A7F8C630D7F8C0300433C7F85C
:1054DC00C030D7F8C030264A9342C8D900233B616C
:1054EC0001237B61214BBB610123FB6101F018F8A7
:1054FC0007F10C0207F110031146184601F0F8F8F9
:10550C000023A7F8C4301AE0B7F8C4309B00C833A6
:10551C003B4453F8581CB7F8C4309B00C8333B4489
:10552C0053F8A83C00229846914642464B4602202E
:10553C0000F086FFB7F8C4300133A7F8C430B7F8D1
:10554C00C420B7F8C6309A42DED33B6800221C4612
:10555C00154622462B467968022000F071FF01F0B7
:10556C0005F800BFC837BD46BDE8B08300FC010894
:10557C004FFC010880B500AF00210348FFF764FF22
:10558C0000F07AF800BF80BD00FC010880B586B041
:10559C0000AF00237B600023BB6000237B610023F2
:1055AC003B610023FB732A48FFF7CAFD7861294B46
:1055BC0000229A60274B0022DA60264B40F201123F
:1055CC001A60244B01221A61234B50221A70234B70
:1055DC00214A2049224800F010FC00BF3B1D214A03
:1055EC0000211F4800F0D8FC0346002BF6D13B7974
:1055FC00FB73FB7B342B27D1174B73221A70174B81
:10560C00154A1449164800F0F8FB00BF3B1D154A1B
:10561C000021134800F0C0FC0346002BF6D1FB79A7
:10562C001A06BB791B041A43FB791B021343BA7984
:10563C0013433B617B6913F10F0F01D1FFF79AFE06
:10564C0039690948FFF700FF00BF1837BD4680BD18
:10565C0014FC010860000020940000209C00002035
:10566C002C0000207800002018FC010880B400AF4A
:10567C0000BFBD4680BC704780B500AF094B0A4ADD
:10568C001A60084B00225A60064B40F6FF729A6073
:10569C00044801F089FA0346002B01D000F018F9F8
:1056AC0000BF80BD540000200030004080B483B0A7
:1056BC0000AF0346FB80FB88022B0AD1074B1B78FB
:1056CC00DBB2002B0CBF01230023DBB21A46034BC9
:1056DC001A7000BF0C37BD4680BC7047000000201C
:1056EC0080B500AF00F0CAF900F010F800F08CF8AB
:1056FC0000F054F8FFF732FD034800F03AFB0221AA
:10570C00014800F06AFDFEE72C00002080B590B047
:10571C0000AF07F1180328220021184601F064FE9F
:10572C003B1D00221A605A609A60DA601A610923E4
:10573C00BB614FF48033FB6100233B620123BB62EE
:10574C0001233B6302237B634FF48033BB634FF431
:10575C00E013FB6307F11803184601F067FA0346E0
:10576C00002B01D000F0B4F80F237B600223BB6048
:10577C000023FB604FF480633B6100237B613B1D86
:10578C000221184601F0D4FC0346002B01D000F096
:10579C009FF800BF4037BD4680BD000080B500AF0C
:1057AC00174B184A1A60164B04225A60144B0022ED
:1057BC009A60134B0022DA60114B4FF460221A618D
:1057CC000F4B4FF480125A610D4B00221A760C4B82
:1057DC0000225A760A4B00229A76094B0022DA767E
:1057EC00074B00221A77064B00225A77044800F028
:1057FC00C5F90346002B01D000F06AF800BF80BD4C
:10580C002C0000200064004080B588B000AF07F188
:10581C00100300221A605A609A60DA60284B9B6968
:10582C00274A43F010039361254B9B6903F0100347
:10583C00FB60FB68224B9B69214A43F02003936178
:10584C001F4B9B6903F02003BB60BB681C4B9B691F
:10585C001B4A43F004039361194B9B6903F0040347
:10586C007B607B6800224FF4C041164801F06CF954
:10587C004FF4C0433B6101237B610023BB610223D6
:10588C00FB6107F1100319460E4800F0D9FF022303
:10589C003B610D4B7B610223BB6107F11003194681
:1058AC000A4800F0CDFF00220021072000F091FDF6
:1058BC00072000F0AAFD00BF2037BD4680BD00BF09
:1058CC0000100240001001400000111000080140BF
:1058DC0080B400AF72B600BFFEE7000080B483B0A6
:1058EC0000AF0E4B9B690D4A43F0010393610B4BC8
:1058FC009B6903F001037B607B68084BDB69074AFB
:10590C0043F08053D361054BDB6903F080533B605C
:10591C003B6800BF0C37BD4680BC7047001002408E
:10592C0080B588B000AF786007F1100300221A60D0
:10593C005A609A60DA607B681B681C4A934231D1CA
:10594C001B4BDB691A4A43F00073D361184BDB69BC
:10595C0003F00073FB60FB68154B9B69144A43F022
:10596C0004039361124B9B6903F00403BB60BB6897
:10597C004FF400633B6100237B610023BB6107F1A3
:10598C00100319460B4800F05BFF4FF480533B614A
:10599C0002237B610323FB6107F1100319460548C1
:1059AC0000F04EFF00BF2037BD4680BD00640040B4
:1059BC00001002400008014080B400AFFEE780B444
:1059CC0000AFFEE780B400AFFEE780B400AFFEE7A7
:1059DC0080B400AFFEE780B400AF00BFBD4680BC12
:1059EC00704780B400AF00BFBD4680BC704780B428
:1059FC0000AF00BFBD4680BC704780B500AF00F063
:105A0C00A1F800BF80BD80B500AF022001F0B4F852
:105A1C0000BF80BD80B400AF034B044A9A6000BF46
:105A2C00BD4680BC704700BF00ED00E00050000890
:105A3C00FFF7F0FF0B480C490C4A002302E0D45846
:105A4C00C4500433C4188C42F9D3094A094C0023BE
:105A5C0001E013600432A242FBD301F0CDFCFFF74E
:105A6C003FFE7047000000201000002090740008DA
:105A7C0010000020C8000020FEE7000080B500AF39
:105A8C00084B1B68074A43F010031360032000F017
:105A9C0095FC0F2000F026F8FFF720FF0023184696
:105AAC0080BD00BF0020024080B500AF094B4FF015
:105ABC00FF321A61074B00221A61064B4FF0FF327E
:105ACC00DA60044B0022DA6000F006F80023184676
:105ADC0080BD00BF0010024080B400AF00BFBD46C7
:105AEC0080BC704780B582B000AF7860124B1A68EA
:105AFC00124B1B7819464FF47A73B3FBF1F3B2FBDC
:105B0C00F3F3184600F08FFC0346002B01D0012361
:105B1C000EE07B680F2B0AD8002279684FF0FF301B
:105B2C0000F057FC064A7B681360002300E0012359
:105B3C0018460837BD4680BD040000200C0000202C
:105B4C000800002080B400AF054B1B781A46054BAB
:105B5C001B681344034A136000BFBD4680BC7047EA
:105B6C000C000020A000002080B400AF024B1B688A
:105B7C001846BD4680BC7047A000002080B584B09C
:105B8C0000AF78607B68002B01D10123EDE07B68CE
:105B9C0093F82030DBB2002B02D17868FFF7C0FEFF
:105BAC007B681B681A687B681B6842F001021A60EC
:105BBC00FFF7DAFFF86012E0FFF7D6FF0246FB684A
:105BCC00D31A0A2B0BD97B685B6A43F400327B68CF
:105BDC005A627B68052283F820200123C5E07B688C
:105BEC001B685B6803F00103002BE5D07B681B6826
:105BFC001A687B681B6822F002021A60FFF7B4FF78
:105C0C00F86012E0FFF7B0FF0246FB68D31A0A2BCC
:105C1C000BD97B685B6A43F400327B685A627B6801
:105C2C00052283F8202001239FE07B681B685B68BA
:105C3C0003F00203002BE5D17B681B7E012B08D1FE
:105C4C007B681B681A687B681B6842F080021A60CC
:105C5C0007E07B681B681A687B681B6822F080026F
:105C6C001A607B685B7E012B08D17B681B681A6805
:105C7C007B681B6842F040021A6007E07B681B6877
:105C8C001A687B681B6822F040021A607B689B7E56
:105C9C00012B08D17B681B681A687B681B6842F073
:105CAC0020021A6007E07B681B681A687B681B6817
:105CBC0022F020021A607B68DB7E012B08D17B6806
:105CCC001B681A687B681B6822F010021A6007E0D8
:105CDC007B681B681A687B681B6842F010021A60AC
:105CEC007B681B7F012B08D17B681B681A687B685B
:105CFC001B6842F008021A6007E07B681B681A6890
:105D0C007B681B6822F008021A607B685B7F012BA2
:105D1C0008D17B681B681A687B681B6842F0040218
:105D2C001A6007E07B681B681A687B681B6822F0A6
:105D3C0004021A607B689A687B68DB681A437B688C
:105D4C001B691A437B685B6942EA03017B685B68E9
:105D5C005A1E7B681B680A43DA617B6800225A6210
:105D6C007B68012283F82020002318461037BD469B
:105D7C0080BD80B584B000AF78607B6893F820302C
:105D8C00DBB2012B2ED17B68022283F820207B68AA
:105D9C001B681A687B681B6822F001021A60FFF707
:105DAC00E3FEF86012E0FFF7DFFE0246FB68D31A51
:105DBC000A2B0BD97B685B6A43F400327B685A620E
:105DCC007B68052283F82020012312E07B681B6886
:105DDC005B6803F00103002BE5D17B6800225A625B
:105DEC00002306E07B685B6A43F400227B685A62FE
:105DFC00012318461037BD4680BD80B489B000AF72
:105E0C00F860B9607A603B60FB6893F82030FB77F0
:105E1C00FB681B689B68BB61FB7F012B03D0FB7F7E
:105E2C00022B40F0AD80BB6903F08063002B0AD1DC
:105E3C00BB6903F00063002B05D1BB6903F08053F1
:105E4C00002B00F09580BB691B0E03F003037B61F4
:105E5C0001227B699A403B681A60BB689B68002BE7
:105E6C000DD1BB681B685A05BB68DB68F96809680B
:105E7C001A437B6918331B010B441A600FE0BB6893
:105E8C005B68DA00BB689B681A43BB68DB68F9681F
:105E9C0009681A437B6918331B010B441A60FB68B1
:105EAC001968BB681A697B6918331B010B440433EE
:105EBC001A60BB681B7D012B11D1FB681A687B69CA
:105ECC0018331B01134404331B68FA68116843F43C
:105EDC0080727B6918331B010B4404331A607B6896
:105EEC0007331B781A067B6806331B781B041A438E
:105EFC007B6805331B781B0213437A6804321278D3
:105F0C001046FA68116843EA00027B691B010B44D6
:105F1C0003F5C6731A607B6803331B781A067B681B
:105F2C0002331B781B041A437B6801331B781B025A
:105F3C0013437A6812781046FA68116843EA000233
:105F4C007B691B010B4403F5C4731A60FB681A6868
:105F5C007B6918331B0113441B68FA68116843F002
:105F6C0001027B6918331B010B441A6000230EE0FD
:105F7C00FB685B6A43F40012FB685A62012306E07B
:105F8C00FB685B6A43F48022FB685A620123184663
:105F9C002437BD4680BC704780B487B000AFF86032
:105FAC00B9607A603B60FB6893F82030FB75FB7D31
:105FBC00012B03D0FB7D022B40F00381BB68002B2F
:105FCC000ED1FB681B68DB6803F00303002B16D1B2
:105FDC00FB685B6A43F40012FB685A620123F7E02A
:105FEC00FB681B681B6903F00303002B07D1FB68DC
:105FFC005B6A43F40012FB685A620123E8E0FB6819
:10600C001A68BB681B331B0113441B6803F00402A2
:10601C007B689A607B689B68002B0CD1FB681A68C4
:10602C00BB681B331B0113441B685B0DC3F30A02D3
:10603C007B681A600BE0FB681A68BB681B331B019A
:10604C0013441B68DB0823F060427B685A60FB68D2
:10605C001A68BB681B331B0113441B6803F0020254
:10606C007B68DA60FB681A68BB681B331B0113443E
:10607C0004331B6803F00803002B03D07B68082251
:10608C001A610BE0FB681A68BB681B331B011344D5
:10609C0004331B6803F00F027B681A61FB681A68F3
:1060AC00BB681B331B01134404331B681B0ADAB295
:1060BC007B689A61FB681A68BB681B331B0113442D
:1060CC0004331B681B0C9AB27B685A61FB681A6814
:1060DC00BB681B01134403F5DC731B68DAB23B6825
:1060EC001A70FB681A68BB681B01134403F5DC7358
:1060FC001B681A0A3B680133D2B21A70FB681A6823
:10610C00BB681B01134403F5DC731B681A0C3B685A
:10611C000233D2B21A70FB681A68BB681B011344B5
:10612C0003F5DC731B681A0E3B680333D2B21A708A
:10613C00FB681A68BB681B01134403F5DE731A680D
:10614C003B680433D2B21A70FB681A68BB681B0137
:10615C00134403F5DE731B681A0A3B680533D2B28D
:10616C001A70FB681A68BB681B01134403F5DE73D5
:10617C001B681A0C3B680633D2B21A70FB681A689B
:10618C00BB681B01134403F5DE731B681A0E3B68D6
:10619C000733D2B21A70BB68002B08D1FB681B689E
:1061AC00DA68FB681B6842F02002DA6007E0FB68E3
:1061BC001B681A69FB681B6842F020021A610023F5
:1061CC0006E0FB685B6A43F48022FB685A62012399
:1061DC0018461C37BD4680BC704780B485B000AFF4
:1061EC00786039607B6893F82030FB73FB7B012B64
:1061FC0002D0FB7B022B09D17B681B6859697B6839
:10620C001B683A680A435A61002306E07B685B6AA4
:10621C0043F480227B685A62012318461437BD462A
:10622C0080BC704780B485B000AF78607B6803F0A9
:10623C000703FB600C4BDB68BB60BA684FF6FF03CF
:10624C001340BB60FB681A02BB68134343F0BF6387
:10625C0043F40033BB60044ABB68D36000BF1437FF
:10626C00BD4680BC704700BF00ED00E080B400AFBD
:10627C00044BDB681B0A03F007031846BD4680BCC1
:10628C00704700BF00ED00E080B483B000AF034660
:10629C00FB7197F90730002B0BDBFB7903F01F0226
:1062AC00064997F907305B09012000FA02F241F820
:1062BC00232000BF0C37BD4680BC704700E100E0D6
:1062CC0080B483B000AF03463960FB7197F9073097
:1062DC00002B0ADB3B68DAB20C4997F90730120144
:1062EC00D2B20B4483F800230AE03B68DAB20849C7
:1062FC00FB7903F00F03043B1201D2B20B441A7664
:10630C0000BF0C37BD4680BC704700BF00E100E009
:10631C0000ED00E080B489B000AFF860B9607A603D
:10632C00FB6803F00703FB61FB69C3F10703042B54
:10633C0028BF0423BB61FB690433062B02D9FB691C
:10634C00033B00E000237B614FF0FF32BB6902FA94
:10635C0003F3DA43BB681A407B699A404FF0FF3174
:10636C007B6901FA03F3D9437B680B40134318464E
:10637C002437BD4680BC704780B582B000AF7860D2
:10638C007B68013BB3F1807F01D301230FE00A4A04
:10639C007B68013B53600F214FF0FF30FFF790FFFC
:1063AC00054B00229A60044B07221A600023184602
:1063BC000837BD4680BD00BF10E000E080B582B05C
:1063CC0000AF78607868FFF72DFF00BF0837BD4637
:1063DC0080BD80B586B000AF0346B9607A60FB73B0
:1063EC0000237B61FFF742FF78617A68B9687869AE
:1063FC00FFF790FF024697F90F3011461846FFF74A
:10640C005FFF00BF1837BD4680BD80B582B000AFBE
:10641C000346FB7197F907301846FFF735FF00BFAD
:10642C000837BD4680BD80B582B000AF7860786813
:10643C00FFF7A2FF034618460837BD4680BD000093
:10644C00F0B587B000AFF860B960C7E9002301234D
:10645C00FB750023BB7500237B752F4B1B7E012B1B
:10646C0001D1022354E02C4B01221A764CF250300D
:10647C0000F0A8F80346FB75FB7D002B44D1FB68AC
:10648C00012B02D101237B7507E0FB68022B02D1A3
:10649C0002237B7501E004237B750023BB752DE083
:1064AC00BB7D5A00BB6802EB030CBB7D1901D7E91D
:1064BC000023C1F12006A1F1200022FA01F403FA15
:1064CC0006F6344323FA00F0044323FA01F5A3B291
:1064DC001946604600F05AF84CF2503000F072F851
:1064EC000346FB750D4B1B690C4A23F0010313612A
:1064FC00FB7D002B07D1BB7D0133BB75BA7D7B7D4A
:10650C009A42CDD300E000BF034B00221A76FB7DEC
:10651C0018461C37BD46F0BDA800002000200240E4
:10652C0080B483B000AF0023FB710D4B1B6903F0EB
:10653C008003002B0DD00A4B0A4A5A60084B0A4ABA
:10654C005A60074B1B6903F08003002B01D0012319
:10655C00FB71FB7918460C37BD4680BC704700BFF9
:10656C000020024023016745AB89EFCD80B400AF1A
:10657C00054B1B69044A43F0800313610023184642
:10658C00BD4680BC704700BF0020024080B483B081
:10659C0000AF78600B467B80084B0022DA61084B19
:1065AC001B69074A43F0010313617B687A881A80E0
:1065BC0000BF0C37BD4680BC704700BFA800002050
:1065CC000020024080B584B000AF7860FFF7CCFAB1
:1065DC00F86010E07B68B3F1FF3F0CD07B68002BB8
:1065EC0007D0FFF7C1FA0246FB68D31A7A689A42C1
:1065FC0001D2032325E0154BDB6803F00103002BCC
:10660C00E8D1124BDB6803F02003002B02D00F4BB8
:10661C002022DA600D4BDB6803F01003002B0BD14A
:10662C000A4BDB6903F00103002B05D1074BDB6838
:10663C0003F00403002B03D000F00AF8012300E060
:10664C00002318461037BD4680BD00BF0020024015
:10665C0080B483B000AF00237B60234BDB6803F076
:10666C001003002B09D0214BDB6943F002031F4AB6
:10667C00D3617B6843F010037B601B4BDB6803F03A
:10668C000403002B09D0194BDB6943F00103174AB3
:10669C00D3617B6843F004037B60134BDB6903F02D
:1066AC000103002B0BD0114BDB6943F004030F4AA1
:1066BC00D3610D4BDB690C4A23F00103D3617B687A
:1066CC0040F20112934206D1074BDB69064A23F0D4
:1066DC000103D36102E0044A7B68D36000BF0C372E
:1066EC00BD4680BC704700BF00200240A8000020BF
:1066FC0080B584B000AF786039600123FB73002350
:10670C00BB602F4B1B7E012B01D1022353E02C4B82
:10671C0001221A767B681B68022B16D14CF2503082
:10672C00FFF750FF0346002B41D1012000F04CF83D
:10673C004CF25030FFF746FF0346FB73214B1B69AD
:10674C00204A23F00403136131E04CF25030FFF780
:10675C0039FF0346002B2AD13B684FF0FF321A60F9
:10676C007B689B68BB6019E0B86800F049F84CF294
:10677C005030FFF727FF0346FB73124B1B69114A7E
:10678C0023F002031361FB7B002B03D03B68BA6838
:10679C001A600CE0BB6803F58063BB607B68DB6848
:1067AC009A027B689B681344BA689A42DCD3044B08
:1067BC0000221A76FB7B18461037BD4680BD00BF01
:1067CC00A80000200020024080B483B000AF7860A5
:1067DC00094B0022DA61094B1B69084A43F0040398
:1067EC001361064B1B69054A43F04003136100BF5C
:1067FC000C37BD4680BC7047A8000020002002402A
:10680C0080B483B000AF78600B4B0022DA610B4B85
:10681C001B690A4A43F002031361084A7B685361FF
:10682C00064B1B69054A43F04003136100BF0C374C
:10683C00BD4680BC704700BFA8000020002002406D
:10684C0080B48BB000AF7860396000237B6200238A
:10685C003B6269E101227B6A02FA03F3FB613B684C
:10686C001B68FA691340BB61BA69FB699A4240F034
:10687C0058813B685B689A4A93425ED0984A93422F
:10688C0075D8984A934258D0964A93426FD8964AF4
:10689C00934252D0944A934269D8944A93424CD032
:1068AC00924A934263D8924A934246D0904A93427A
:1068BC005DD8122B2AD8122B59D801A252F823F0EA
:1068CC0047690008216900083369000875690008E8
:1068DC007B6900087B6900087B6900087B690008FC
:1068EC007B6900087B6900087B6900087B690008EC
:1068FC007B6900087B6900087B6900087B690008DC
:10690C007B690008296900083D690008794A9342AF
:10691C0013D02CE03B68DB683B6229E03B68DB680A
:10692C0004333B6224E03B68DB6808333B621FE0C6
:10693C003B68DB680C333B621AE03B689B68002BBE
:10694C0002D104233B6213E03B689B68012B05D109
:10695C0008233B627B68FA691A6109E008233B62F1
:10696C007B68FA695A6103E000233B6200E000BFD8
:10697C00BB69FF2B01D87B6801E07B6804337B612A
:10698C00BB69FF2B02D87B6A9B0002E07B6A083B49
:10699C009B003B617B691A680F213B6901FA03F389
:1069AC00DB431A40396A3B6901FA03F31A437B69EA
:1069BC001A603B685B6803F08053002B00F0B180D9
:1069CC004D4B9B694C4A43F0010393614A4B9B69C5
:1069DC0003F00103BB60BB68484A7B6A9B08023327
:1069EC0052F82330FB607B6A03F003039B000F22F9
:1069FC0002FA03F3DB43FA681340FB607B68404AFE
:106A0C00934213D07B683F4A93420DD07B683E4A39
:106A1C00934207D07B683D4A934201D1032306E0A1
:106A2C00042304E0022302E0012300E000237A6A3D
:106A3C0002F0030292009340FA681343FB602F4963
:106A4C007B6A9B080233FA6841F823203B685B6839
:106A5C0003F48013002B06D02D4B9A682C49BB698C
:106A6C0013438B6006E02A4B9A68BB69DB432849C9
:106A7C0013408B603B685B6803F40013002B06D05B
:106A8C00234BDA682249BB691343CB6006E0204BE9
:106A9C00DA68BB69DB431E491340CB603B685B681B
:106AAC0003F40033002B06D0194B5A681849BB6904
:106ABC0013434B6006E0164B5A68BB69DB43144921
:106ACC0013404B603B685B6803F48033002B21D090
:106ADC000F4B1A680E49BB6913430B6021E000BFD2
:106AEC0000003210000031100000221000002110B4
:106AFC0000001210000011100010024000000140B4
:106B0C0000080140000C014000100140001401403D
:106B1C00000401400B4B1A68BB69DB430949134065
:106B2C000B607B6A01337B623B681A687B6A22FAD2
:106B3C0003F3002B7FF48EAE00BF00BF2C37BD4695
:106B4C0080BC70470004014080B483B000AF786013
:106B5C000B467B8013467B707B78002B03D07A88A6
:106B6C007B681A6103E07B881A047B681A6100BF9A
:106B7C000C37BD4680BC704780B582B000AF034671
:106B8C00FB80084B5A69FB881340002B06D0054A42
:106B9C00FB885361FB881846FEF788FD00BF083759
:106BAC00BD4680BD0004014080B584B000AF786064
:106BBC007B68002B01D1012334E07B681B684CF609
:106BCC00CC421A607B681B6845F255521A607B6890
:106BDC001B687A6852685A607B681B687A6892688E
:106BEC009A60FEF7C1FFF8600FE0FEF7BDFF0246AA
:106BFC00FB68D31A272B08D97B681B68DB6803F06A
:106C0C000303002B01D003230CE07B681B68DB68BB
:106C1C0003F00303002BE8D17B681B684AF6AA2219
:106C2C001A60002318461037BD4680BD80B586B06B
:106C3C0000AF78607B68002B01D1012372E27B6886
:106C4C001B6803F00103002B00F08780924B5B68FC
:106C5C0003F00C03042B0CD08F4B5B6803F00C037C
:106C6C00082B12D18C4B5B6803F48033B3F5803F57
:106C7C000BD1894B1B6803F40033002B6CD07B6861
:106C8C005B68002B68D101234CE27B685B68B3F531
:106C9C00803F06D1804B1B687F4A43F480331360DE
:106CAC002EE07B685B68002B0CD17B4B1B687A4A0F
:106CBC0023F480331360784B1B68774A23F48023CA
:106CCC0013601DE07B685B68B3F5A02F0CD1724B91
:106CDC001B68714A43F4802313606F4B1B686E4A28
:106CEC0043F4803313600BE06B4B1B686A4A23F44C
:106CFC0080331360684B1B68674A23F4802313604E
:106D0C007B685B68002B13D0FEF72EFF386108E020
:106D1C00FEF72AFF02463B69D31A642B01D90323E1
:106D2C0000E25D4B1B6803F40033002BF0D014E041
:106D3C00FEF71AFF386108E0FEF716FF02463B69C2
:106D4C00D31A642B01D90323ECE1534B1B6803F4D6
:106D5C000033002BF0D100E000BF7B681B6803F010
:106D6C000203002B63D04C4B5B6803F00C03002B2D
:106D7C000BD0494B5B6803F00C03082B1CD1464B22
:106D8C005B6803F48033002B16D1434B1B6803F074
:106D9C000203002B05D07B681B69012B01D001235A
:106DAC00C0E13D4B1B6823F0F8027B685B69DB009C
:106DBC00394913430B603AE07B681B69002B20D0E8
:106DCC00364B01221A60FEF7CFFE386108E0FEF761
:106DDC00CBFE02463B69D31A022B01D90323A1E156
:106DEC002D4B1B6803F00203002BF0D02A4B1B68C1
:106DFC0023F0F8027B685B69DB00274913430B60C7
:106E0C0015E0264B00221A60FEF7AEFE386108E052
:106E1C00FEF7AAFE02463B69D31A022B01D90323C3
:106E2C0080E11D4B1B6803F00203002BF0D17B6843
:106E3C001B6803F00803002B3AD07B689B69002B7E
:106E4C0019D0174B01221A60FEF78EFE386108E04C
:106E5C00FEF78AFE02463B69D31A022B01D90323A3
:106E6C0060E10D4B5B6A03F00203002BF0D00120B4
:106E7C0000F09CFA1CE00A4B00221A60FEF774FE2C
:106E8C0038610FE0FEF770FE02463B69D31A022B05
:106E9C0008D9032346E100BF001002400000424223
:106EAC0080044242924B5B6A03F00203002BE9D14F
:106EBC007B681B6803F00403002B00F0A680002302
:106ECC00FB758B4BDB6903F08053002B0DD1884B8A
:106EDC00DB69874A43F08053D361854BDB6903F050
:106EEC008053BB60BB680123FB75824B1B6803F4AA
:106EFC008073002B18D17F4B1B687E4A43F4807340
:106F0C001360FEF731FE386108E0FEF72DFE0246F5
:106F1C003B69D31A642B01D9032303E1754B1B681E
:106F2C0003F48073002BF0D07B68DB68012B06D157
:106F3C006F4B1B6A6E4A43F0010313622DE07B68B2
:106F4C00DB68002B0CD16A4B1B6A694A23F00103E6
:106F5C001362674B1B6A664A23F0040313621CE03E
:106F6C007B68DB68052B0CD1614B1B6A604A43F0D4
:106F7C00040313625E4B1B6A5D4A43F00103136208
:106F8C000BE05B4B1B6A5A4A23F001031362584B0C
:106F9C001B6A574A23F0040313627B68DB68002BDF
:106FAC0015D0FEF7E1FD38610AE0FEF7DDFD024683
:106FBC003B69D31A41F28832934201D90323B1E0E1
:106FCC004B4B1B6A03F00203002BEED014E0FEF7D0
:106FDC00CBFD38610AE0FEF7C7FD02463B69D31AC8
:106FEC0041F28832934201D903239BE0404B1B6A48
:106FFC0003F00203002BEED1FB7D012B05D13C4BA2
:10700C00DB693B4A23F08053D3617B68DB69002B3F
:10701C0000F08780364B5B6803F00C03082B61D0C3
:10702C007B68DB69022B46D1334B00221A60FEF7DA
:10703C009BFD386108E0FEF797FD02463B69D31AC9
:10704C00022B01D903236DE0294B1B6803F000735D
:10705C00002BF0D17B681B6AB3F5803F08D1244B21
:10706C005B6823F400327B689B68214913434B60B7
:10707C001F4B5B6823F474127B68196A7B685B6A2C
:10708C000B431B4913434B601B4B01221A60FEF749
:10709C006BFD386108E0FEF767FD02463B69D31AC9
:1070AC00022B01D903233DE0114B1B6803F0007345
:1070BC00002BF0D035E0104B00221A60FEF754FD87
:1070CC00386108E0FEF750FD02463B69D31A022BEB
:1070DC0001D9032326E0064B1B6803F00073002B39
:1070EC00F0D11EE07B68DB69012B07D1012319E08D
:1070FC000010024000700040600042420B4B5B6885
:10710C00FB60FB6803F480327B681B6A9A4206D1F1
:10711C00FB6803F470127B685B6A9A4201D001230E
:10712C0000E0002318461837BD4680BD0010024011
:10713C0080B584B000AF786039607B68002B01D1DA
:10714C000123D0E06A4B1B6803F007033A689A42AC
:10715C0010D9674B1B6823F0070265493B68134342
:10716C000B60634B1B6803F007033A689A4201D02B
:10717C000123B8E07B681B6803F00203002B20D0CE
:10718C007B681B6803F00403002B05D0594B5B682C
:10719C00584A43F4E06353607B681B6803F00803B0
:1071AC00002B05D0534B5B68524A43F46053536039
:1071BC00504B5B6823F0F0027B689B684D4913438E
:1071CC004B607B681B6803F00103002B40D07B688D
:1071DC005B68012B07D1474B1B6803F40033002B72
:1071EC0015D101237FE07B685B68022B07D1414BF3
:1071FC001B6803F00073002B09D1012373E03D4B96
:10720C001B6803F00203002B01D101236BE0394B07
:10721C005B6823F003027B685B68364913434B6061
:10722C00FEF7A2FCF8600AE0FEF79EFC0246FB6843
:10723C00D31A41F28832934201D9032353E02D4BE8
:10724C005B6803F00C027B685B689B009A42EBD195
:10725C00274B1B6803F007033A689A4210D2244B61
:10726C001B6823F0070222493B6813430B60204B39
:10727C001B6803F007033A689A4201D0012332E0FD
:10728C007B681B6803F00403002B08D0194B5B6868
:10729C0023F4E0627B68DB68164913434B607B6820
:1072AC001B6803F00803002B09D0124B5B6823F416
:1072BC0060527B681B69DB000E4913434B6000F086
:1072CC0021F802460B4B5B681B0903F00F030A49BC
:1072DC00CB5C22FA03F3094A1360094B1B6818466E
:1072EC00FEF700FC002318461037BD4680BD00BFDA
:1072FC0000200240001002406474000804000020CA
:10730C000800002080B487B000AF0023FB6000238E
:10731C00BB6000237B6100237B6000233B611E4B21
:10732C005B68FB60FB6803F00C03042B02D0082B9A
:10733C0003D027E0194B3B6127E0FB689B0C03F063
:10734C000F03174AD35C7B60FB6803F48033002B7C
:10735C0010D0114B5B685B0C03F00103114AD35C3A
:10736C00BB607B680D4A03FB02F2BB68B2FBF3F314
:10737C007B6104E07B680C4A02FB03F37B617B6955
:10738C003B6102E0054B3B6100BF3B6918461C3773
:10739C00BD4680BC704700BF0010024000127A004E
:1073AC00747400088474000800093D0080B485B032
:1073BC0000AF78600A4B1B680A4AA2FB03235B0AE6
:1073CC007A6802FB03F3FB6000BFFB685A1EFA608D
:1073DC00002BF9D100BF00BF1437BD4680BC7047ED
:1073EC0004000020D34D621003460244934200D1A6
:1073FC00704703F8011BF9E770B500260C4D0D4CD6
:10740C00641BA410A64209D100F01AF800260A4DFC
:10741C000A4C641BA410A64205D170BD55F8043B60
:10742C0098470136EEE755F8043B98470136F2E7EA
:10743C008874000888740008887400088C7400082C
:10744C00F8B500BFF8BC08BC9E467047F8B500BF45
:08745C00F8BC08BC9E46704715
:1074640000000000000000000102030406070809F0
:1074740002030405060708090A0B0C0D0E0F101071
:047484000102000001
:047488003151000876
:04748C000D51000896
:10749000010000000024F4001000000001000000C2
:0400000508005A3D58
:00000001FF
