:020000040800F2
:1000000000500020392F00085D2E0008632E0008E4
:10001000692E00086F2E0008752E000800000000F1
:100020000000000000000000000000007B2E00081F
:10003000872E000800000000932E00089F2E000865
:10004000812F0008812F0008812F0008812F0008D0
:10005000812F0008812F0008812F0008812F0008C0
:10006000812F0008812F0008812F0008812F0008B0
:10007000812F0008812F0008812F0008812F0008A0
:10008000812F0008812F0008812F0008812F000890
:10009000812F0008812F0008812F0008812F000880
:1000A000812F0008812F0008812F0008812F000870
:1000B000812F0008812F0008812F0008812F000860
:1000C000812F0008812F0008812F0008812F000850
:1000D000812F0008AD2E0008812F0008812F000815
:1000E000812F0008812F0008812F000800000000E8
:1000F0000000000000000000000000000000000000
:0C01000000000000000000005FF808F1A3
:10010C0010B5054C237833B9044B13B10448AFF345
:10011C0000800123237010BD90000020000000001F
:10012C00306F000808B5034B1BB103490348AFF30C
:10013C00008008BD0000000094000020306F000813
:10014C0080F0004002E000BF81F0004142001FBF80
:10015C005FEA410392EA030F7FEA226C7FEA236C89
:10016C006AD04FEA1262D2EB1363C1BFD21841407E
:10017C0048404140B8BF5B42192B88BF704710F014
:10018C00004F40F4000020F07F4018BF404211F0B7
:10019C00004F41F4000121F07F4118BF494292EA1F
:1001AC00030F3FD0A2F1010241FA03FC10EB0C004B
:1001BC00C3F1200301FA03F100F0004302D54942D8
:1001CC0060EB4000B0F5000F13D3B0F1807F06D385
:1001DC0040084FEA310102F10102FE2A51D2B1F17D
:1001EC00004F40EBC25008BF20F0010040EA030072
:1001FC007047490040EB0000013A28BFB0F5000FF2
:10020C00EDD2B0FA80FCACF1080CB2EB0C0200FAA7
:10021C000CF0AABF00EBC25052421843BCBFD040F6
:10022C001843704792F0000F81F4000106BF80F470
:10023C0000000132013BB5E74FEA41037FEA226C33
:10024C0018BF7FEA236C21D092EA030F04D092F0FE
:10025C00000F08BF0846704790EA010F1CBF002032
:10026C00704712F07F4F04D1400028BF40F000408F
:10027C00704712F100723CBF00F50000704700F0AF
:10028C00004343F0FE4040F4000070477FEA2262D6
:10029C0016BF08467FEA23630146420206BF5FEAA7
:1002AC00412390EA010F40F4800070474FF00003A7
:1002BC0004E000BF10F0004348BF40425FEA000C6E
:1002CC0008BF704743F0964301464FF000001CE016
:1002DC0050EA010208BF70474FF000030AE000BF6C
:1002EC0050EA010208BF704711F0004302D54042AA
:1002FC0061EB41015FEA010C02BF8446014600201C
:10030C0043F0B64308BFA3F18053A3F50003BCFA36
:10031C008CF2083AA3EBC25310DB01FA02FC6344E3
:10032C0000FA02FCC2F12002BCF1004F20FA02F2EA
:10033C0043EB020008BF20F00100704702F12002DD
:10034C0001FA02FCC2F1200250EA4C0021FA02F23E
:10035C0043EB020008BF20EADC7070474FF0FF0C43
:10036C001CEAD0521EBF1CEAD15392EA0C0F93EA3E
:10037C000C0F6FD01A4480EA010C400218BF5FEAE0
:10038C0041211ED04FF0006343EA501043EA511153
:10039C00A0FB01310CF00040B1F5000F3EBF49004D
:1003AC0041EAD3715B0040EA010062F17F02FD2A51
:1003BC001DD8B3F1004F40EBC25008BF20F0010034
:1003CC00704790F0000F0CF0004C08BF49024CEA4B
:1003DC00502040EA51207F3AC2BFD2F1FF0340EADD
:1003EC00C250704740F400004FF00003013A5DDC4E
:1003FC0012F1190FDCBF00F000407047C2F100028F
:10040C00410021FA02F1C2F1200200FA02FC5FEA7B
:10041C00310040F1000053EA4C0308BF20EADC70C5
:10042C00704792F0000F00F0004C02BF400010F437
:10043C00000F013AF9D040EA0C0093F0000F01F0E4
:10044C00004C02BF490011F4000F013BF9D041EA06
:10045C000C018FE70CEAD15392EA0C0F18BF93EA08
:10046C000C0F0AD030F0004C18BF31F0004CD8D132
:10047C0080EA010000F00040704790F0000F17BFB9
:10048C0090F0004F084691F0000F91F0004F14D0FF
:10049C0092EA0C0F01D142020FD193EA0C0F03D157
:1004AC004B0218BF084608D180EA010000F000405A
:1004BC0040F0FE4040F40000704740F0FE4040F435
:1004CC00400070474FF0FF0C1CEAD0521EBF1CEAD4
:1004DC00D15392EA0C0F93EA0C0F69D0A2EB0302F2
:1004EC0080EA010C49024FEA402037D04FF080538C
:1004FC0043EA111143EA10130CF000408B4238BF51
:10050C005B0042F17D024FF4000C8B4224BF5B1A5E
:10051C0040EA0C00B3EB510F24BFA3EB510340EAAC
:10052C005C00B3EB910F24BFA3EB910340EA9C005A
:10053C00B3EBD10F24BFA3EBD10340EADC001B01CA
:10054C0018BF5FEA1C1CE0D1FD2A3FF650AF8B426E
:10055C0040EBC25008BF20F0010070470CF0004C7B
:10056C004CEA50207F32C2BFD2F1FF0340EAC250A6
:10057C00704740F400004FF00003013A37E792F067
:10058C00000F00F0004C02BF400010F4000F013AC5
:10059C00F9D040EA0C0093F0000F01F0004C02BFC0
:1005AC00490011F4000F013BF9D041EA0C0195E729
:1005BC000CEAD15392EA0C0F08D142027FF47DAFC2
:1005CC0093EA0C0F7FF470AF084676E793EA0C0FB2
:1005DC0004D14B023FF44CAF08466EE730F0004CB0
:1005EC0018BF31F0004CCAD130F000427FF45CAF40
:1005FC0031F000437FF43CAF5FE700BF42000ED206
:10060C00B2F1FE4F0BD34FF09E03B3EB126209D441
:10061C004FEA002343F0004323FA02F070474FF0F7
:10062C000000704712F1610F01D1420202D14FF06C
:10063C00FF3070474FF00000704700BF80B584B0AA
:10064C0000AF03460A46FB711346BB71FB79012BC5
:10065C0002D15023FB7301E06023FB730C4B00228F
:10066C009A600B4B0022DA60FB7B094A1360084B43
:10067C0001221A61074ABB791370074B054A0449DA
:10068C00064802F007FF034618461037BD4680BDEA
:10069C00E80A00201C0B00202C0B0020F409002081
:1006AC0080B584B000AF03463960FB711346BB7153
:1006BC003B68002B01D101232BE0FB79012B02D1EC
:1006CC005023FB7301E06023FB73144B00229A60F0
:1006DC00124B0022DA60FB7B104A1360BB790F4A85
:1006EC0013610023BB7309E0BB7B3A681A44BB7BE4
:1006FC0011780B4AD154BB7B0133BB73BA7BBB79EA
:10070C009A42F1D3074B064A0449074802F0C2FE4D
:10071C00034618461037BD4680BD00BFE80A0020CE
:10072C001C0B00202C0B0020F409002080B582B09B
:10073C0000AF786000BF0B4B1B68DB6803F0030352
:10074C00002BF8D0084B094A0021064802F071FF33
:10075C00054B1A787B681A70002318460837BD467B
:10076C0080BD00BFF4090020240B0020000B0020EA
:10077C0080B584B000AF03463960FB711346BB7182
:10078C000023FB73BB79DB08DBB27B813B68002B5E
:10079C0001D101233AE0FB79012B02D15023BB7329
:1007AC0001E06023BB731B4B00229A60194B0022A3
:1007BC00DA60BB7B174A1360164B08221A610023C0
:1007CC007B731DE000233B7309E03B7B3A681A44C2
:1007DC003B7B1178104AD1543B7B01333B733B7B01
:1007EC00072BF2D90D4B0C4A0A490D4802F052FE68
:1007FC000346FB733B6808333B607B7B01337B73A5
:10080C007B7B9BB27A899A42DCD8FB7B18461037EB
:10081C00BD4680BDE80A00201C0B00202C0B0020DC
:10082C00F409002080B500AF044B054A1A60054A54
:10083C000549064801F00CFE00BF80BDC000002039
:10084C0000A800081000002000000020C4000020B8
:10085C0080B582B000AF224800F098FC0346BB7113
:10086C00BB79002B38D11E4B1B78032B34D11D4880
:10087C0000F046FC0346BB71BB79002B2CD1194B05
:10088C001B78002B28D10023FB710FE0164B1B6843
:10089C001A46FB791278D1B2144AD154124B1B6808
:1008AC000133114A1360FB790133FB71FB790F2B78
:1008BC00ECD910220D490E4801F0AFFFBB79002B8B
:1008CC000AD10A4800F0B2FB0346BB71012000F0CC
:1008DC00F5FB042000F038FC00BF0837BD4680BD96
:1008EC00BC000020BD000020C0000020AC00002097
:1008FC00C400002080B400AF034B044A1A6000BF50
:10090C00BD4680BC704700BF8401002000A80008D1
:10091C0080B584B000AF78600B467B800023FB73FE
:10092C0000237B810023BB817B68002B02D1012338
:10093C00FB7324E00023BB811DE0BB897A68134460
:10094C001B781AB2BB89013379680B441B781B02E4
:10095C001BB213431BB27B810B4B1B687A8911466C
:10096C00184600F032F8084B1B680233064A136035
:10097C00BB890233BB81BA897B889A42DDD3FB7B6E
:10098C0018461037BD4680BD8401002080B588B064
:10099C0000AF78600023FB6001233B617B687B61C7
:1009AC001623BB6103F0E4F907F1080207F10C030D
:1009BC001146184603F0C4FA0346FB7703F0FEF920
:1009CC00FB7F18462037BD4680BDB0B584B000AF64
:1009DC0078600B467B8003F0CBF97B8800221C46A9
:1009EC00154622462B467968012003F051F903463F
:1009FC00FB7303F0E3F9FB7B18461037BD46B0BD23
:100A0C0080B500AF154B00221A60154B00221A60FE
:100A1C00144B00221A70144B00221A70134B002234
:100A2C001A70134B00221A70124B00221A80124BB0
:100A3C0000221A70114B4FF000021A60104B00226A
:100A4C001A70104B00221A6001220F490F4805F052
:100A5C0012F8FFF74FFF00BF80BD00BF88010020D8
:100A6C008C010020900100209101002092010020B7
:100A7C009A0100209C0100209E010020A00500206E
:100A8C00A4050020A805002094010020780A00206D
:100A9C0090B583B000AF984B1B78052B00F2848186
:100AAC0001A252F823F000BFCD0A0008FB0A00088F
:100ABC00550B0008FB0B0008410D00081D0B00082E
:100ACC008E4800F0A9FB0346FB71FB79002B0ED17D
:100ADC008A4B1B78012B03D1874B01221A7006E03D
:100AEC00864B1B78022B02D1834B05221A70844B48
:100AFC0005221A704FF0FF3301228149814804F01E
:100B0C00A5FE8148FFF742FF7B4B03221A704CE194
:100B1C007B4B06221A704FF0FF330122784979483B
:100B2C0004F094FE754B00221A70002000F00CFBB0
:100B3C00744B1B68DA68734B1B6842F02002DA6056
:100B4C006D4B00221A7030E16D4B07221A704FF07A
:100B5C00FF3301226A496B4804F078FE4FF0FF33F3
:100B6C0005226A49674804F0F4FE684B1B781A4664
:100B7C00664B5B781B021A43644B9B781B041A432D
:100B8C00624BDB781B0613431A46614B1A605F4BB2
:100B9C001A79604B1A705E4B1B68184600F0BCF952
:100BAC005C4B1B78184600F071F9012000F0F8F945
:100BBC00574B1B689B0ADAB2574B1A70544B1B6885
:100BCC009BB2C3F309039AB2544B1A804C4B0822C4
:100BDC001A704FF0FF33012249494A4804F036FE9F
:100BEC00012000F0B1FA444B00221A70DDE0444BB6
:100BFC000C221A704FF0FF3301224149414804F096
:100C0C0025FE454B1B78002B23D04FF0FF334FF4C0
:100C1C00806243493B4804F09CFE3F4B1B78013BF0
:100C2C00DAB23D4B1A704FF480613D48FFF770FE0D
:100C3C00334B0A221A704FF0FF33012230493148EE
:100C4C0004F004FE374B1B6803F58063354A1360D0
:100C5C002AE0314B1B78002B26D1304B1B88002B04
:100C6C0022D02E4B1A884FF0FF332D49254804F023
:100C7C0070FE2A4B1B8819462948FFF749FE204B6A
:100C8C000B221A704FF0FF3301221D491D4804F04E
:100C9C00DDFD194B04221A70204B1B881A46214B80
:100CAC001B6813441F4A13601E4B1B681846FFF742
:100CBC00FDFA0446164B1B681846FFF7F7FA034675
:100CCC0019462046FFF7FEFB03461A46164B1A60E0
:100CDC00154B1B6815491846FFF740FB0346184691
:100CEC00FFF78CFC0346DAB2114B1A70104B1B78D1
:100CFC00184600F0B5FA58E0920100209E01002041
:100D0C0099010020780A002000A800089401002016
:100D1C008C010020900100209A0100209C010020F1
:100D2C00A0010020A8050020A00500200000C8425A
:100D3C00A40500201F4B0D221A704FF0FF33012227
:100D4C001C491D4804F082FD032000F0FDF91B4BEB
:100D5C0000221A601A4B00221A601A4B00221A70D9
:100D6C00194B00221A70194B00221A80184B0022C2
:100D7C001A70184B4FF000021A60174B00221A70B1
:100D8C00164B00221A60002000F06AFAFFF7B2FD41
:100D9C00134B00221A70084B1B68DA68064B1B6851
:100DAC0042F02002DA6000E000BF00BF0C37BD4605
:100DBC0090BD00BF99010020780A00208801002016
:100DCC008C010020900100209A0100209C01002041
:100DDC009E010020A0050020A4050020A8050020ED
:100DEC009201002080B584B000AF7860224B1B7854
:100DFC00012B33D1214800F0C9F90346FB73FB7B6F
:100E0C00002B1DD11D4B1B78002B0ED1022000F0A6
:100E1C009BF91B4B02221A701A4B1B68DA68194B90
:100E2C001B6822F02002DA6022E0174B03221A70B2
:100E3C004FF0FF3301221449124804F007FD17E06C
:100E4C00FB7B012B14D1104B02221A704FF0FF3395
:100E5C0001220D490B4804F0F9FC09E00A4B04226D
:100E6C001A704FF0FF3301220749064804F0EEFCDC
:100E7C0000BF1037BD4680BD9401002091010020B9
:100E8C0092010020780A00209901002080B485B0DE
:100E9C0000AF0346FB710023FB730B4B1B78002B3D
:100EAC0009D1094B01221A70084AFB791370064BC1
:100EBC0000221A7001E00123FB73FB7B18461437E8
:100ECC00BD4680BC704700BFBD050020B0050020AA
:100EDC0080B485B000AF78600023FB730C4B1B789B
:100EEC00002B0DD17B68002B0AD0094B01221A7004
:100EFC00084B1A787B681A70054B00221A7001E0B7
:100F0C000123FB73FB7B18461437BD4680BC70472E
:100F1C00BD050020B005002080B485B000AF78601E
:100F2C000023FB730A4B1B78002B09D1084B0122C1
:100F3C001A70084A7B681360054B00221A7001E096
:100F4C000123FB73FB7B18461437BD4680BC7047EE
:100F5C00BC050020AC05002080B485B000AF7860E3
:100F6C000023FB730C4B1B78002B0DD17B68002BE3
:100F7C000AD0094B01221A70084B1A687B681A6058
:100F8C00054B00221A7001E00123FB73FB7B184612
:100F9C001437BD4680BC7047BC050020AC05002052
:100FAC0080B485B000AF0346FB710023FB730B4B81
:100FBC001B78002B09D1094B01221A70084AFB79C6
:100FCC001370064B00221A7001E00123FB73FB7BAC
:100FDC0018461437BD4680BC704700BFBE050020C4
:100FEC00B105002080B485B000AF78600023FB739E
:100FFC000C4B1B78002B0DD17B68002B0AD0094BB6
:10100C0001221A70084B1A787B681A70054B002263
:10101C001A7001E00123FB73FB7B18461437BD46A5
:10102C0080BC7047BE050020B105002080B485B09F
:10103C0000AF78600023FB730C4B1B78002B0CD19A
:10104C007B68002B09D0094B01221A70084A7B6877
:10105C001360064B00221A7001E00123FB73FB7B2B
:10106C0018461437BD4680BC704700BFBF05002032
:10107C00B405002080B485B000AF78600023FB730A
:10108C000C4B1B78002B0DD17B68002B0AD0094B25
:10109C0001221A70084B1A687B681A60054B0022F3
:1010AC001A7001E00123FB73FB7B18461437BD4615
:1010BC0080BC7047BF050020B405002080B485B00B
:1010CC0000AF0346FB710023FB730B4B1B78002B0B
:1010DC0009D1094B01221A70084AFB791370064B8F
:1010EC0000221A7001E00123FB73FB7B18461437B6
:1010FC00BD4680BC704700BFC0050020B80500206D
:10110C0080B485B000AF78600023FB730C4B1B7868
:10111C00002B0DD17B68002B0AD0094B01221A70D1
:10112C00084B1A787B681A70054B00221A7001E084
:10113C000123FB73FB7B18461437BD4680BC7047FC
:10114C00C0050020B805002080B485B000AF034670
:10115C00FB710023FB730B4B1B78002B09D1094B44
:10116C0001221A70084AFB791370064B00221A7080
:10117C0001E00123FB73FB7B18461437BD4680BC92
:10118C00704700BFC1050020B905002080B485B0B0
:10119C0000AF78600023FB730C4B1B78002B0DD138
:1011AC007B68002B0AD0094B01221A70084B1A7865
:1011BC007B681A70054B00221A7001E00123FB7347
:1011CC00FB7B18461437BD4680BC7047C105002018
:1011DC00B905002080B485B000AF0346FB71002335
:1011EC00FB730B4B1B78002B09D1094B01221A7096
:1011FC00084AFB791370064B00221A7001E0012398
:10120C00FB73FB7B18461437BD4680BC704700BF90
:10121C00C2050020BA05002080B485B000AF78600C
:10122C000023FB730C4B1B78002B0DD17B68002B20
:10123C000AD0094B01221A70084B1A787B681A7075
:10124C00054B00221A7001E00123FB73FB7B18464F
:10125C001437BD4680BC7047C2050020BA0500207B
:10126C0080B485B000AF0346FB710023FB730B4BBE
:10127C001B78002B09D1094B01221A70084AFB7903
:10128C001370064B00221A7001E00123FB73FB7BE9
:10129C0018461437BD4680BC704700BFC3050020FC
:1012AC00BB05002080B485B000AF78600023FB73D1
:1012BC000C4B1B78002B0DD17B68002B0AD0094BF3
:1012CC0001221A70084B1A787B681A70054B0022A1
:1012DC001A7001E00123FB73FB7B18461437BD46E3
:1012EC0080BC7047C3050020BB05002080B582B0D0
:1012FC0000AF00F027FA44F62063012278215B4806
:10130C0003F0BCFA0346002B01D00023A9E040F601
:10131C00C4137B6002E07B68013B7B607B68002B25
:10132C00F9D1AE220021782000F086FA202200218B
:10133C00782000F081FA10220021782000F07CFA4D
:10134C00B0220021782000F077FAC8220021782002
:10135C0000F072FA00220021782000F06DFA1022C1
:10136C000021782000F068FA40220021782000F05B
:10137C0063FA81220021782000F05EFAFF2200211E
:10138C00782000F059FAA1220021782000F054FABC
:10139C00A6220021782000F04FFAA8220021782004
:1013AC0000F04AFA3F220021782000F045FAA422EE
:1013BC000021782000F040FAD3220021782000F0A0
:1013CC003BFA00220021782000F036FAD5220021C9
:1013DC00782000F031FAF0220021782000F02CFA6D
:1013EC00D9220021782000F027FA2222002178202F
:1013FC0000F022FADA220021782000F01DFA1222E5
:10140C000021782000F018FADB220021782000F06F
:10141C0013FA20220021782000F00EFA8D220021F0
:10142C00782000F009FA14220021782000F004FA48
:10143C00AF220021782000F0FFF92E220021782025
:10144C0000F0FAF9002000F043F800F013F8084B14
:10145C0000221A80064B00225A80054B01225A7139
:10146C00012318460837BD4680BD00BF240A002062
:10147C00C409002080B582B000AF0023FB711DE0D1
:10148C00FB79503BDBB21A460021782000F0D4F9EE
:10149C0000220021782000F0CFF9102200217820C2
:1014AC0000F0CAF9FB79DB01084A1A448023402179
:1014BC00782000F05BF9FB790133FB71FB79072B8A
:1014CC00DED900BF00BF0837BD4680BDC405002073
:1014DC0080B582B000AF0346FB71FB79002B01D1C4
:1014EC00002300E0FF234FF480621946034805F007
:1014FC0087F800BF0837BD4680BD00BFC40500207B
:10150C0080B483B000AF0346FB800B46BB80134610
:10151C00FB70FB887F2B48D8BB883F2B45D8254BCD
:10152C001B79002B06D0FB78002B0CBF012300236A
:10153C00DBB2FB70FB78012B1AD1FA88BB88DB0875
:10154C0098B20346DB0113441B4AD35C5AB2BB88E6
:10155C0003F00703012101FA03F35BB2134359B201
:10156C00FA880346DB011344C9B2134AD1541DE077
:10157C00FA88BB88DB0898B20346DB0113440E4A99
:10158C00D35C5AB2BB8803F00703012101FA03F3C1
:10159C005BB2DB435BB2134059B2FA880346DB0102
:1015AC001344C9B2044AD15400E000BF0C37BD4605
:1015BC0080BC7047C4090020C405002080B483B0EF
:1015CC0000AF03460A46FB801346BB80054AFB88E6
:1015DC001380044ABB88538000BF0C37BD4680BCC7
:1015EC00704700BFC409002080B586B000AF034629
:1015FC003960FB711346BB713A4B1B881A463B682A
:10160C001B7813447F2B07DC364B5B881A463B68F0
:10161C005B7813443F2B01DD00235EE000237B61EC
:10162C004BE03B685A68FB79203B3968497801FBF1
:10163C0003F319467B690B445B0013441B88FB6066
:10164C0000233B6130E0FA683B6902FA03F303F4D0
:10165C000043002B10D0234B1A883B699BB21344D8
:10166C0098B2204B5A887B699BB213449BB2BA79CF
:10167C001946FFF745FF14E01A4B1A883B699BB2D9
:10168C00134498B2174B5A887B699BB2134499B296
:10169C00BB79002B0CBF01230023DBB21A46FFF7EA
:1016AC002FFF3B6901333B613B681B781A463B6952
:1016BC009342C8D37B6901337B613B685B781A46E4
:1016CC007B699342ADD3074B1A883B681B789BB25E
:1016DC0013449AB2034B1A80FB7918461837BD464F
:1016EC0080BD00BFC409002080B584B000AFF86095
:1016FC00B9601346FB7112E0FB681B78FA79B96884
:10170C001846FFF771FF03461A46FB681B789A428E
:10171C0002D0FB681B7808E0FB680133FB60FB68B8
:10172C001B78002BE8D1FB681B7818461037BD4698
:10173C0080BD80B500AF0020FFF7CAFEFFF79AFE10
:10174C0000BF80BD80B483B000AF074B7B6002E06C
:10175C007B68013B7B607B68002BF9D100BF00BF2D
:10176C000C37BD4680BC704790D0030090B5C7B015
:10177C0002AF0446084607F58871A1F588710A6026
:10178C00194607F58873A3F2091322461A7007F558
:10179C008873A3F5857302461A7007F58873A3F551
:1017AC0086730A461A8007F58873A3F5827307F5CA
:1017BC008872A2F5857212781A70002387F80F319F
:1017CC0015E097F80F3107F58872A2F58872126848
:1017DC001A4497F80F310133117807F58872A2F586
:1017EC008272D15497F80F31013387F80F3197F883
:1017FC000F319BB207F58872A2F5867212889A4255
:10180C00DFD807F58873A3F209131B7899B207F593
:10181C008873A3F586731B8801339BB207F10C0206
:10182C000A200090034802F02BFF00BF07F58A77CF
:10183C00BD4690BD240A002080B586B002AF034699
:10184C00FB710B46BB7113467B71BB793B737B7988
:10185C007B73FB7999B207F10C020A2300930223E4
:10186C00034802F00DFF00BF1037BD4680BD00BF1E
:10187C00240A002080B400AF144B00221A60144BD1
:10188C0000221A70134B00221A80134B00221A806C
:10189C00124B00221A70124B4FF000021A60114BBF
:1018AC0000221A70104B00221A70104B104A1A604A
:1018BC000E4B104A5A600D4B0F4A9A600B4B0F4A55
:1018CC00DA6000231846BD4680BC7047CC09002066
:1018DC00D0090020D2090020D4090020D60900200C
:1018EC00D8090020DC090020DD090020E0090020D7
:1018FC00411900088D1900084D1A0008CD1B00086D
:10190C0080B582B000AF0023FB71084B1B781A46E0
:10191C00074B53F822303B603B6800209847034646
:10192C00FB71FB7918460837BD4680BDDD090020E8
:10193C00E009002080B584B000AF78600023FB7311
:10194C000023BB7307F10E031846FFF74BFB03464E
:10195C00FB73FB7B002B09D1BB7B012B03D1074B0A
:10196C0001221A7004E00023FB7301E00123FB73D6
:10197C00FB7B18461037BD4680BD00BFDD0900203B
:10198C0080B58AB000AF7860002387F82730002339
:10199C00FB6100233B620023FB7600237B61002369
:1019AC003B610023FB7307F1100207F1140107F1EF
:1019BC001B03184600F042F907F1140207F11B0350
:1019CC001146184600F09CF97B69396907F11C0235
:1019DC00184600F05BF9FB7E10211846FEF72EFE30
:1019EC0007F10F031846FEF7A1FEFB7B502B13D11A
:1019FC00FB7E34211846FEF721FE07F10F03184633
:101A0C00FEF794FEFB7B732B06D1FB7E07F11C01CA
:101A1C0008221846FEF744FE07F10F031846FEF79E
:101A2C0085FEFB7B742B02D1044B02221A7097F8B3
:101A3C00273018462837BD4680BD00BFDD09002081
:101A4C0090B587B000AF78600023FB7500233B6135
:101A5C000023FB73514B1B681B099AB2504B1A8025
:101A6C004E4B1B68DBB203F00F03DAB24D4B1A700E
:101A7C0007F117031846FFF743FBFB7D012B40F0E2
:101A8C00888007F110031846FFF7F4FA464B1B78D1
:101A9C0036211846FEF7D2FD07F10F031846FEF764
:101AAC0045FEFB7B752B74D1404B1A883C4B1B8835
:101ABC009A4250D23C4B1B78396910221846FEF7DB
:101ACC0057FE07F10F031846FEF730FEFB7B762B13
:101ADC005FD1364B1B8801339AB2344B1A80334B8F
:101AEC001A882F4B1B889A4207D12E4B1B78002B40
:101AFC0003D12F4B03221A7005E00020FFF7DEFA0A
:101B0C000320FFF721FB294B1B881846FEF7CEFB61
:101B1C000446234B1B881846FEF7C8FB03461946A0
:101B2C002046FEF7CFFC03461A46224B1A60214B87
:101B3C001B6821491846FEF711FC03461846FEF7B0
:101B4C005DFD0346DAB21D4B1A701C4B1B78184610
:101B5C00FFF786FB1DE0134B1B78002B19D0124BA3
:101B6C001B78396910221846FEF702FE07F10F03A5
:101B7C001846FEF7DBFDFB7B762B0AD10C4B0322C0
:101B8C001A700E4B64221A700C4B1B781846FFF718
:101B9C0067FB002318461C37BD4690BDCC090020BE
:101BAC00D4090020D6090020D0090020D209002039
:101BBC00DD090020D80900200000C842DC09002003
:101BCC0080B584B000AF78600023FB730020FFF772
:101BDC0075FA144B1B7837211846FEF72FFD07F1C9
:101BEC000F031846FEF7A2FDFB7B772B05D10E4B9E
:101BFC0000221A700520FFF7A7FA0C4B00221A607E
:101C0C00084B00221A700A4B00221A80094B002242
:101C1C001A80094B00221A70002318461037BD4653
:101C2C0080BD00BFD0090020DD090020CC090020B8
:101C3C00D2090020D4090020D609002080B586B036
:101C4C0000AFF860B9607A600023FB75F868FFF7A5
:101C5C003FF90346FB75B868FFF77EF90346FB7541
:101C6C00084B3B61BB681B689B081A4639690648E0
:101C7C0001F029FF02467B681A60FB7D1846183775
:101C8C00BD4680BD00A800081C0A002080B485B0A9
:101C9C0000AFF860B9607A60FB68DAB27B681A70E2
:101CAC00FB681A0A7B680133D2B21A70FB681A0CF3
:101CBC007B680233D2B21A70FB681A0E7B6803334E
:101CCC00D2B21A707B680433BA68D2B21A70BB688D
:101CDC001A0A7B680533D2B21A70BB681A0C7B687F
:101CEC000633D2B21A70BB681A0E7B680733D2B2B5
:101CFC001A70002318461437BD4680BC704700008C
:101D0C0080B483B000AF786039607B681A78064B7A
:101D1C001A703B681B68054A1360002318460C3781
:101D2C00BD4680BC704700BFD0090020CC09002004
:101D3C0080B500AF074B00221A70074B00221A70B7
:101D4C00064B00221A70FFF7D1FA00F0B3F800BF6F
:101D5C0080BD00BFF0090020F2090020F30900202B
:101D6C0080B582B000AF4F4B1B78062B00F28E80F3
:101D7C0001A252F823F000BFA11D0008C91D0008E4
:101D8C00CF1D0008EB1D00080D1E0008471E0008A3
:101D9C00771E00084448FFF7F9F903467B717B79FD
:101DAC00002B75D1404B1B78012B71D100F002FA3E
:101DBC0000F0A0F83B4B01221A7069E000F002FA27
:101DCC006BE000F0F7F900F041F90120FFF702FA9F
:101DDC000220FFF7B9F9334B04221A705DE000F0D2
:101DEC00E9F90220FFF7F6F90020FFF7ADF92D4BCA
:101DFC0000221A702D4B00221A7000F05BF84CE098
:101E0C002B48FFF74FFA0346BB71BB79002B41D12E
:101E1C00274B1B78184600F04DF9254B1B78642B8B
:101E2C0038D14FF4FA6001F009F900F0C3F900F071
:101E3C0097F91C4B05221A702CE01B48FFF7A6F9EA
:101E4C000346FB71FB79002B26D1174B1B78052B16
:101E5C0022D100F0AFF900F059F94FF4FA6001F01B
:101E6C00EDF8104B06221A7016E00E4B00221A7079
:101E7C000E4B00221A700E4B00221A7000F09AF9C9
:101E8C0000F018F80020FFF75FF906E000BF04E04F
:101E9C0000BF02E000BF00E000BF00BF0837BD4636
:101EAC0080BD00BFF0090020F1090020F2090020DC
:101EBC00F309002080B500AF0A210020FFF77EFB5C
:101ECC00012208490848FFF70FFC1E210520FFF7E7
:101EDC0075FB012205490648FFF706FCFFF7CAFA15
:101EEC0000BF80BD28000020486F000820000020A3
:101EFC00546F000880B584B000AF0023BB7300237F
:101F0C00BB6007F10E031846FEF7E2FF07F108036A
:101F1C001846FFF721F8BB683F4AA2FB03239B0935
:101F2C00DBB21433FB7300211420FFF747FB0122B3
:101F3C003A493B48FFF7D8FB0A211420FFF73EFB38
:101F4C00012236493748FFF7CFFBBB7B012B02D070
:101F5C00022B0AD013E014211420FFF72FFB0122CF
:101F6C002E493148FFF7C0FB13E014211420FFF772
:101F7C0025FB012229492D48FFF7B6FB09E0142166
:101F8C001420FFF71BFB012224492948FFF7ACFB67
:101F9C0000BFFA7B3B1D2749184604F011FB1E219C
:101FAC001420FFF70BFB01221C492348FFF79CFB75
:101FBC001E215F20FFF702FB3B1D0122174918462B
:101FCC00FFF792FB1E216E20FFF7F8FA012213494E
:101FDC001A48FFF789FB28211E20FFF7EFFA012290
:101FEC000E491748FFF780FB32211E20FFF7E6FA57
:101FFC0001220A491348FFF777FB28211420FFF729
:10200C00DDFA012205491048FFF76EFBFFF732FAA3
:10201C0000BF1037BD4680BDD34D6210200000209C
:10202C00686F0008786F0008886F0008986F0008C8
:10203C00A86F0008B46F0008B86F0008C46F0008E0
:10204C00C86F0008D06F0008D86F000880B500AFCB
:10205C000A212820FFF7B2FA012211491148FFF793
:10206C0043FB14212820FFF7A9FA01220C490E4842
:10207C00FFF73AFB1E212820FFF7A0FA012208499E
:10208C000A48FFF731FB28213220FFF797FA01228B
:10209C0003490748FFF728FBFFF7ECF900BF80BDA9
:1020AC0020000020DC6F0008E86F0008F06F0008CB
:1020BC00FC6F000880B584B000AF0346FB71FA7961
:1020CC0007F10C030E49184604F07AFA2821322045
:1020DC00FFF774FA01220B490B48FFF705FB282187
:1020EC003220FFF76BFA07F10C0301220549184661
:1020FC00FFF7FAFAFFF7BEF900BF1037BD4680BDF7
:10210C00B46F0008200000200470000880B500AFF8
:10211C000A212820FFF752FA01220D490D48FFF73A
:10212C00E3FA14212320FFF749FA012208490A484F
:10213C00FFF7DAFA1E213220FFF740FA0122044998
:10214C000648FFF7D1FAFFF795F900BF80BD00BF35
:10215C0020000020DC6F00080C70000818700008CC
:10216C0080B500AF0A212820FFF728FA01220D497B
:10217C000D48FFF7B9FA14212820FFF71FFA0122A6
:10218C0008490A48FFF7B0FA1E212820FFF716FA73
:10219C00012204490648FFF7A7FAFFF76BF900BFC5
:1021AC0080BD00BF20000020207000082C700008AB
:1021BC003870000880B500AFFFF7BBFAFFF75AF98B
:1021CC0000BF80BD80B500AF1021334802F0E4F8A9
:1021DC000346002B3AD100BF10212F4802F0DCF847
:1021EC000346002BF8D02D4B1B78002B15D1282142
:1021FC001420FFF7E3F9012229492A48FFF774FA62
:10220C0032211420FFF7DAF9012225492648FFF77D
:10221C006BFA224B01221A7018E0204B1B78012B11
:10222C0014D128211420FFF7C9F901221C491E489A
:10223C00FFF75AFA32211420FFF7C0F9012218498E
:10224C001848FFF751FA154B00221A70FFF712F9D4
:10225C00642000F0F3FE08210F4802F09DF80346BD
:10226C00002BB1D100BF08210B4802F095F80346B2
:10227C00002BF8D0094B1B78002B03D10B4B0222FF
:10228C001A7006E0054B1B78012B9DD1074B0322DE
:10229C001A7000BF80BD00BF000C0140F209002085
:1022AC002000002044700008D86F0008F0090020BE
:1022BC0080B489B000AF786039600023FB6130E0F6
:1022CC00FB699B003A681A44FB699B0079680B44D4
:1022DC0012781A70FB699B0001333A681A44FB6947
:1022EC009B00013379680B4412781A70FB699B00D0
:1022FC0002333A681A44FB699B00023379680B4439
:10230C0012781A70FB699B0003333A681A44FB6914
:10231C009B00033379680B4412781A70FB69013304
:10232C00FB61FB69032BCBD90423FB6181E0FB69C7
:10233C00013B9B00BB617A68BB6913441B783B7300
:10234C00BB6901337A6813441B787B73BB69023316
:10235C007A6813441B78BB73BB6903337A681344E4
:10236C001B78FB73FB6903F00303002B25D13B7B2C
:10237C00FB757B7B3B73BB7B7B73FB7BBB73FB7DFD
:10238C00FB733B7B1A46304B9B5C3B737B7B1A4647
:10239C002D4B9B5C7B73BB7B1A462B4B9B5CBB73A3
:1023AC00FB7B1A46284B9B5CFB733A7BFB699B08B7
:1023BC002649CB5C5340DBB23B73FB699B003B6112
:1023CC00FB69043B9B00BB617A68BB6913441978B9
:1023DC003A7B78683B6903444A40D2B21A70BB69B5
:1023EC0001337A68134419787A7B3B690133786836
:1023FC0003444A40D2B21A70BB6902337A68134460
:10240C001978BA7B3B690233786803444A40D2B2EC
:10241C001A70BB6903337A6813441978FA7B3B69E9
:10242C000333786803444A40D2B21A70FB69013313
:10243C00FB61FB692B2B7FF67AAF00BF00BF243703
:10244C00BD4680BC704700BF108500081086000890
:10245C0080B584B000AFF860B9607A60FB68B96889
:10246C001846FFF725FFFB68B03310227968184631
:10247C0004F0FAF800BF1037BD4680BD80B487B0B9
:10248C0000AF0346B9607A60FB730023FB7527E04D
:10249C000023BB751EE0FA7DBB7DB96892000A442F
:1024AC0013441878FB7B9A00FB7D13449A00BB7D88
:1024BC0013441A467B6813441978FA7DBB7D41405E
:1024CC00C8B2B96892000A44134402461A70BB7D24
:1024DC000133BB75BB7D032BDDD9FB7D0133FB7554
:1024EC00FB7D032BD4D900BF00BF1C37BD4680BC7D
:1024FC007047000080B485B000AF78600023FB7398
:10250C001DE00023BB7314E0BA7BFB7B796892005F
:10251C000A4413441B781846BA7BFB7B0C49085CB5
:10252C00796892000A44134402461A70BB7B01334B
:10253C00BB73BB7B032BE7D9FB7B0133FB73FB7BAF
:10254C00032BDED900BF00BF1437BD4680BC7047DB
:10255C001085000880B485B000AF78607B685B782C
:10256C00FB737B685A797B685A707B685A7A7B68F4
:10257C005A717B685A7B7B685A727B68FA7B5A73F8
:10258C007B689B78FB737B689A7A7B689A707B6814
:10259C00FA7B9A727B689B79FB737B689A7B7B686E
:1025AC009A717B68FA7B9A737B68DB78FB737B6828
:1025BC00DA7B7B68DA707B68DA7A7B68DA737B6843
:1025CC00DA797B68DA727B68FA7BDA7100BF1437D0
:1025DC00BD4680BC704780B483B000AF0346FB712E
:1025EC00FB795B005AB2FB79DB09DBB21946490077
:1025FC000B441946C800194603460B44DBB25BB2C8
:10260C0053405BB2DBB218460C37BD4680BC7047FA
:10261C0080B584B000AF78600023FB73A4E0FA7B34
:10262C007B6813F82230BB73FA7B7B6813F822208B
:10263C00FB7B79689B000B445B785340DAB2FB7BE5
:10264C0079689B000B449B785340DAB2FB7B79682A
:10265C009B000B44DB7853407B73FA7B7B6813F84D
:10266C002220FB7B79689B000B445B7853403B73C7
:10267C003B7B1846FFF7AFFF03463B73FA7B7B6847
:10268C0013F822103A7B7B7B5340DBB2FA7B4B4036
:10269C00D9B27B6803F82210FB7B7A689B00134449
:1026AC005A78FB7B79689B000B449B7853403B73B7
:1026BC003B7B1846FFF78FFF03463B73FB7B7A6827
:1026CC009B00134459783A7B7B7B5340DAB2FB7BFB
:1026DC004A40D1B27A689B0013440A465A70FB7B7D
:1026EC007A689B0013449A78FB7B79689B000B44B7
:1026FC00DB7853403B733B7B1846FFF76CFF03467C
:10270C003B73FB7B7A689B00134499783A7B7B7B09
:10271C005340DAB2FB7B4A40D1B27A689B00134437
:10272C000A469A70FB7B7A689B001344DA78BB7B71
:10273C0053403B733B7B1846FFF74DFF03463B73FF
:10274C00FB7B7A689B001344D9783A7B7B7B5340A4
:10275C00DAB2FB7B4A40D1B27A689B0013440A463A
:10276C00DA70FB7B0133FB73FB7B032B7FF657AFDC
:10277C0000BF00BF1037BD4680BD80B584B000AF30
:10278C00786039600023FB733A6879680020FFF7A2
:10279C0075FE0123FB737868FFF7ACFE7868FFF7D2
:1027AC00D9FEFB7B0A2B0CD07868FFF731FFFB7B43
:1027BC003A6879681846FFF761FEFB7B0133FB73BF
:1027CC00E9E700BF3A6879680A20FFF757FE00BFB7
:1027DC001037BD4680BD80B485B000AF78603960DD
:1027EC000023FB7310E0FB7B7A6813441978FB7BA6
:1027FC003A6813441A78FB7B786803444A40D2B297
:10280C001A70FB7B0133FB73FB7B0F2BEBD900BFE7
:10281C0000BF1437BD4680BC704780B586B000AF92
:10282C00F860B9607A60FB68B0333B6100237B6170
:10283C0010E03969B868FFF7CEFFFB681946B86835
:10284C00FFF79BFFBB683B61BB681033BB607B69C8
:10285C0010337B617A697B689A42EAD3FB68B033A8
:10286C0010223969184603F0FFFE00BF1837BD4629
:10287C0080BD000080B582B000AF0023FB7100F07A
:10288C007BFB00F03DF800F049F900F07FF800F018
:10289C00EDF800F019F900F0D5F8184800F0B6FD85
:1028AC00FEF7AEF8FEF7E6FFFDF7BCFFFFF740FAC8
:1028BC000320FEF749FC0120FEF772FB0120FEF716
:1028CC00E5FA42F22450FEF727FBFB1D1846FEF7F3
:1028DC005DFCFB79022B02D1FEF7DAF80AE0FB79FA
:1028EC00032B02D1FDF7B4FF04E0FB79042B01D1DB
:1028FC00FFF706F8FFF734FAE7E700BFF40900200A
:10290C0080B590B000AF07F11803282200211846BB
:10291C0003F076FE3B1D00221A605A609A60DA6062
:10292C001A610123BB614FF48033FB6100233B62CE
:10293C000123BB6202237B634FF48033BB634FF4F0
:10294C00E013FB6307F11803184602F01FFB034664
:10295C00002B01D000F048F90F237B600223BB60F1
:10296C000023FB604FF480633B6100237B613B1DC4
:10297C000221184602F08CFD0346002B01D000F01A
:10298C0033F900BF4037BD4680BD000080B500AFB5
:10299C00294B2A4A1A60284B04225A60264B0022E3
:1029AC009A60254B0022DA60234B4FF460221A61A7
:1029BC00214B4FF480125A611F4B00221A761E4B8A
:1029CC0000225A761C4B00229A761B4B0022DA7698
:1029DC00194B00221A77184B00225A77164800F030
:1029EC0051FB0346002B01D000F0FEF8144B0122E2
:1029FC001A62134B00225A61114B00221A61104BC0
:102A0C004FF400721A600E4B00225A600C4B4FF4BC
:102A1C0000729A600A4B0022DA60094B00229A611C
:102A2C00074B0122DA61064B0A225A62044902481A
:102A3C0000F023FC00BF80BDF409002000640040BE
:102A4C00C00A002080B500AF064B074A1A60054843
:102A5C0001F01DF80346002B01D000F0C5F800BFB3
:102A6C0080BD00BF1C0A00200030024080B500AFC2
:102A7C00124B134A1A60114B124A5A600F4B002228
:102A8C009A600E4B0022DA600C4B4FF480421A61B4
:102A9C000A4B00225A61094B00229A61074B002213
:102AAC00DA61064B00221A62044801F0A5FC0346C9
:102ABC00002B01D000F098F800BF80BD240A002044
:102ACC0000540040801A060080B500AF114B124A2A
:102ADC001A60104B4FF4E1325A600E4B00229A6090
:102AEC000C4B0022DA600B4B00221A61094B0C22B2
:102AFC005A61084B00229A61064B0022DA610548A4
:102B0C0002F054FE0346002B01D000F06DF800BF1C
:102B1C0080BD00BF780A00200038014080B588B025
:102B2C0000AF07F1100300221A605A609A60DA6055
:102B3C002A4B9B69294A43F010039361274B9B69ED
:102B4C0003F01003FB60FB68244B9B69234A43F0A2
:102B5C0020039361214B9B6903F02003BB60BB688E
:102B6C001E4B9B691D4A43F0040393611B4B9B69ED
:102B7C0003F004037B607B68184B9B69174A43F096
:102B8C0008039361154B9B6903F008033B603B689A
:102B9C0000224FF40051124801F015FC4FF4005381
:102BAC003B6101237B610023BB610223FB6107F1C5
:102BBC00100319460A4801F06BFA18233B610023F5
:102BCC007B610123BB6107F110031946054801F035
:102BDC005FFA00BF2037BD4680BD00BF0010024029
:102BEC0000100140000C014080B400AF72B600BF71
:102BFC00FEE7000080B485B000AF154B9B69144A0A
:102C0C0043F001039361124B9B6903F00103BB601A
:102C1C00BB680F4BDB690E4A43F08053D3610C4BFE
:102C2C00DB6903F080537B607B680A4B5B68FB605D
:102C3C00FB6823F0E063FB60FB6843F00073FB6010
:102C4C00044AFB68536000BF1437BD4680BC704714
:102C5C00001002400000014080B588B000AF7860E1
:102C6C0007F1100300221A605A609A60DA607B68E0
:102C7C001B681C4A934231D11B4BDB691A4A43F047
:102C8C000073D361184BDB6903F00073FB60FB68C6
:102C9C00154B9B69144A43F004039361124B9B69D7
:102CAC0003F00403BB60BB684FF400633B6100237B
:102CBC007B610023BB6107F1100319460B4801F03F
:102CCC00E7F94FF480533B6102237B610323FB61E3
:102CDC0007F110031946054801F0DAF900BF203757
:102CEC00BD4680BD00640040001002400008014059
:102CFC0080B485B000AF78607B681B68094A93424A
:102D0C000BD1094B5B69084A43F040035361064BF6
:102D1C005B6903F04003FB60FB6800BF1437BD46E2
:102D2C0080BC7047003002400010024080B588B073
:102D3C0000AF786007F1100300221A605A609A60A5
:102D4C00DA607B681B68154A934223D1144B9B694C
:102D5C00134A43F008039361114B9B6903F008037A
:102D6C00FB60FB68C0233B6112237B610323FB6187
:102D7C0007F1100319460B4801F08AF9084BDB697F
:102D8C00074A43F40013D361054BDB6903F40013CA
:102D9C00BB60BB6800BF2037BD4680BD00540040FF
:102DAC0000100240000C014080B588B000AF786084
:102DBC0007F1100300221A605A609A60DA607B688F
:102DCC001B68204A934239D11F4B9B691E4A43F41E
:102DDC00804393611C4B9B6903F48043FB60FB684D
:102DEC00194B9B69184A43F004039361164B9B697A
:102DFC0003F00403BB60BB684FF400733B61022318
:102E0C007B610323FB6107F1100319460F4801F0A6
:102E1C003FF94FF480633B6100237B610023BB616E
:102E2C0007F110031946094801F032F9002200217C
:102E3C00252000F0F6FD252000F00FFE00BF203706
:102E4C00BD4680BD00380140001002400008014022
:102E5C0080B400AFFEE780B400AFFEE780B400AFF3
:102E6C00FEE780B400AFFEE780B400AFFEE780B4AD
:102E7C0000AF00BFBD4680BC704780B400AF00BF40
:102E8C00BD4680BC704780B400AF00BFBD4680BC5F
:102E9C00704780B500AF00F0B5F800BF80BD0000F2
:102EAC0080B500AF024802F00BFE00BF80BD00BF32
:102EBC00780A002080B586B000AF7860144A154BB4
:102ECC00D31A7B617B693B61134B1B68002B02D1CE
:102EDC00114B124A1A60104B1A687B6813443A69FA
:102EEC009A4207D203F094FB03460C221A604FF06F
:102EFC00FF3309E0084B1B68FB60074B1A687B68C3
:102F0C001344054A1360FB6818461837BD4680BD4C
:102F1C000050002000040000300B0020A00C00200A
:102F2C0080B400AF00BFBD4680BC7047FFF7F8FF10
:102F3C000B480C490C4A002302E0D458C45004330B
:102F4C00C4188C42F9D3094A094C002301E01360E0
:102F5C000432A242FBD303F061FBFFF78BFC7047FA
:102F6C00000000208C0000208486000890000020C7
:102F7C00A00C0020FEE7000080B500AF084B1B68DA
:102F8C00074A43F010031360032000F03FFD0F20AD
:102F9C0000F008F8FFF72EFE0023184680BD00BF96
:102FAC000020024080B582B000AF7860124B1A68E6
:102FBC00124B1B7819464FF47A73B3FBF1F3B2FB47
:102FCC00F3F3184600F057FD0346002B01D0012304
:102FDC000EE07B680F2B0AD8002279684FF0FF3087
:102FEC0000F01FFD064A7B681360002300E00123FC
:102FFC0018460837BD4680BD300000203800002040
:10300C003400002080B400AF054B1B781A46054BEA
:10301C001B681344034A136000BFBD4680BC704755
:10302C0038000020340B002080B400AF024B1B682A
:10303C001846BD4680BC7047340B002080B584B068
:10304C0000AF7860FFF7F0FFB8607B68FB60FB684F
:10305C00B3F1FF3F05D00A4B1B781A46FB681344AB
:10306C00FB6000BFFFF7E0FF0246BB68D31AFA68AB
:10307C009A42F7D800BF00BF1037BD4680BD00BFD5
:10308C003800002080B584B000AF78607B68002BDE
:10309C0001D10123EDE07B6893F82030DBB2002BEB
:1030AC0002D17868FFF7D8FD7B681B681A687B68CB
:1030BC001B6842F001021A60FFF7B6FFF86012E0DD
:1030CC00FFF7B2FF0246FB68D31A0A2B0BD97B68B9
:1030DC005B6A43F400327B685A627B68052283F892
:1030EC0020200123C5E07B681B685B6803F00103AB
:1030FC00002BE5D07B681B681A687B681B6822F084
:10310C0002021A60FFF790FFF86012E0FFF78CFFE5
:10311C000246FB68D31A0A2B0BD97B685B6A43F413
:10312C0000327B685A627B68052283F820200123D9
:10313C009FE07B681B685B6803F00203002BE5D102
:10314C007B681B7E012B08D17B681B681A687B6827
:10315C001B6842F080021A6007E07B681B681A68E3
:10316C007B681B6822F080021A607B685B7E012BF7
:10317C0008D17B681B681A687B681B6842F04002A8
:10318C001A6007E07B681B681A687B681B6822F072
:10319C0040021A607B689B7E012B08D17B681B6800
:1031AC001A687B681B6842F020021A6007E07B6893
:1031BC001B681A687B681B6822F020021A607B6807
:1031CC00DB7E012B08D17B681B681A687B681B6847
:1031DC0022F010021A6007E07B681B681A687B6893
:1031EC001B6842F010021A607B681B7F012B08D110
:1031FC007B681B681A687B681B6842F008021A60BF
:10320C0007E07B681B681A687B681B6822F0080261
:10321C001A607B685B7F012B08D17B681B681A687E
:10322C007B681B6842F004021A6007E07B681B682D
:10323C001A687B681B6822F004021A607B689A6823
:10324C007B68DB681A437B681B691A437B685B6984
:10325C0042EA03017B685B685A1E7B681B680A4361
:10326C00DA617B6800225A627B68012283F8202095
:10327C00002318461037BD4680BD80B487B000AF20
:10328C00786039607B681B687B617B6893F82030C1
:10329C00FB74FB7C012B03D0FB7C022B40F0AA803F
:1032AC007B69D3F8003243F001027B69C3F800223A
:1032BC003B685B6903F01F03012202FA03F3FB6016
:1032CC007B69D3F81C22FB68DB431A407B69C3F88B
:1032DC001C223B68DB69002B23D17B69D3F80C22C1
:1032EC00FB68DB431A407B69C3F80C223B68DB6844
:1032FC0019043B685B689BB23A68526919437B6955
:10330C00483243F832103B689B6819043B681B68D1
:10331C009AB23B685B690A4379694833DB000B441A
:10332C005A603B68DB69012B22D17B69D3F80C22F4
:10333C00FB681A437B69C3F80C223B681B681904B1
:10334C003B685B689BB23A68526919437B694832A7
:10335C0043F832103B689B6819043B68DB689AB2EF
:10336C003B685B690A4379694833DB000B445A605C
:10337C003B689B69002B09D17B69D3F80422FB685D
:10338C00DB431A407B69C3F8042207E07B69D3F85E
:10339C000422FB681A437B69C3F804223B681B694F
:1033AC00002B09D17B69D3F81422FB68DB431A404C
:1033BC007B69C3F8142207E07B69D3F81422FB68FD
:1033CC001A437B69C3F814223B681B6A012B07D193
:1033DC007B69D3F81C22FB681A437B69C3F81C2257
:1033EC007B69D3F8003223F001027B69C3F8002219
:1033FC00002306E07B685B6A43F480227B685A6298
:10340C00012318461C37BD4680BC704780B584B07C
:10341C0000AF78607B6893F82030DBB2012B2ED1A3
:10342C007B68022283F820207B681B681A687B6803
:10343C001B6822F001021A60FFF7F6FDF86012E03B
:10344C00FFF7F2FD0246FB68D31A0A2B0BD97B68F7
:10345C005B6A43F400327B685A627B68052283F80E
:10346C002020012312E07B681B685B6803F00103DA
:10347C00002BE5D17B6800225A62002306E07B68B2
:10348C005B6A43F400227B685A62012318461037AA
:10349C00BD4680BD80B489B000AFF860B9607A6079
:1034AC003B60FB6893F82030FB77FB681B689B68DC
:1034BC00BB61FB7F012B03D0FB7F022B40F0AD8067
:1034CC00BB6903F08063002B0AD1BB6903F0006376
:1034DC00002B05D1BB6903F08053002B00F09580C5
:1034EC00BB691B0E03F003037B6101227B699A40CD
:1034FC003B681A60BB689B68002B0DD1BB681B68CE
:10350C005A05BB68DB68F96809681A437B6918338C
:10351C001B010B441A600FE0BB685B68DA00BB68E8
:10352C009B681A43BB68DB68F96809681A437B69B6
:10353C0018331B010B441A60FB681968BB681A69C5
:10354C007B6918331B010B4404331A60BB681B7D69
:10355C00012B11D1FB681A687B6918331B011344CA
:10356C0004331B68FA68116843F480727B69183362
:10357C001B010B4404331A607B6807331B781A0653
:10358C007B6806331B781B041A437B6805331B7856
:10359C001B0213437A68043212781046FA681168D9
:1035AC0043EA00027B691B010B4403F5C6731A60E6
:1035BC007B6803331B781A067B6802331B781B0469
:1035CC001A437B6801331B781B0213437A68127809
:1035DC001046FA68116843EA00027B691B010B4430
:1035EC0003F5C4731A60FB681A687B6918331B01F6
:1035FC0013441B68FA68116843F001027B691833A5
:10360C001B010B441A6000230EE0FB685B6A43F459
:10361C000012FB685A62012306E0FB685B6A43F404
:10362C008022FB685A62012318462437BD4680BCB1
:10363C00704780B487B000AFF860B9607A603B60C7
:10364C00FB6893F82030FB75FB7D012B03D0FB7DD1
:10365C00022B40F00381BB68002B0ED1FB681B686A
:10366C00DB6803F00303002B16D1FB685B6A43F4A1
:10367C000012FB685A620123F7E0FB681B681B69A8
:10368C0003F00303002B07D1FB685B6A43F40012C1
:10369C00FB685A620123E8E0FB681A68BB681B33BD
:1036AC001B0113441B6803F004027B689A607B685F
:1036BC009B68002B0CD1FB681A68BB681B331B0181
:1036CC0013441B685B0DC3F30A027B681A600BE0A2
:1036DC00FB681A68BB681B331B0113441B68DB08AF
:1036EC0023F060427B685A60FB681A68BB681B3326
:1036FC001B0113441B6803F002027B68DA60FB6851
:10370C001A68BB681B331B01134404331B6803F09A
:10371C000803002B03D07B6808221A610BE0FB68BE
:10372C001A68BB681B331B01134404331B6803F07A
:10373C000F027B681A61FB681A68BB681B331B019C
:10374C00134404331B681B0ADAB27B689A61FB686A
:10375C001A68BB681B331B01134404331B681B0C16
:10376C009AB27B685A61FB681A68BB681B011344E8
:10377C0003F5DC731B68DAB23B681A70FB681A68D5
:10378C00BB681B01134403F5DC731B681A0A3B6806
:10379C000133D2B21A70FB681A68BB681B01134460
:1037AC0003F5DC731B681A0C3B680233D2B21A7037
:1037BC00FB681A68BB681B01134403F5DC731B68B8
:1037CC001A0E3B680333D2B21A70FB681A68BB68D6
:1037DC001B01134403F5DE731A683B680433D2B241
:1037EC001A70FB681A68BB681B01134403F5DE737F
:1037FC001B681A0A3B680533D2B21A70FB681A6848
:10380C00BB681B01134403F5DE731B681A0C3B6881
:10381C000633D2B21A70FB681A68BB681B011344DA
:10382C0003F5DE731B681A0E3B680733D2B21A70AD
:10383C00BB68002B08D1FB681B68DA68FB681B6847
:10384C0042F02002DA6007E0FB681B681A69FB682B
:10385C001B6842F020021A61002306E0FB685B6AD9
:10386C0043F48022FB685A62012318461C37BD467C
:10387C0080BC704780B485B000AF78607B6803F083
:10388C000703FB600C4BDB68BB60BA684FF6FF03A9
:10389C001340BB60FB681A02BB68134343F0BF6361
:1038AC0043F40033BB60044ABB68D36000BF1437D9
:1038BC00BD4680BC704700BF00ED00E080B400AF97
:1038CC00044BDB681B0A03F007031846BD4680BC9B
:1038DC00704700BF00ED00E080B483B000AF03463A
:1038EC00FB7197F90730002B0BDBFB7903F01F0200
:1038FC00064997F907305B09012000FA02F241F8FA
:10390C00232000BF0C37BD4680BC704700E100E0AF
:10391C0080B483B000AF03463960FB7197F9073070
:10392C00002B0ADB3B68DAB20C4997F9073012011D
:10393C00D2B20B4483F800230AE03B68DAB20849A0
:10394C00FB7903F00F03043B1201D2B20B441A763D
:10395C0000BF0C37BD4680BC704700BF00E100E0E3
:10396C0000ED00E080B489B000AFF860B9607A6017
:10397C00FB6803F00703FB61FB69C3F10703042B2E
:10398C0028BF0423BB61FB690433062B02D9FB69F6
:10399C00033B00E000237B614FF0FF32BB6902FA6E
:1039AC0003F3DA43BB681A407B699A404FF0FF314E
:1039BC007B6901FA03F3D9437B680B401343184628
:1039CC002437BD4680BC704780B582B000AF7860AC
:1039DC007B68013BB3F1807F01D301230FE00A4ADE
:1039EC007B68013B53600F214FF0FF30FFF790FFD6
:1039FC00054B00229A60044B07221A6000231846DC
:103A0C000837BD4680BD00BF10E000E080B582B035
:103A1C0000AF78607868FFF72DFF00BF0837BD4610
:103A2C0080BD80B586B000AF0346B9607A60FB7389
:103A3C0000237B61FFF742FF78617A68B968786987
:103A4C00FFF790FF024697F90F3011461846FFF723
:103A5C005FFF00BF1837BD4680BD80B582B000AF98
:103A6C000346FB7197F907301846FFF735FF00BF87
:103A7C000837BD4680BD80B582B000AF78607868ED
:103A8C00FFF7A2FF034618460837BD4680BD80B538
:103A9C0082B000AF78607B68002B01D101230EE06F
:103AAC007B685B79DBB2002B05D17B6800221A7135
:103ABC007868FFF71DF97B6801225A7100231846BC
:103ACC000837BD4680BD80B487B000AFF860B960E0
:103ADC007A6000233B61FB6802225A71FB681B6809
:103AEC009A68FB681B6842F001029A6000237B61B4
:103AFC000AE07B699B00BA681A44FB681B68126871
:103B0C001A607B6901337B617A697B689A42F0D3D6
:103B1C00FB681B681B683B61FB6801225A713B699F
:103B2C0018461C37BD4680BC704780B485B000AFCA
:103B3C0078600023FB737B6893F82130DBB2022B97
:103B4C0008D07B6804229A637B68002283F82020CB
:103B5C00012320E07B681B681A687B681B6822F0D5
:103B6C000E021A607B681B681A687B681B6822F05F
:103B7C0001021A607B681A6C7B68DB6B012101FA0D
:103B8C0002F25A607B68012283F821207B680022B4
:103B9C0083F82020FB7B18461437BD4680BC704749
:103BAC0080B584B000AF78600023FB737B6893F81A
:103BBC002130DBB2022B05D07B6804229A630123EF
:103BCC00FB7351E07B681B681A687B681B6822F0EA
:103BDC000E021A607B681B681A687B681B6822F0EF
:103BEC0001021A607B681B68224A934229D07B68C9
:103BFC001B68214A934222D07B681B681F4A934260
:103C0C001AD07B681B681E4A934212D07B681B68D3
:103C1C001C4A93420AD07B681B681B4A934202D110
:103C2C004FF480130EE04FF080730BE04FF48033B1
:103C3C0008E04FF4805305E04FF4807302E010234A
:103C4C0000E00123114A53607B68012283F8212094
:103C5C007B68002283F820207B685B6B002B03D0F1
:103C6C007B685B6B78689847FB7B18461037BD46C2
:103C7C0080BD00BF080002401C0002403000024022
:103C8C0044000240580002406C0002400000024018
:103C9C00F0B587B000AFF860B960C7E90023012325
:103CAC00FB750023BB7500237B752F4B1B7E012BF3
:103CBC0001D1022354E02C4B01221A764CF25030E5
:103CCC0000F0A8F80346FB75FB7D002B44D1FB6884
:103CDC00012B02D101237B7507E0FB68022B02D17B
:103CEC0002237B7501E004237B750023BB752DE05B
:103CFC00BB7D5A00BB6802EB030CBB7D1901D7E9F5
:103D0C000023C1F12006A1F1200022FA01F403FAEC
:103D1C0006F6344323FA00F0044323FA01F5A3B268
:103D2C001946604600F05AF84CF2503000F072F828
:103D3C000346FB750D4B1B690C4A23F00103136101
:103D4C00FB7D002B07D1BB7D0133BB75BA7D7B7D21
:103D5C009A42CDD300E000BF034B00221A76FB7DC4
:103D6C0018461C37BD46F0BD380B00200020024021
:103D7C0080B483B000AF0023FB710D4B1B6903F0C3
:103D8C008003002B0DD00A4B0A4A5A60084B0A4A92
:103D9C005A60074B1B6903F08003002B01D00123F1
:103DAC00FB71FB7918460C37BD4680BC704700BFD1
:103DBC000020024023016745AB89EFCD80B400AFF2
:103DCC00054B1B69044A43F080031361002318461A
:103DDC00BD4680BC704700BF0020024080B483B059
:103DEC0000AF78600B467B80084B0022DA61084BF1
:103DFC001B69074A43F0010313617B687A881A80B8
:103E0C0000BF0C37BD4680BC704700BF380B00208C
:103E1C000020024080B584B000AF7860FFF704F951
:103E2C00F86010E07B68B3F1FF3F0CD07B68002B8F
:103E3C0007D0FFF7F9F80246FB68D31A7A689A4262
:103E4C0001D2032325E0154BDB6803F00103002BA3
:103E5C00E8D1124BDB6803F02003002B02D00F4B90
:103E6C002022DA600D4BDB6803F01003002B0BD122
:103E7C000A4BDB6903F00103002B05D1074BDB6810
:103E8C0003F00403002B03D000F00AF8012300E038
:103E9C00002318461037BD4680BD00BF00200240ED
:103EAC0080B483B000AF00237B60234BDB6803F04E
:103EBC001003002B09D0214BDB6943F002031F4A8E
:103ECC00D3617B6843F010037B601B4BDB6803F012
:103EDC000403002B09D0194BDB6943F00103174A8B
:103EEC00D3617B6843F004037B60134BDB6903F005
:103EFC000103002B0BD0114BDB6943F004030F4A79
:103F0C00D3610D4BDB690C4A23F00103D3617B6851
:103F1C0040F20112934206D1074BDB69064A23F0AB
:103F2C000103D36102E0044A7B68D36000BF0C3705
:103F3C00BD4680BC704700BF00200240380B0020FB
:103F4C0080B584B000AF786039600123FB73002327
:103F5C00BB602F4B1B7E012B01D1022353E02C4B5A
:103F6C0001221A767B681B68022B16D14CF250305A
:103F7C00FFF750FF0346002B41D1012000F04CF815
:103F8C004CF25030FFF746FF0346FB73214B1B6985
:103F9C00204A23F00403136131E04CF25030FFF758
:103FAC0039FF0346002B2AD13B684FF0FF321A60D1
:103FBC007B689B68BB6019E0B86800F049F84CF26C
:103FCC005030FFF727FF0346FB73124B1B69114A56
:103FDC0023F002031361FB7B002B03D03B68BA6810
:103FEC001A600CE0BB6803F58063BB607B68DB6820
:103FFC009A027B689B681344BA689A42DCD3044BE0
:10400C0000221A76FB7B18461037BD4680BD00BFD8
:10401C00380B00200020024080B483B000AF7860E1
:10402C00094B0022DA61094B1B69084A43F004036F
:10403C001361064B1B69054A43F04003136100BF33
:10404C000C37BD4680BC7047380B00200020024066
:10405C0080B483B000AF78600B4B0022DA610B4B5D
:10406C001B690A4A43F002031361084A7B685361D7
:10407C00064B1B69054A43F04003136100BF0C3724
:10408C00BD4680BC704700BF380B002000200240AA
:10409C0080B48BB000AF7860396000237B62002362
:1040AC003B6269E101227B6A02FA03F3FB613B6824
:1040BC001B68FA691340BB61BA69FB699A4240F00C
:1040CC0058813B685B689A4A93425ED0984A934207
:1040DC0075D8984A934258D0964A93426FD8964ACC
:1040EC00934252D0944A934269D8944A93424CD00A
:1040FC00924A934263D8924A934246D0904A934252
:10410C005DD8122B2AD8122B59D801A252F823F0C1
:10411C00974100087141000883410008C54100081F
:10412C00CB410008CB410008CB410008CB41000833
:10413C00CB410008CB410008CB410008CB41000823
:10414C00CB410008CB410008CB410008CB41000813
:10415C00CB410008794100088D410008794A93420F
:10416C0013D02CE03B68DB683B6229E03B68DB68E2
:10417C0004333B6224E03B68DB6808333B621FE09E
:10418C003B68DB680C333B621AE03B689B68002B96
:10419C0002D104233B6213E03B689B68012B05D1E1
:1041AC0008233B627B68FA691A6109E008233B62C9
:1041BC007B68FA695A6103E000233B6200E000BFB0
:1041CC00BB69FF2B01D87B6801E07B6804337B6102
:1041DC00BB69FF2B02D87B6A9B0002E07B6A083B21
:1041EC009B003B617B691A680F213B6901FA03F361
:1041FC00DB431A40396A3B6901FA03F31A437B69C2
:10420C001A603B685B6803F08053002B00F0B180B0
:10421C004D4B9B694C4A43F0010393614A4B9B699C
:10422C0003F00103BB60BB68484A7B6A9B080233FE
:10423C0052F82330FB607B6A03F003039B000F22D0
:10424C0002FA03F3DB43FA681340FB607B68404AD5
:10425C00934213D07B683F4A93420DD07B683E4A11
:10426C00934207D07B683D4A934201D1032306E079
:10427C00042304E0022302E0012300E000237A6A15
:10428C0002F0030292009340FA681343FB602F493B
:10429C007B6A9B080233FA6841F823203B685B6811
:1042AC0003F48013002B06D02D4B9A682C49BB6964
:1042BC0013438B6006E02A4B9A68BB69DB432849A1
:1042CC0013408B603B685B6803F40013002B06D033
:1042DC00234BDA682249BB691343CB6006E0204BC1
:1042EC00DA68BB69DB431E491340CB603B685B68F3
:1042FC0003F40033002B06D0194B5A681849BB69DC
:10430C0013434B6006E0164B5A68BB69DB431449F8
:10431C0013404B603B685B6803F48033002B21D067
:10432C000F4B1A680E49BB6913430B6021E000BFA9
:10433C00000032100000311000002210000021108B
:10434C00000012100000111000100240000001408B
:10435C0000080140000C0140001001400014014015
:10436C00000401400B4B1A68BB69DB43094913403D
:10437C000B607B6A01337B623B681A687B6A22FAAA
:10438C0003F3002B7FF48EAE00BF00BF2C37BD466D
:10439C0080BC70470004014080B485B000AF7860E9
:1043AC000B467B807B689A687B881340002B02D07D
:1043BC000123FB7301E00023FB73FB7B18461437CE
:1043CC00BD4680BC704780B483B000AF78600B46AC
:1043DC007B8013467B707B78002B03D07A887B68BC
:1043EC001A6103E07B881A047B681A6100BF0C37E2
:1043FC00BD4680BC7047000080B584B000AF7860CB
:10440C007B68002B01D101232BE17B6893F83D30B5
:10441C00DBB2002B06D17B68002283F83C20786845
:10442C00FEF784FC7B68242283F83D207B681B68A4
:10443C001A687B681B6822F001021A607B681B6893
:10444C001A687B681B6842F400421A607B681B6820
:10445C001A687B681B6822F400421A6001F060F94C
:10446C00F8607B685B68814A934207D8FB68804A96
:10447C00934294BF01230023DBB206E0FB687D4A24
:10448C00934294BF01230023DBB2002B01D0012304
:10449C00E7E0FB68784AA2FB03239B0CBB607B68BC
:1044AC001B685B6823F03F017B681B68BA680A4392
:1044BC005A607B681B681B6A23F03F017B685B6852
:1044CC006A4A934202D8BB68013309E0BB684FF4D7
:1044DC00967202FB03F3694AA2FB03239B09013387
:1044EC007A6812680B4313627B681B68DB6923F4E0
:1044FC004F4222F0FF027B685B685C498B4219D803
:10450C00FB68591E7B685B685B00B1FBF3F3591CBD
:10451C0040F6FC730B40002B0AD0FB68591E7B68DD
:10452C005B685B00B1FBF3F30133C3F30B0351E0A6
:10453C0004234FE07B689B68002B11D1FB68581E4D
:10454C007B6859680B465B000B44B0FBF3F30133FB
:10455C00C3F30B03002B0CBF01230023DBB212E0CF
:10456C00FB68581E7B6859680B469B000B449900EE
:10457C000B44B0FBF3F30133C3F30B03002B0CBF61
:10458C0001230023DBB2002B01D0012322E07B6846
:10459C009B68002B0ED1FB68581E7B6859680B4634
:1045AC005B000B44B0FBF3F30133C3F30B0343F495
:1045BC0000430FE0FB68581E7B6859680B469B0054
:1045CC000B4499000B44B0FBF3F30133C3F30B031F
:1045DC0043F44043796809681343CB617B681B68DB
:1045EC001B6823F0C0017B68DA697B681B6A1A437D
:1045FC007B681B680A431A607B681B689B6823F402
:10460C00034323F0FF037A6811697A68D268114377
:10461C007A6812680B4393607B681B68DB6823F035
:10462C00FF017B685A697B689B691A437B681B682E
:10463C000A43DA607B681B681A687B681B6842F067
:10464C0001021A607B6800221A647B68202283F8BE
:10465C003D207B6800221A637B68002283F83E2091
:10466C00002318461037BD4680BD00BFA086010050
:10467C007F841E00FF083D0083DE1B43D34D621078
:10468C0080B588B002AFF8607A601A460B467B8121
:10469C0013463B81FEF7C8FC7861FB6893F83D300C
:1046AC00DBB2202B40F0E0807B69009319230122C0
:1046BC007049F86800F092FA0346002B01D00223EF
:1046CC00D3E0FB6893F83C30012B01D10223CCE002
:1046DC00FB68012283F83C20FB681B681B6803F015
:1046EC000103012B07D0FB681B681A68FB681B6869
:1046FC0042F001021A60FB681B681A68FB681B68B1
:10470C0022F400621A60FB68212283F83D20FB68CA
:10471C00102283F83E20FB6800221A64FB687A683A
:10472C005A62FB683A895A85FB685B8D9AB2FB68C2
:10473C001A85FB68504ADA6279897B693A6AF868AB
:10474C0000F0CAF90346002B01D001238DE00023B1
:10475C003B61FB681B685B693B61FB681B689B6981
:10476C003B613B6966E07A69396AF86800F050FB96
:10477C000346002B0DD0FB681B6C042B07D1FB6888
:10478C001B681A68FB681B6842F400721A600123EC
:10479C006BE0FB685B6A1A78FB681B681A61FB6844
:1047AC005B6A5A1CFB685A62FB685B8D9BB2013BCF
:1047BC009AB2FB685A85FB681B8D013B9AB2FB6869
:1047CC001A85FB681B685B6903F00403042B1BD17F
:1047DC00FB681B8D002B17D0FB685B6A1A78FB6893
:1047EC001B681A61FB685B6A5A1CFB685A62FB689F
:1047FC005B8D9BB2013B9AB2FB685A85FB681B8DA3
:10480C00013B9AB2FB681A857A69396AF86800F03C
:10481C0047FB0346002B0DD0FB681B6C042B07D108
:10482C00FB681B681A68FB681B6842F400721A600C
:10483C0001231AE0FB681B8D002B94D1FB681B68CD
:10484C001A68FB681B6842F400721A60FB6820222D
:10485C0083F83D20FB68002283F83E20FB68002291
:10486C0083F83C20002300E0022318461837BD468D
:10487C0080BD00BF020010000000FFFF80B58AB0B1
:10488C0002AFF8607A603B600B467B81FEF7CCFB95
:10489C00F8610023BB61FB6893F83D30DBB2202B41
:1048AC0040F01181FB690093192301228849F868B3
:1048BC0000F094F90346002B01D0022304E1FB68BD
:1048CC0093F83C30012B01D10223FDE0FB6801225F
:1048DC0083F83C20FB681B681B6803F00103012B69
:1048EC0007D0FB681B681A68FB681B6842F0010262
:1048FC001A60FB681B681A68FB681B6822F400626C
:10490C001A60FB68242283F83D20FB6800221A649D
:10491C00FB68704ADA62FB681B681A68FB681B68E4
:10492C0042F480721A60FB6900933B6800224FF0DE
:10493C000111F86800F052F90346002B0DD0FB680A
:10494C001B681B6803F48073B3F5807F03D1FB688D
:10495C004FF400721A640323B6E07B89DBB21A466B
:10496C00FB681B6802F0FE021A61FEF75DFBF86142
:10497C00FB681B685B6903F00203022B0CBF01236D
:10498C000023DBB2FB75FB681B685B6903F4806377
:10499C00B3F5806F0CBF01230023DBB2BB7525E0A0
:1049AC00FEF742FB0246FB69D31A3A689A4202D3DD
:1049BC003B68002B03D1FB68A02283F83D20FB68E9
:1049CC001B685B6903F00203022B0CBF012300235D
:1049DC00DBB2FB75FB681B685B6903F48063B3F5A2
:1049EC00806F0CBF01230023DBB2BB75FB6893F80F
:1049FC003D30DBB2A02B05D0FB7D002B02D1BB7D63
:104A0C00002BCDD0FB68202283F83D20FB681B686F
:104A1C005B6903F00203022B29D1FB681B681A683F
:104A2C00FB681B6842F400721A6000233B61FB6850
:104A3C001B685B693B61FB681B689B693B613B695D
:104A4C00FB690093192301222149F86800F0C6F88C
:104A5C000346002B01D0012336E0FB68202283F8AB
:104A6C003D20FB68002283F83C2000232CE0FB68EF
:104A7C001B681A68FB681B6842F400721A60FB68BA
:104A8C001B686FF480625A61FB6900931923012241
:104A9C000F49F86800F0A2F80346002B01D001235F
:104AAC0012E0BB690133BB61BA697B689A42FFF4BF
:104ABC0032AFFB68202283F83D20FB68002283F88C
:104ACC003C20012300E0022318462037BD4680BD60
:104ADC00020010000000FFFF80B588B002AFF86044
:104AEC007A603B600B467B81FB68DB6A7B617B6990
:104AFC00082B06D07B69012B03D07B6913F5803F13
:104B0C0008D1FB681B681A68FB681B6842F480724A
:104B1C001A600BE0FB681B6B122B07D1FB681B6840
:104B2C001A68FB681B6842F480721A603B68009339
:104B3C007B6800224FF00111F86800F04FF8034633
:104B4C00002B0DD0FB681B681B6803F48073B3F556
:104B5C00807F03D1FB684FF400721A64032335E0A5
:104B6C00FB681B69B3F5804F08D17B89DBB21A4611
:104B7C00FB681B6802F0FE021A611BE07B89DB11EB
:104B8C00DBB203F00603DBB263F00F03DAB2FB68AF
:104B9C001B681A613B687A680E49F86800F098F84F
:104BAC000346002B01D0012310E07B89DAB2FB68AD
:104BBC001B681A613B687A680749F86800F088F846
:104BCC000346002B01D0012300E0002318461837C0
:104BDC00BD4680BD080001000200010080B584B014
:104BEC0000AFF860B9603B601346FB7148E03B686E
:104BFC00B3F1FF3F44D0FEF717FA0246BB69D31A54
:104C0C003A689A4202D33B68002B39D1BB681B0C23
:104C1C00DBB2012B0DD1FB681B685B69DA43BB6807
:104C2C0013409BB2002B0CBF01230023DBB21A46AE
:104C3C000CE0FB681B689B69DA43BB6813409BB2B2
:104C4C00002B0CBF01230023DBB21A46FB799A42DE
:104C5C0016D1FB6800221A63FB68202283F83D20E2
:104C6C00FB68002283F83E20FB681B6C43F020029B
:104C7C00FB681A64FB68002283F83C20012323E0C4
:104C8C00BB681B0CDBB2012B0DD1FB681B685B698D
:104C9C00DA43BB6813409BB2002B0CBF01230023EB
:104CAC00DBB21A460CE0FB681B689B69DA43BB68F5
:104CBC0013409BB2002B0CBF01230023DBB21A461E
:104CCC00FB799A4293D0002318461037BD4680BD1D
:104CDC0080B584B000AFF860B9607A603B6071E079
:104CEC00FB681B685B6903F48063B3F5806F23D1A9
:104CFC00FB681B681A68FB681B6842F400721A6038
:104D0C00FB681B686FF480625A61FB6800221A63AF
:104D1C00FB68202283F83D20FB68002283F83E20AC
:104D2C00FB681B6C43F00402FB681A64FB680022EE
:104D3C0083F83C20012367E07B68B3F1FF3F41D04F
:104D4C00FEF772F902463B68D31A7A689A4202D38C
:104D5C007B68002B36D1BB681B0CDBB2012B0CD152
:104D6C00FB681B685B69DA43BB6813409BB2002B82
:104D7C0014BF01230023DBB20BE0FB681B689B69AB
:104D8C00DA43BB6813409BB2002B14BF01230023F2
:104D9C00DBB2002B16D0FB6800221A63FB682022C2
:104DAC0083F83D20FB68002283F83E20FB681B6CD7
:104DBC0043F02002FB681A64FB68002283F83C2055
:104DCC00012321E0BB681B0CDBB2012B0CD1FB686F
:104DDC001B685B69DA43BB6813409BB2002B14BFA2
:104DEC0001230023DBB20BE0FB681B689B69DA43F1
:104DFC00BB6813409BB2002B14BF01230023DBB212
:104E0C00002B7FF46DAF002318461037BD4680BDD4
:104E1C0080B584B000AFF860B9607A6034E0F868AF
:104E2C0000F086F80346002B01D0012334E0BB6868
:104E3C00B3F1FF3F28D0FEF7F7F802467B68D31A90
:104E4C00BA689A4202D3BB68002B1DD1FB681B6861
:104E5C005B6903F08003802B16D0FB6800221A6379
:104E6C00FB68202283F83D20FB68002283F83E205B
:104E7C00FB681B6C43F02002FB681A64FB68002281
:104E8C0083F83C20012307E0FB681B685B6903F097
:104E9C008003802BC3D1002318461037BD4680BD3C
:104EAC0080B584B000AFF860B9607A6034E0F8681F
:104EBC0000F03EF80346002B01D0012334E0BB6820
:104ECC00B3F1FF3F28D0FEF7AFF802467B68D31A48
:104EDC00BA689A4202D3BB68002B1DD1FB681B68D1
:104EEC005B6903F00403042B16D0FB6800221A63E1
:104EFC00FB68202283F83D20FB68002283F83E20CB
:104F0C00FB681B6C43F02002FB681A64FB680022F0
:104F1C0083F83C20012307E0FB681B685B6903F006
:104F2C000403042BC3D1002318461037BD4680BDA3
:104F3C0080B483B000AF78607B681B685B6903F456
:104F4C008063B3F5806F1BD17B681B686FF4806244
:104F5C005A617B6800221A637B68202283F83D200B
:104F6C007B68002283F83E207B681B6C43F00402B4
:104F7C007B681A647B68002283F83C20012300E0E4
:104F8C00002318460C37BD4680BC704780B586B0F0
:104F9C0000AF78607B68002B01D1012372E27B6843
:104FAC001B6803F00103002B00F08780924B5B68B9
:104FBC0003F00C03042B0CD08F4B5B6803F00C0339
:104FCC00082B12D18C4B5B6803F48033B3F5803F14
:104FDC000BD1894B1B6803F40033002B6CD07B681E
:104FEC005B68002B68D101234CE27B685B68B3F5EE
:104FFC00803F06D1804B1B687F4A43F4803313609B
:10500C002EE07B685B68002B0CD17B4B1B687A4ACB
:10501C0023F480331360784B1B68774A23F4802386
:10502C0013601DE07B685B68B3F5A02F0CD1724B4D
:10503C001B68714A43F4802313606F4B1B686E4AE4
:10504C0043F4803313600BE06B4B1B686A4A23F408
:10505C0080331360684B1B68674A23F4802313600A
:10506C007B685B68002B13D0FDF7DEFF386108E02E
:10507C00FDF7DAFF02463B69D31A642B01D90323EF
:10508C0000E25D4B1B6803F40033002BF0D014E0FE
:10509C00FDF7CAFF386108E0FDF7C6FF02463B6921
:1050AC00D31A642B01D90323ECE1534B1B6803F493
:1050BC000033002BF0D100E000BF7B681B6803F0CD
:1050CC000203002B63D04C4B5B6803F00C03002BEA
:1050DC000BD0494B5B6803F00C03082B1CD1464BDF
:1050EC005B6803F48033002B16D1434B1B6803F031
:1050FC000203002B05D07B681B69012B01D0012317
:10510C00C0E13D4B1B6823F0F8027B685B69DB0058
:10511C00394913430B603AE07B681B69002B20D0A4
:10512C00364B01221A60FDF77FFF386108E0FDF76E
:10513C007BFF02463B69D31A022B01D90323A1E161
:10514C002D4B1B6803F00203002BF0D02A4B1B687D
:10515C0023F0F8027B685B69DB00274913430B6083
:10516C0015E0264B00221A60FDF75EFF386108E05F
:10517C00FDF75AFF02463B69D31A022B01D90323D0
:10518C0080E11D4B1B6803F00203002BF0D17B6800
:10519C001B6803F00803002B3AD07B689B69002B3B
:1051AC0019D0174B01221A60FDF73EFF386108E059
:1051BC00FDF73AFF02463B69D31A022B01D90323B0
:1051CC0060E10D4B5B6A03F00203002BF0D0012071
:1051DC0000F0CEFA1CE00A4B00221A60FDF724FF07
:1051EC0038610FE0FDF720FF02463B69D31A022B12
:1051FC0008D9032346E100BF0010024000004242E0
:10520C0080044242924B5B6A03F00203002BE9D10B
:10521C007B681B6803F00403002B00F0A6800023BE
:10522C00FB758B4BDB6903F08053002B0DD1884B46
:10523C00DB69874A43F08053D361854BDB6903F00C
:10524C008053BB60BB680123FB75824B1B6803F466
:10525C008073002B18D17F4B1B687E4A43F48073FC
:10526C001360FDF7E1FE386108E0FDF7DDFE024654
:10527C003B69D31A642B01D9032303E1754B1B68DB
:10528C0003F48073002BF0D07B68DB68012B06D114
:10529C006F4B1B6A6E4A43F0010313622DE07B686F
:1052AC00DB68002B0CD16A4B1B6A694A23F00103A3
:1052BC001362674B1B6A664A23F0040313621CE0FB
:1052CC007B68DB68052B0CD1614B1B6A604A43F091
:1052DC00040313625E4B1B6A5D4A43F001031362C5
:1052EC000BE05B4B1B6A5A4A23F001031362584BC9
:1052FC001B6A574A23F0040313627B68DB68002B9C
:10530C0015D0FDF791FE38610AE0FDF78DFE0246DF
:10531C003B69D31A41F28832934201D90323B1E09D
:10532C004B4B1B6A03F00203002BEED014E0FDF78D
:10533C007BFE38610AE0FDF777FE02463B69D31A23
:10534C0041F28832934201D903239BE0404B1B6A04
:10535C0003F00203002BEED1FB7D012B05D13C4B5E
:10536C00DB693B4A23F08053D3617B68DB69002BFC
:10537C0000F08780364B5B6803F00C03082B61D080
:10538C007B68DB69022B46D1334B00221A60FDF798
:10539C004BFE386108E0FDF747FE02463B69D31A25
:1053AC00022B01D903236DE0294B1B6803F000731A
:1053BC00002BF0D17B681B6AB3F5803F08D1244BDE
:1053CC005B6823F400327B689B68214913434B6074
:1053DC001F4B5B6823F474127B68196A7B685B6AE9
:1053EC000B431B4913434B601B4B01221A60FDF707
:1053FC001BFE386108E0FDF717FE02463B69D31A25
:10540C00022B01D903233DE0114B1B6803F0007301
:10541C00002BF0D035E0104B00221A60FDF704FE93
:10542C00386108E0FDF700FE02463B69D31A022BF7
:10543C0001D9032326E0064B1B6803F00073002BF5
:10544C00F0D11EE07B68DB69012B07D1012319E049
:10545C000010024000700040600042420B4B5B6841
:10546C00FB60FB6803F480327B681B6A9A4206D1AE
:10547C00FB6803F470127B685B6A9A4201D00123CB
:10548C0000E0002318461837BD4680BD00100240CE
:10549C0080B584B000AF786039607B68002B01D197
:1054AC000123D0E06A4B1B6803F007033A689A4269
:1054BC0010D9674B1B6823F0070265493B681343FF
:1054CC000B60634B1B6803F007033A689A4201D0E8
:1054DC000123B8E07B681B6803F00203002B20D08B
:1054EC007B681B6803F00403002B05D0594B5B68E9
:1054FC00584A43F4E06353607B681B6803F008036D
:10550C00002B05D0534B5B68524A43F460535360F5
:10551C00504B5B6823F0F0027B689B684D4913434A
:10552C004B607B681B6803F00103002B40D07B6849
:10553C005B68012B07D1474B1B6803F40033002B2E
:10554C0015D101237FE07B685B68022B07D1414BAF
:10555C001B6803F00073002B09D1012373E03D4B52
:10556C001B6803F00203002B01D101236BE0394BC4
:10557C005B6823F003027B685B68364913434B601E
:10558C00FDF752FDF8600AE0FDF74EFD0246FB68A0
:10559C00D31A41F28832934201D9032353E02D4BA5
:1055AC005B6803F00C027B685B689B009A42EBD152
:1055BC00274B1B6803F007033A689A4210D2244B1E
:1055CC001B6823F0070222493B6813430B60204BF6
:1055DC001B6803F007033A689A4201D0012332E0BA
:1055EC007B681B6803F00403002B08D0194B5B6825
:1055FC0023F4E0627B68DB68164913434B607B68DD
:10560C001B6803F00803002B09D0124B5B6823F4D2
:10561C0060527B681B69DB000E4913434B6000F042
:10562C0021F802460B4B5B681B0903F00F030A4978
:10563C00CB5C22FA03F3094A1360094B1B6818462A
:10564C00FDF7B0FC002318461037BD4680BD00BFE7
:10565C0000200240001002401C8600083000002090
:10566C003400002080B487B000AF0023FB6000231F
:10567C00BB6000237B6100237B6000233B611E4BDE
:10568C005B68FB60FB6803F00C03042B02D0082B57
:10569C0003D027E0194B3B6127E0FB689B0C03F020
:1056AC000F03174AD35C7B60FB6803F48033002B39
:1056BC0010D0114B5B685B0C03F00103114AD35CF7
:1056CC00BB607B680D4A03FB02F2BB68B2FBF3F3D1
:1056DC007B6104E07B680C4A02FB03F37B617B6912
:1056EC003B6102E0054B3B6100BF3B6918461C3730
:1056FC00BD4680BC704700BF0010024000127A000B
:10570C00348600084486000800093D0080B400AFD0
:10571C00024B1B681846BD4680BC70473000002009
:10572C0080B500AFFFF7F2FF0246054B5B681B0A22
:10573C0003F007030349CB5C22FA03F3184680BD40
:10574C00001002402C86000880B500AFFFF7DEFF8A
:10575C000246054B5B68DB0A03F007030349CB5C8D
:10576C0022FA03F3184680BD001002402C86000874
:10577C0080B485B000AF78600A4B1B680A4AA2FB64
:10578C0003235B0A7A6802FB03F3FB6000BFFB6830
:10579C005A1EFA60002BF9D100BF00BF1437BD466A
:1057AC0080BC704730000020D34D621080B582B0B1
:1057BC0000AF78607B68002B01D1012342E07B684D
:1057CC0093F84130DBB2002B06D17B68002283F8C2
:1057DC0040207868FDF7E8FA7B68242283F84120A2
:1057EC007B681B68DA687B681B6822F40052DA60FD
:1057FC00786800F057FE7B681B681A697B681B6829
:10580C0022F490421A617B681B685A697B681B689A
:10581C0022F02A025A617B681B68DA687B681B6875
:10582C0042F40052DA607B6800225A647B682022C2
:10583C0083F841207B68202283F842207B68002279
:10584C005A63002318460837BD4680BD80B58AB020
:10585C0002AFF860B9603B601346FB8000237B61AC
:10586C00FB6893F84130DBB2202B6DD1BB68002B69
:10587C0002D0FB88002B01D1012366E0FB680022DB
:10588C005A64FB68212283F84120FDF7CDFB786137
:10589C00FB68FA889A84FB68FA88DA84FB689B6850
:1058AC00B3F5805F08D1FB681B69002B04D1002382
:1058BC00FB61BB68BB6103E0BB68FB610023BB61A0
:1058CC002AE03B6800937B6900228021F86800F095
:1058DC00A6FB0346002B01D0032336E0FB69002B0B
:1058EC000BD1BB691B881A46FB681B68C2F3080204
:1058FC005A60BB690233BB6107E0FB691A78FB682D
:10590C001B685A60FB690133FB61FB68DB8C9BB243
:10591C00013B9AB2FB68DA84FB68DB8C9BB2002BF0
:10592C00CFD13B6800937B6900224021F86800F0DE
:10593C0076FB0346002B01D0032306E0FB682022F4
:10594C0083F84120002300E0022318462037BD468F
:10595C0080BD80B58AB002AFF860B9603B60134679
:10596C00FB8000237B61FB6893F84230DBB2202B79
:10597C007CD1BB68002B02D0FB88002B01D101230A
:10598C0075E0FB6800225A64FB68222283F84220EF
:10599C00FB6800221A63FDF747FB7861FB68FA8805
:1059AC009A85FB68FA88DA85FB689B68B3F5805F9B
:1059BC0008D1FB681B69002B04D10023FB61BB6879
:1059CC00BB6103E0BB68FB610023BB6143E03B6848
:1059DC0000937B6900222021F86800F020FB03462D
:1059EC00002B01D0032342E0FB69002B0CD1FB6898
:1059FC001B685B689BB2C3F308039AB2BB691A803D
:105A0C00BB690233BB611FE0FB689B68B3F5805F29
:105A1C0007D0FB689B68002B0AD1FB681B69002B25
:105A2C0006D1FB681B685B68DAB2FB691A7008E088
:105A3C00FB681B685B68DBB203F07F03DAB2FB69BF
:105A4C001A70FB690133FB61FB68DB8D9BB2013B78
:105A5C009AB2FB68DA85FB68DB8D9BB2002BB6D162
:105A6C00FB68202283F84220002300E00223184622
:105A7C002037BD4680BD80B584B000AFF860B960FA
:105A8C001346FB80FB6893F84230DBB2202B12D11B
:105A9C00BB68002B02D0FB88002B01D101230BE04B
:105AAC00FB6800221A63FB881A46B968F86800F094
:105ABC0024FB034600E0022318461037BD4680BD88
:105ACC0080B5BAB000AF78607B681B681B68C7F8FC
