:020000040800F2
:100000000050002071140008091400080F140008A3
:10001000151400081B14000821140008000000003B
:10002000000000000000000000000000271400088D
:1000300033140008000000003F1400084B140008AF
:10004000B9140008B9140008B9140008B91400085C
:10005000B9140008B9140008B914000857140008AE
:10006000B9140008B9140008B9140008B91400083C
:10007000B9140008B9140008B9140008B91400082C
:10008000B9140008B9140008B9140008B91400081C
:10009000B9140008B9140008B9140008B91400080C
:1000A000B9140008B9140008B9140008B9140008FC
:1000B000B9140008B9140008B9140008B9140008EC
:1000C000B9140008B9140008B9140008B9140008DC
:1000D000B9140008B9140008B9140008B9140008CC
:1000E000B9140008B9140008B91400080000000091
:1000F0000000000000000000000000000000000000
:0C01000000000000000000005FF808F1A3
:10010C0010B5054C237833B9044B13B10448AFF345
:10011C0000800123237010BD0C00002000000000A3
:10012C001C2B000808B5034B1BB103490348AFF364
:10013C00008008BD00000000100000201C2B0008EF
:10014C0080F0004002E000BF81F0004142001FBF80
:10015C005FEA410392EA030F7FEA226C7FEA236C89
:10016C006AD04FEA1262D2EB1363C1BFD21841407E
:10017C0048404140B8BF5B42192B88BF704710F014
:10018C00004F40F4000020F07F4018BF404211F0B7
:10019C00004F41F4000121F07F4118BF494292EA1F
:1001AC00030F3FD0A2F1010241FA03FC10EB0C004B
:1001BC00C3F1200301FA03F100F0004302D54942D8
:1001CC0060EB4000B0F5000F13D3B0F1807F06D385
:1001DC0040084FEA310102F10102FE2A51D2B1F17D
:1001EC00004F40EBC25008BF20F0010040EA030072
:1001FC007047490040EB0000013A28BFB0F5000FF2
:10020C00EDD2B0FA80FCACF1080CB2EB0C0200FAA7
:10021C000CF0AABF00EBC25052421843BCBFD040F6
:10022C001843704792F0000F81F4000106BF80F470
:10023C0000000132013BB5E74FEA41037FEA226C33
:10024C0018BF7FEA236C21D092EA030F04D092F0FE
:10025C00000F08BF0846704790EA010F1CBF002032
:10026C00704712F07F4F04D1400028BF40F000408F
:10027C00704712F100723CBF00F50000704700F0AF
:10028C00004343F0FE4040F4000070477FEA2262D6
:10029C0016BF08467FEA23630146420206BF5FEAA7
:1002AC00412390EA010F40F4800070474FF00003A7
:1002BC0004E000BF10F0004348BF40425FEA000C6E
:1002CC0008BF704743F0964301464FF000001CE016
:1002DC0050EA010208BF70474FF000030AE000BF6C
:1002EC0050EA010208BF704711F0004302D54042AA
:1002FC0061EB41015FEA010C02BF8446014600201C
:10030C0043F0B64308BFA3F18053A3F50003BCFA36
:10031C008CF2083AA3EBC25310DB01FA02FC6344E3
:10032C0000FA02FCC2F12002BCF1004F20FA02F2EA
:10033C0043EB020008BF20F00100704702F12002DD
:10034C0001FA02FCC2F1200250EA4C0021FA02F23E
:10035C0043EB020008BF20EADC7070474FF0FF0C43
:10036C001CEAD0521EBF1CEAD15392EA0C0F93EA3E
:10037C000C0F6FD01A4480EA010C400218BF5FEAE0
:10038C0041211ED04FF0006343EA501043EA511153
:10039C00A0FB01310CF00040B1F5000F3EBF49004D
:1003AC0041EAD3715B0040EA010062F17F02FD2A51
:1003BC001DD8B3F1004F40EBC25008BF20F0010034
:1003CC00704790F0000F0CF0004C08BF49024CEA4B
:1003DC00502040EA51207F3AC2BFD2F1FF0340EADD
:1003EC00C250704740F400004FF00003013A5DDC4E
:1003FC0012F1190FDCBF00F000407047C2F100028F
:10040C00410021FA02F1C2F1200200FA02FC5FEA7B
:10041C00310040F1000053EA4C0308BF20EADC70C5
:10042C00704792F0000F00F0004C02BF400010F437
:10043C00000F013AF9D040EA0C0093F0000F01F0E4
:10044C00004C02BF490011F4000F013BF9D041EA06
:10045C000C018FE70CEAD15392EA0C0F18BF93EA08
:10046C000C0F0AD030F0004C18BF31F0004CD8D132
:10047C0080EA010000F00040704790F0000F17BFB9
:10048C0090F0004F084691F0000F91F0004F14D0FF
:10049C0092EA0C0F01D142020FD193EA0C0F03D157
:1004AC004B0218BF084608D180EA010000F000405A
:1004BC0040F0FE4040F40000704740F0FE4040F435
:1004CC00400070474FF0FF0C1CEAD0521EBF1CEAD4
:1004DC00D15392EA0C0F93EA0C0F69D0A2EB0302F2
:1004EC0080EA010C49024FEA402037D04FF080538C
:1004FC0043EA111143EA10130CF000408B4238BF51
:10050C005B0042F17D024FF4000C8B4224BF5B1A5E
:10051C0040EA0C00B3EB510F24BFA3EB510340EAAC
:10052C005C00B3EB910F24BFA3EB910340EA9C005A
:10053C00B3EBD10F24BFA3EBD10340EADC001B01CA
:10054C0018BF5FEA1C1CE0D1FD2A3FF650AF8B426E
:10055C0040EBC25008BF20F0010070470CF0004C7B
:10056C004CEA50207F32C2BFD2F1FF0340EAC250A6
:10057C00704740F400004FF00003013A37E792F067
:10058C00000F00F0004C02BF400010F4000F013AC5
:10059C00F9D040EA0C0093F0000F01F0004C02BFC0
:1005AC00490011F4000F013BF9D041EA0C0195E729
:1005BC000CEAD15392EA0C0F08D142027FF47DAFC2
:1005CC0093EA0C0F7FF470AF084676E793EA0C0FB2
:1005DC0004D14B023FF44CAF08466EE730F0004CB0
:1005EC0018BF31F0004CCAD130F000427FF45CAF40
:1005FC0031F000437FF43CAF5FE700BF42000ED206
:10060C00B2F1FE4F0BD34FF09E03B3EB126209D441
:10061C004FEA002343F0004323FA02F070474FF0F7
:10062C000000704712F1610F01D1420202D14FF06C
:10063C00FF3070474FF00000704700BF80B584B0AA
:10064C0000AF03460A46FB711346BB71FB79012BC5
:10065C0002D15023FB7301E06023FB730C4B00228F
:10066C009A600B4B0022DA60FB7B094A1360084B43
:10067C0001221A61074ABB791370074B054A0449DA
:10068C00064801F07FF9034618461037BD4680BD79
:10069C00C8000020FC0000200C010020A00000205D
:1006AC0080B584B000AF03463960FB711346BB7153
:1006BC003B68002B01D101232BE0FB79012B02D1EC
:1006CC005023FB7301E06023FB73144B00229A60F0
:1006DC00124B0022DA60FB7B104A1360BB790F4A85
:1006EC0013610023BB7309E0BB7B3A681A44BB7BE4
:1006FC0011780B4AD154BB7B0133BB73BA7BBB79EA
:10070C009A42F1D3074B064A0449074801F03AF9DB
:10071C00034618461037BD4680BD00BFC8000020F8
:10072C00FC0000200C010020A000002080B582B04D
:10073C0000AF786000BF0B4B1B68DB6803F0030352
:10074C00002BF8D0084B094A0021064801F0E9F9C2
:10075C00054B1A787B681A70002318460837BD467B
:10076C0080BD00BFA000002004010020E00000209C
:10077C0080B400AF034B044A1A6000BFBD4680BC76
:10078C00704700BF3400002000A8000880B582B07C
:10079C0000AF204800F0EAF90346BB71BB79002B8F
:1007AC0033D11C4B1B78032B2FD11B4800F098F92D
:1007BC000346BB71BB79002B27D1174B1B78002B41
:1007CC0023D10023FB710FE0144B1B681A46FB79F5
:1007DC001278D1B2124AD154104B1B6801330F4A14
:1007EC001360FB790133FB71FB79072BECD9BB79D7
:1007FC00002B0AD10A4800F009F90346BB7101200D
:10080C0000F04CF9042000F08FF900BF0837BD460A
:10081C0080BD00BF300000203100002034000020DB
:10082C002800002080B485B000AF0346FB71002384
:10083C00FB730B4B1B78002B09D1094B01221A704F
:10084C00084AFB791370064B00221A7001E0012351
:10085C00FB73FB7B18461437BD4680BC704700BF4A
:10086C004D0000204000002080B485B000AF7860BF
:10087C000023FB730C4B1B78002B0DD17B68002BDA
:10088C000AD0094B01221A70084B1A787B681A702F
:10089C00054B00221A7001E00123FB73FB7B184609
:1008AC001437BD4680BC70474D000020400000202E
:1008BC0080B485B000AF78600023FB730A4B1B78C3
:1008CC00002B09D1084B01221A70084A7B6813606F
:1008DC00054B00221A7001E00123FB73FB7B1846C9
:1008EC001437BD4680BC70474C0000203C000020F3
:1008FC0080B485B000AF78600023FB730C4B1B7881
:10090C00002B0DD17B68002B0AD0094B01221A70E9
:10091C00084B1A687B681A60054B00221A7001E0BC
:10092C000123FB73FB7B18461437BD4680BC704714
:10093C004C0000203C00002080B485B000AF7860F3
:10094C000023FB730C4B1B78002B0DD17B68002B09
:10095C000AD0094B01221A70084B1A687B681A607E
:10096C00054B00221A7001E00123FB73FB7B184638
:10097C001437BD4680BC70474B0000203800002067
:10098C0080B485B000AF0346FB710023FB730B4BA7
:10099C001B78002B09D1094B01221A70084AFB79EC
:1009AC001370064B00221A7001E00123FB73FB7BD2
:1009BC0018461437BD4680BC704700BF4E0000205F
:1009CC004100002080B485B000AF78600023FB7339
:1009DC000C4B1B78002B0DD17B68002B0AD0094BDC
:1009EC0001221A70084B1A787B681A70054B00228A
:1009FC001A7001E00123FB73FB7B18461437BD46CC
:100A0C0080BC70474E0000204100002080B485B0AF
:100A1C0000AF78600023FB730C4B1B78002B0CD1C0
:100A2C007B68002B09D0094B01221A70084A7B689D
:100A3C001360064B00221A7001E00123FB73FB7B51
:100A4C0018461437BD4680BC704700BF4F000020CD
:100A5C004400002080B485B000AF78600023FB73A5
:100A6C000C4B1B78002B0DD17B68002B0AD0094B4B
:100A7C0001221A70084B1A687B681A60054B002219
:100A8C001A7001E00123FB73FB7B18461437BD463B
:100A9C0080BC70474F0000204400002080B485B01B
:100AAC0000AF0346FB710023FB730B4B1B78002B31
:100ABC0009D1094B01221A70084AFB791370064BB5
:100ACC0000221A7001E00123FB73FB7B18461437DC
:100ADC00BD4680BC704700BF50000020480000207D
:100AEC0080B485B000AF78600023FB730C4B1B788F
:100AFC00002B0DD17B68002B0AD0094B01221A70F8
:100B0C00084B1A787B681A70054B00221A7001E0AA
:100B1C000123FB73FB7B18461437BD4680BC704722
:100B2C00500000204800002080B485B000AF034680
:100B3C00FB710023FB730B4B1B78002B09D1094B6A
:100B4C0001221A70084AFB791370064B00221A70A6
:100B5C0001E00123FB73FB7B18461437BD4680BCB8
:100B6C00704700BF510000204900002080B485B0C0
:100B7C0000AF78600023FB730C4B1B78002B0DD15E
:100B8C007B68002B0AD0094B01221A70084B1A788B
:100B9C007B681A70054B00221A7001E00123FB736D
:100BAC00FB7B18461437BD4680BC704751000020B3
:100BBC004900002080B485B000AF0346FB710023D0
:100BCC00FB730B4B1B78002B09D1094B01221A70BC
:100BDC00084AFB791370064B00221A7001E00123BE
:100BEC00FB73FB7B18461437BD4680BC704700BFB7
:100BFC00520000204A00002080B400AF144B0022A9
:100C0C001A60144B00221A70134B00221A80134BDB
:100C1C0000221A80124B00221A70124B4FF0000265
:100C2C001A60114B00221A70104B00221A70104BD4
:100C3C00104A1A600E4B104A5A600D4B0F4A9A60BC
:100C4C000B4B0F4ADA6000231846BD4680BC704738
:100C5C0054000020580000205A0000205C000020A6
:100C6C005E00002060000020640000206500002071
:100C7C0068000020C50C0008110D0008D10D0008FB
:100C8C00550F000880B582B000AF0023FB71084BF4
:100C9C001B781A46074B53F822303B603B68002008
:100CAC0098470346FB71FB7918460837BD4680BD53
:100CBC00650000206800002080B584B000AF78602B
:100CCC000023FB730023BB7307F10E031846FFF7D9
:100CDC0079FE0346FB73FB7B002B09D1BB7B012BFD
:100CEC0003D1074B01221A7004E00023FB7301E0CF
:100CFC000123FB73FB7B18461037BD4680BD00BF3C
:100D0C006500002080B58AB000AF7860002387F8BA
:100D1C0027300023FB6100233B620023FB7600237A
:100D2C007B6100233B610023FB7307F1100207F189
:100D3C00140107F11B03184600F044F907F11402E3
:100D4C0007F11B031146184600F092F97B693969CB
:100D5C0007F11C02184600F051F9FB7E10211846D1
:100D6C00FFF76CFC07F10F031846FFF7DFFCFB7B6A
:100D7C00502B13D1FB7E34211846FFF75FFC07F193
:100D8C000F031846FFF7D2FCFB7B732B06D1FB7EBF
:100D9C0007F11C0108221846FFF782FC07F10F032C
:100DAC001846FFF7C3FCFB7B742B02D1044B0222C9
:100DBC001A7097F8273018462837BD4680BD00BFFB
:100DCC006500002090B587B000AF78600023FB75FC
:100DDC0000233B610023FB73524B1B68DB089AB268
:100DEC00514B1A804F4B1B68DBB203F00703DAB28E
:100DFC004E4B1A7007F117031846FFF771FEFB7D77
:100E0C00012B40F0898007F110031846FFF722FEF2
:100E1C00474B1B7836211846FFF710FC07F10F03E0
:100E2C001846FFF783FCFB7B752B75D1414B1A8859
:100E3C003D4B1B889A4250D23D4B1B783969082296
:100E4C001846FFF72DFC07F10F031846FFF76EFC51
:100E5C00FB7B762B60D1374B1B8801339AB2354B19
:100E6C001A80344B1A88304B1B889A4207D12F4B6F
:100E7C001B78002B03D1304B03221A7005E00020A5
:100E8C00FFF70CFE0320FFF74FFE2A4B1B8818467A
:100E9C00FFF70CFA0446244B1B881846FFF706FA9A
:100EAC00034619462046FFF70DFB03461A46234B13
:100EBC001A60224B1B6822491846FFF74FFA03466B
:100ECC001846FFF79BFB0346DAB21E4B1A701D4BFC
:100EDC001B781846FFF76EFE1EE0144B1B78002B98
:100EEC001AD0134B1B783969104A12781846FFF741
:100EFC00D7FB07F10F031846FFF718FCFB7B762B8B
:100F0C000AD10D4B03221A700E4B64221A700D4B32
:100F1C001B781846FFF74EFE002318461C37BD46BB
:100F2C0090BD00BF540000205C0000205E0000203B
:100F3C00580000205A0000206500002060000020AE
:100F4C000000C8426400002080B584B000AF786017
:100F5C000023FB730020FFF7A1FD144B1B783721F6
:100F6C001846FFF76BFB07F10F031846FFF7DEFB84
:100F7C00FB7B772B05D10E4B00221A700520FFF757
:100F8C00D3FD0C4B00221A60084B00221A700A4B3E
:100F9C0000221A80094B00221A80094B00221A7079
:100FAC00002318461037BD4680BD00BF58000020F6
:100FBC0065000020540000205A0000205C00002036
:100FCC005E00002080B586B000AFF860B9607A6032
:100FDC000023FB75F868FFF747FC0346FB75B86800
:100FEC00FFF786FC0346FB757868FFF7A5FC034604
:100FFC00FB75FB7D18461837BD4680BD80B485B0A7
:10100C0000AFF860B9607A60FB68DAB27B681A707E
:10101C00FB681A0A7B680133D2B21A70FB681A0C8F
:10102C007B680233D2B21A70FB681A0E7B680333EA
:10103C00D2B21A707B680433BA68D2B21A70BB6829
:10104C001A0A7B680533D2B21A70BB681A0C7B681B
:10105C000633D2B21A70BB681A0E7B680733D2B251
:10106C001A70002318461437BD4680BC7047000028
:10107C0080B483B000AF786039607B681A78064B17
:10108C001A703B681B68054A1360002318460C371E
:10109C00BD4680BC704700BF5800002054000020A3
:1010AC0080B582B000AF00F003FA00F02DF800F02C
:1010BC00CDF800F071F8134800F020FCFFF79CFD10
:1010CC00FFF756FB0320FFF72FFD0120FFF758FC1D
:1010DC000120FFF7A7FB42F22050FFF7E9FBFB1DB5
:1010EC001846FFF743FDFB79022BF8D0FB79032B55
:1010FC0002D1FFF74BFBF2E7FB79042BEFD1FFF7A3
:10110C00C1FDECE7A000002080B590B000AF07F166
:10111C00180328220021184601F0CEFC3B1D0022AA
:10112C001A605A609A60DA601A610923BB614FF445
:10113C008033FB6100233B620123BB6201233B63D1
:10114C0002237B634FF48033BB634FF4E013FB63E8
:10115C0007F11803184601F0D1F80346002B01D013
:10116C0000F0D8F80F237B600223BB600023FB60E8
:10117C004FF480633B6100237B613B1D02211846C9
:10118C0001F03EFB0346002B01D000F0C3F800BF7A
:10119C004037BD4680BD000080B500AF284B294AC2
:1011AC001A60274B04225A60254B00229A60244B6C
:1011BC000022DA60224B4FF460221A61204B4FF46C
:1011CC0080125A611E4B00221A761D4B00225A7651
:1011DC001B4B00229A761A4B0022DA76184B00220F
:1011EC001A77174B00225A77154800F0C3F90346BB
:1011FC00002B01D000F08EF8134B01221A62124B17
:10120C0000225A61104B00221A610F4B00221A6007
:10121C000D4B00225A600C4B00229A600A4B0022A4
:10122C00DA60094B00229A61074B0122DA61064B06
:10123C000A225A620449024800F097FA00BF80BDA6
:10124C00A0000020006400407800002080B588B029
:10125C0000AF07F1100300221A605A609A60DA603E
:10126C00284B9B69274A43F010039361254B9B69DC
:10127C0003F01003FB60FB68224B9B69214A43F08F
:10128C00200393611F4B9B6903F02003BB60BB6879
:10129C001C4B9B691B4A43F004039361194B9B69DC
:1012AC0003F004037B607B6800224FF4C0411648B6
:1012BC0000F0EAFF4FF4C0433B6101237B61002344
:1012CC00BB610223FB6107F1100319460E4800F0C5
:1012DC0057FE02233B610D4B7B610223BB6107F17F
:1012EC00100319460A4800F04BFE0022002107208B
:1012FC0000F00FFE072000F028FE00BF2037BD468F
:10130C0080BD00BF00100240001001400000111011
:10131C000008014080B400AF72B600BFFEE70000C9
:10132C0080B483B000AF0E4B9B690D4A43F00103B0
:10133C0093610B4B9B6903F001037B607B68084B4B
:10134C00DB69074A43F08053D361054BDB6903F03B
:10135C0080533B603B6800BF0C37BD4680BC704778
:10136C000010024080B588B000AF786007F1100320
:10137C0000221A605A609A60DA607B681B681C4A0B
:10138C00934231D11B4BDB691A4A43F00073D36192
:10139C00184BDB6903F00073FB60FB68154B9B6912
:1013AC00144A43F004039361124B9B6903F004034A
:1013BC00BB60BB684FF400633B6100237B6100237F
:1013CC00BB6107F1100319460B4800F0D9FD4FF42F
:1013DC0080533B6102237B610323FB6107F1100304
:1013EC001946054800F0CCFD00BF2037BD4680BD36
:1013FC0000640040001002400008014080B400AFBF
:10140C00FEE780B400AFFEE780B400AFFEE780B427
:10141C0000AFFEE780B400AFFEE780B400AF00BFC2
:10142C00BD4680BC704780B400AF00BFBD4680BCD9
:10143C00704780B400AF00BFBD4680BC704780B51C
:10144C0000AF00F07BF800BF80BD80B500AF02207C
:10145C0000F032FF00BF80BD80B400AF00BFBD46BE
:10146C0080BC7047FFF7F8FF0B480C490C4A00236F
:10147C0002E0D458C4500433C4188C42F9D3094A3E
:10148C00094C002301E013600432A242FBD301F0AB
:10149C001BFBFFF705FE7047000000200C0000202E
:1014AC00602B00080C00002014010020FEE7000057
:1014BC0080B500AF084B1B68074A43F0100313605C
:1014CC00032000F01BFD0F2000F008F8FFF728FFA9
:1014DC000023184680BD00BF0020024080B582B0BA
:1014EC0000AF7860124B1A68124B1B7819464FF4F8
:1014FC007A73B3FBF1F3B2FBF3F3184600F033FD50
:10150C000346002B01D001230EE07B680F2B0AD879
:10151C00002279684FF0FF3000F0FBFC064A7B6834
:10152C001360002300E0012318460837BD4680BD38
:10153C0000000020080000200400002080B400AF50
:10154C00054B1B781A46054B1B681344034A136062
:10155C0000BFBD4680BC7047080000201001002071
:10156C0080B400AF024B1B681846BD4680BC704768
:10157C001001002080B584B000AF78607B68002B30
:10158C0001D10123EDE07B6893F82030DBB2002B16
:10159C0002D17868FFF7E6FE7B681B681A687B68E7
:1015AC001B6842F001021A60FFF7DAFFF86012E0E4
:1015BC00FFF7D6FF0246FB68D31A0A2B0BD97B68C0
:1015CC005B6A43F400327B685A627B68052283F8BD
:1015DC0020200123C5E07B681B685B6803F00103D6
:1015EC00002BE5D07B681B681A687B681B6822F0AF
:1015FC0002021A60FFF7B4FFF86012E0FFF7B0FFC9
:10160C000246FB68D31A0A2B0BD97B685B6A43F43E
:10161C0000327B685A627B68052283F82020012304
:10162C009FE07B681B685B6803F00203002BE5D12D
:10163C007B681B7E012B08D17B681B681A687B6852
:10164C001B6842F080021A6007E07B681B681A680E
:10165C007B681B6822F080021A607B685B7E012B22
:10166C0008D17B681B681A687B681B6842F04002D3
:10167C001A6007E07B681B681A687B681B6822F09D
:10168C0040021A607B689B7E012B08D17B681B682B
:10169C001A687B681B6842F020021A6007E07B68BE
:1016AC001B681A687B681B6822F020021A607B6832
:1016BC00DB7E012B08D17B681B681A687B681B6872
:1016CC0022F010021A6007E07B681B681A687B68BE
:1016DC001B6842F010021A607B681B7F012B08D13B
:1016EC007B681B681A687B681B6842F008021A60EA
:1016FC0007E07B681B681A687B681B6822F008028D
:10170C001A607B685B7F012B08D17B681B681A68A9
:10171C007B681B6842F004021A6007E07B681B6858
:10172C001A687B681B6822F004021A607B689A684E
:10173C007B68DB681A437B681B691A437B685B69AF
:10174C0042EA03017B685B685A1E7B681B680A438C
:10175C00DA617B6800225A627B68012283F82020C0
:10176C00002318461037BD4680BD80B487B000AF4B
:10177C00786039607B681B687B617B6893F82030EC
:10178C00FB74FB7C012B03D0FB7C022B40F0AA806A
:10179C007B69D3F8003243F001027B69C3F8002265
:1017AC003B685B6903F01F03012202FA03F3FB6041
:1017BC007B69D3F81C22FB68DB431A407B69C3F8B6
:1017CC001C223B68DB69002B23D17B69D3F80C22EC
:1017DC00FB68DB431A407B69C3F80C223B68DB686F
:1017EC0019043B685B689BB23A68526919437B6980
:1017FC00483243F832103B689B6819043B681B68FD
:10180C009AB23B685B690A4379694833DB000B4445
:10181C005A603B68DB69012B22D17B69D3F80C221F
:10182C00FB681A437B69C3F80C223B681B681904DC
:10183C003B685B689BB23A68526919437B694832D2
:10184C0043F832103B689B6819043B68DB689AB21A
:10185C003B685B690A4379694833DB000B445A6087
:10186C003B689B69002B09D17B69D3F80422FB6888
:10187C00DB431A407B69C3F8042207E07B69D3F889
:10188C000422FB681A437B69C3F804223B681B697A
:10189C00002B09D17B69D3F81422FB68DB431A4077
:1018AC007B69C3F8142207E07B69D3F81422FB6828
:1018BC001A437B69C3F814223B681B6A012B07D1BE
:1018CC007B69D3F81C22FB681A437B69C3F81C2282
:1018DC007B69D3F8003223F001027B69C3F8002244
:1018EC00002306E07B685B6A43F480227B685A62C3
:1018FC00012318461C37BD4680BC704780B584B0A8
:10190C0000AF78607B6893F82030DBB2012B2ED1CE
:10191C007B68022283F820207B681B681A687B682E
:10192C001B6822F001021A60FFF71AFEF86012E041
:10193C00FFF716FE0246FB68D31A0A2B0BD97B68FD
:10194C005B6A43F400327B685A627B68052283F839
:10195C002020012312E07B681B685B6803F0010305
:10196C00002BE5D17B6800225A62002306E07B68DD
:10197C005B6A43F400227B685A62012318461037D5
:10198C00BD4680BD80B489B000AFF860B9607A60A4
:10199C003B60FB6893F82030FB77FB681B689B6807
:1019AC00BB61FB7F012B03D0FB7F022B40F0AD8092
:1019BC00BB6903F08063002B0AD1BB6903F00063A1
:1019CC00002B05D1BB6903F08053002B00F09580F0
:1019DC00BB691B0E03F003037B6101227B699A40F8
:1019EC003B681A60BB689B68002B0DD1BB681B68F9
:1019FC005A05BB68DB68F96809681A437B691833B8
:101A0C001B010B441A600FE0BB685B68DA00BB6813
:101A1C009B681A43BB68DB68F96809681A437B69E1
:101A2C0018331B010B441A60FB681968BB681A69F0
:101A3C007B6918331B010B4404331A60BB681B7D94
:101A4C00012B11D1FB681A687B6918331B011344F5
:101A5C0004331B68FA68116843F480727B6918338D
:101A6C001B010B4404331A607B6807331B781A067E
:101A7C007B6806331B781B041A437B6805331B7881
:101A8C001B0213437A68043212781046FA68116804
:101A9C0043EA00027B691B010B4403F5C6731A6011
:101AAC007B6803331B781A067B6802331B781B0494
:101ABC001A437B6801331B781B0213437A68127834
:101ACC001046FA68116843EA00027B691B010B445B
:101ADC0003F5C4731A60FB681A687B6918331B0121
:101AEC0013441B68FA68116843F001027B691833D0
:101AFC001B010B441A6000230EE0FB685B6A43F485
:101B0C000012FB685A62012306E0FB685B6A43F42F
:101B1C008022FB685A62012318462437BD4680BCDC
:101B2C00704780B487B000AFF860B9607A603B60F2
:101B3C00FB6893F82030FB75FB7D012B03D0FB7DFC
:101B4C00022B40F00381BB68002B0ED1FB681B6895
:101B5C00DB6803F00303002B16D1FB685B6A43F4CC
:101B6C000012FB685A620123F7E0FB681B681B69D3
:101B7C0003F00303002B07D1FB685B6A43F40012EC
:101B8C00FB685A620123E8E0FB681A68BB681B33E8
:101B9C001B0113441B6803F004027B689A607B688A
:101BAC009B68002B0CD1FB681A68BB681B331B01AC
:101BBC0013441B685B0DC3F30A027B681A600BE0CD
:101BCC00FB681A68BB681B331B0113441B68DB08DA
:101BDC0023F060427B685A60FB681A68BB681B3351
:101BEC001B0113441B6803F002027B68DA60FB687C
:101BFC001A68BB681B331B01134404331B6803F0C6
:101C0C000803002B03D07B6808221A610BE0FB68E9
:101C1C001A68BB681B331B01134404331B6803F0A5
:101C2C000F027B681A61FB681A68BB681B331B01C7
:101C3C00134404331B681B0ADAB27B689A61FB6895
:101C4C001A68BB681B331B01134404331B681B0C41
:101C5C009AB27B685A61FB681A68BB681B01134413
:101C6C0003F5DC731B68DAB23B681A70FB681A6800
:101C7C00BB681B01134403F5DC731B681A0A3B6831
:101C8C000133D2B21A70FB681A68BB681B0113448B
:101C9C0003F5DC731B681A0C3B680233D2B21A7062
:101CAC00FB681A68BB681B01134403F5DC731B68E3
:101CBC001A0E3B680333D2B21A70FB681A68BB6801
:101CCC001B01134403F5DE731A683B680433D2B26C
:101CDC001A70FB681A68BB681B01134403F5DE73AA
:101CEC001B681A0A3B680533D2B21A70FB681A6873
:101CFC00BB681B01134403F5DE731B681A0C3B68AD
:101D0C000633D2B21A70FB681A68BB681B01134405
:101D1C0003F5DE731B681A0E3B680733D2B21A70D8
:101D2C00BB68002B08D1FB681B68DA68FB681B6872
:101D3C0042F02002DA6007E0FB681B681A69FB6856
:101D4C001B6842F020021A61002306E0FB685B6A04
:101D5C0043F48022FB685A62012318461C37BD46A7
:101D6C0080BC704780B485B000AF78607B6803F0AE
:101D7C000703FB600C4BDB68BB60BA684FF6FF03D4
:101D8C001340BB60FB681A02BB68134343F0BF638C
:101D9C0043F40033BB60044ABB68D36000BF143704
:101DAC00BD4680BC704700BF00ED00E080B400AFC2
:101DBC00044BDB681B0A03F007031846BD4680BCC6
:101DCC00704700BF00ED00E080B483B000AF034665
:101DDC00FB7197F90730002B0BDBFB7903F01F022B
:101DEC00064997F907305B09012000FA02F241F825
:101DFC00232000BF0C37BD4680BC704700E100E0DB
:101E0C0080B483B000AF03463960FB7197F907309B
:101E1C00002B0ADB3B68DAB20C4997F90730120148
:101E2C00D2B20B4483F800230AE03B68DAB20849CB
:101E3C00FB7903F00F03043B1201D2B20B441A7668
:101E4C0000BF0C37BD4680BC704700BF00E100E00E
:101E5C0000ED00E080B489B000AFF860B9607A6042
:101E6C00FB6803F00703FB61FB69C3F10703042B59
:101E7C0028BF0423BB61FB690433062B02D9FB6921
:101E8C00033B00E000237B614FF0FF32BB6902FA99
:101E9C0003F3DA43BB681A407B699A404FF0FF3179
:101EAC007B6901FA03F3D9437B680B401343184653
:101EBC002437BD4680BC704780B582B000AF7860D7
:101ECC007B68013BB3F1807F01D301230FE00A4A09
:101EDC007B68013B53600F214FF0FF30FFF790FF01
:101EEC00054B00229A60044B07221A600023184607
:101EFC000837BD4680BD00BF10E000E080B582B061
:101F0C0000AF78607868FFF72DFF00BF0837BD463B
:101F1C0080BD80B586B000AF0346B9607A60FB73B4
:101F2C0000237B61FFF742FF78617A68B9687869B2
:101F3C00FFF790FF024697F90F3011461846FFF74E
:101F4C005FFF00BF1837BD4680BD80B582B000AFC3
:101F5C000346FB7197F907301846FFF735FF00BFB2
:101F6C000837BD4680BD80B582B000AF7860786818
:101F7C00FFF7A2FF034618460837BD4680BD000098
:101F8C0080B48BB000AF7860396000237B62002393
:101F9C003B6269E101227B6A02FA03F3FB613B6855
:101FAC001B68FA691340BB61BA69FB699A4240F03D
:101FBC0058813B685B689A4A93425ED0984A934238
:101FCC0075D8984A934258D0964A93426FD8964AFD
:101FDC00934252D0944A934269D8944A93424CD03B
:101FEC00924A934263D8924A934246D0904A934283
:101FFC005DD8122B2AD8122B59D801A252F823F0F3
:10200C00872000086120000873200008B520000814
:10201C00BB200008BB200008BB200008BB20000828
:10202C00BB200008BB200008BB200008BB20000818
:10203C00BB200008BB200008BB200008BB20000808
:10204C00BB200008692000087D200008794A9342D3
:10205C0013D02CE03B68DB683B6229E03B68DB6813
:10206C0004333B6224E03B68DB6808333B621FE0CF
:10207C003B68DB680C333B621AE03B689B68002BC7
:10208C0002D104233B6213E03B689B68012B05D112
:10209C0008233B627B68FA691A6109E008233B62FA
:1020AC007B68FA695A6103E000233B6200E000BFE1
:1020BC00BB69FF2B01D87B6801E07B6804337B6133
:1020CC00BB69FF2B02D87B6A9B0002E07B6A083B52
:1020DC009B003B617B691A680F213B6901FA03F392
:1020EC00DB431A40396A3B6901FA03F31A437B69F3
:1020FC001A603B685B6803F08053002B00F0B180E2
:10210C004D4B9B694C4A43F0010393614A4B9B69CD
:10211C0003F00103BB60BB68484A7B6A9B0802332F
:10212C0052F82330FB607B6A03F003039B000F2201
:10213C0002FA03F3DB43FA681340FB607B68404A06
:10214C00934213D07B683F4A93420DD07B683E4A42
:10215C00934207D07B683D4A934201D1032306E0AA
:10216C00042304E0022302E0012300E000237A6A46
:10217C0002F0030292009340FA681343FB602F496C
:10218C007B6A9B080233FA6841F823203B685B6842
:10219C0003F48013002B06D02D4B9A682C49BB6995
:1021AC0013438B6006E02A4B9A68BB69DB432849D2
:1021BC0013408B603B685B6803F40013002B06D064
:1021CC00234BDA682249BB691343CB6006E0204BF2
:1021DC00DA68BB69DB431E491340CB603B685B6824
:1021EC0003F40033002B06D0194B5A681849BB690D
:1021FC0013434B6006E0164B5A68BB69DB4314492A
:10220C0013404B603B685B6803F48033002B21D098
:10221C000F4B1A680E49BB6913430B6021E000BFDA
:10222C0000003210000031100000221000002110BC
:10223C0000001210000011100010024000000140BC
:10224C0000080140000C0140001001400014014046
:10225C00000401400B4B1A68BB69DB43094913406E
:10226C000B607B6A01337B623B681A687B6A22FADB
:10227C0003F3002B7FF48EAE00BF00BF2C37BD469E
:10228C0080BC70470004014080B483B000AF78601C
:10229C000B467B8013467B707B78002B03D07A88AF
:1022AC007B681A6103E07B881A047B681A6100BFA3
:1022BC000C37BD4680BC704780B582B000AF03467A
:1022CC00FB80084B5A69FB881340002B06D0054A4B
:1022DC00FB885361FB88184600F006F800BF0837EE
:1022EC00BD4680BD0004014080B483B000AF0346FE
:1022FC00FB8000BF0C37BD4680BC704780B586B0F4
:10230C0000AF78607B68002B01D1012372E27B68FF
:10231C001B6803F00103002B00F08780924B5B6875
:10232C0003F00C03042B0CD08F4B5B6803F00C03F5
:10233C00082B12D18C4B5B6803F48033B3F5803FD0
:10234C000BD1894B1B6803F40033002B6CD07B68DA
:10235C005B68002B68D101234CE27B685B68B3F5AA
:10236C00803F06D1804B1B687F4A43F48033136057
:10237C002EE07B685B68002B0CD17B4B1B687A4A88
:10238C0023F480331360784B1B68774A23F4802343
:10239C0013601DE07B685B68B3F5A02F0CD1724B0A
:1023AC001B68714A43F4802313606F4B1B686E4AA1
:1023BC0043F4803313600BE06B4B1B686A4A23F4C5
:1023CC0080331360684B1B68674A23F480231360C7
:1023DC007B685B68002B13D0FFF7C2F8386108E00C
:1023EC00FFF7BEF802463B69D31A642B01D90323CD
:1023FC0000E25D4B1B6803F40033002BF0D014E0BB
:10240C00FFF7AEF8386108E0FFF7AAF802463B691F
:10241C00D31A642B01D90323ECE1534B1B6803F44F
:10242C000033002BF0D100E000BF7B681B6803F089
:10243C000203002B63D04C4B5B6803F00C03002BA6
:10244C000BD0494B5B6803F00C03082B1CD1464B9B
:10245C005B6803F48033002B16D1434B1B6803F0ED
:10246C000203002B05D07B681B69012B01D00123D3
:10247C00C0E13D4B1B6823F0F8027B685B69DB0015
:10248C00394913430B603AE07B681B69002B20D061
:10249C00364B01221A60FFF763F8386108E0FFF74A
:1024AC005FF802463B69D31A022B01D90323A1E141
:1024BC002D4B1B6803F00203002BF0D02A4B1B683A
:1024CC0023F0F8027B685B69DB00274913430B6040
:1024DC0015E0264B00221A60FFF742F8386108E03D
:1024EC00FFF73EF802463B69D31A022B01D90323AE
:1024FC0080E11D4B1B6803F00203002BF0D17B68BD
:10250C001B6803F00803002B3AD07B689B69002BF7
:10251C0019D0174B01221A60FFF722F8386108E036
:10252C00FFF71EF802463B69D31A022B01D903238D
:10253C0060E10D4B5B6A03F00203002BF0D001202D
:10254C0000F09CFA1CE00A4B00221A60FFF708F816
:10255C0038610FE0FFF704F802463B69D31A022BEF
:10256C0008D9032346E100BF00100240000042429C
:10257C0080044242924B5B6A03F00203002BE9D1C8
:10258C007B681B6803F00403002B00F0A68000237B
:10259C00FB758B4BDB6903F08053002B0DD1884B03
:1025AC00DB69874A43F08053D361854BDB6903F0C9
:1025BC008053BB60BB680123FB75824B1B6803F423
:1025CC008073002B18D17F4B1B687E4A43F48073B9
:1025DC001360FEF7C5FF386108E0FEF7C1FF024645
:1025EC003B69D31A642B01D9032303E1754B1B6898
:1025FC0003F48073002BF0D07B68DB68012B06D1D1
:10260C006F4B1B6A6E4A43F0010313622DE07B682B
:10261C00DB68002B0CD16A4B1B6A694A23F001035F
:10262C001362674B1B6A664A23F0040313621CE0B7
:10263C007B68DB68052B0CD1614B1B6A604A43F04D
:10264C00040313625E4B1B6A5D4A43F00103136281
:10265C000BE05B4B1B6A5A4A23F001031362584B85
:10266C001B6A574A23F0040313627B68DB68002B58
:10267C0015D0FEF775FF38610AE0FEF771FF0246D0
:10268C003B69D31A41F28832934201D90323B1E05A
:10269C004B4B1B6A03F00203002BEED014E0FEF749
:1026AC005FFF38610AE0FEF75BFF02463B69D31A15
:1026BC0041F28832934201D903239BE0404B1B6AC1
:1026CC0003F00203002BEED1FB7D012B05D13C4B1B
:1026DC00DB693B4A23F08053D3617B68DB69002BB9
:1026EC0000F08780364B5B6803F00C03082B61D03D
:1026FC007B68DB69022B46D1334B00221A60FEF754
:10270C002FFF386108E0FEF72BFF02463B69D31A16
:10271C00022B01D903236DE0294B1B6803F00073D6
:10272C00002BF0D17B681B6AB3F5803F08D1244B9A
:10273C005B6823F400327B689B68214913434B6030
:10274C001F4B5B6823F474127B68196A7B685B6AA5
:10275C000B431B4913434B601B4B01221A60FEF7C2
:10276C00FFFE386108E0FEF7FBFE02463B69D31A18
:10277C00022B01D903233DE0114B1B6803F00073BE
:10278C00002BF0D035E0104B00221A60FEF7E8FE6B
:10279C00386108E0FEF7E4FE02463B69D31A022BCF
:1027AC0001D9032326E0064B1B6803F00073002BB2
:1027BC00F0D11EE07B68DB69012B07D1012319E006
:1027CC000010024000700040600042420B4B5B68FE
:1027DC00FB60FB6803F480327B681B6A9A4206D16B
:1027EC00FB6803F470127B685B6A9A4201D0012388
:1027FC0000E0002318461837BD4680BD001002408B
:10280C0080B584B000AF786039607B68002B01D153
:10281C000123D0E06A4B1B6803F007033A689A4225
:10282C0010D9674B1B6823F0070265493B681343BB
:10283C000B60634B1B6803F007033A689A4201D0A4
:10284C000123B8E07B681B6803F00203002B20D047
:10285C007B681B6803F00403002B05D0594B5B68A5
:10286C00584A43F4E06353607B681B6803F0080329
:10287C00002B05D0534B5B68524A43F460535360B2
:10288C00504B5B6823F0F0027B689B684D49134307
:10289C004B607B681B6803F00103002B40D07B6806
:1028AC005B68012B07D1474B1B6803F40033002BEB
:1028BC0015D101237FE07B685B68022B07D1414B6C
:1028CC001B6803F00073002B09D1012373E03D4B0F
:1028DC001B6803F00203002B01D101236BE0394B81
:1028EC005B6823F003027B685B68364913434B60DB
:1028FC00FEF736FEF8600AE0FEF732FE0246FB6891
:10290C00D31A41F28832934201D9032353E02D4B61
:10291C005B6803F00C027B685B689B009A42EBD10E
:10292C00274B1B6803F007033A689A4210D2244BDA
:10293C001B6823F0070222493B6813430B60204BB2
:10294C001B6803F007033A689A4201D0012332E076
:10295C007B681B6803F00403002B08D0194B5B68E1
:10296C0023F4E0627B68DB68164913434B607B6899
:10297C001B6803F00803002B09D0124B5B6823F48F
:10298C0060527B681B69DB000E4913434B6000F0FF
:10299C0021F802460B4B5B681B0903F00F030A4935
:1029AC00CB5C22FA03F3094A1360094B1B681846E7
:1029BC00FEF794FD002318461037BD4680BD00BFBE
:1029CC000020024000100240342B000800000020C0
:1029DC000400002080B487B000AF0023FB6000230C
:1029EC00BB6000237B6100237B6000233B611E4B9B
:1029FC005B68FB60FB6803F00C03042B02D0082B14
:102A0C0003D027E0194B3B6127E0FB689B0C03F0DC
:102A1C000F03174AD35C7B60FB6803F48033002BF5
:102A2C0010D0114B5B685B0C03F00103114AD35CB3
:102A3C00BB607B680D4A03FB02F2BB68B2FBF3F38D
:102A4C007B6104E07B680C4A02FB03F37B617B69CE
:102A5C003B6102E0054B3B6100BF3B6918461C37EC
:102A6C00BD4680BC704700BF0010024000127A00C7
:102A7C00442B0008542B000800093D0080B485B09D
:102A8C0000AF78600A4B1B680A4AA2FB03235B0A5F
:102A9C007A6802FB03F3FB6000BFFB685A1EFA6006
:102AAC00002BF9D100BF00BF1437BD4680BC704766
:102ABC0000000020D34D621003460244934200D123
:102ACC00704703F8011BF9E770B500260C4D0D4C4F
:102ADC00641BA410A64209D100F01AF800260A4D76
:102AEC000A4C641BA410A64205D170BD55F8043BDA
:102AFC0098470136EEE755F8043B98470136F2E764
:102B0C00582B0008582B0008582B00085C2B000889
:102B1C00F8B500BFF8BC08BC9E467047F8B500BFBE
:082B2C00F8BC08BC9E4670478E
:102B34000000000000000000010203040607080969
:102B440002030405060708090A0B0C0D0E0F1010EA
:042B5400010200007A
:042B5800310100083F
:042B5C000D0100085F
:0C2B60000024F400100000000100000040
:04000005080014716A
:00000001FF
