:020000040800F2
:10000000005000202D22000851210008572100082F
:100010005D2100086321000869210008000000003C
:100020000000000000000000000000006F21000838
:100030007B210008000000008721000893210008B0
:100040007522000875220008752200087522000834
:100050007522000875220008752200087522000824
:100060007522000875220008752200087522000814
:100070007522000875220008752200087522000804
:1000800075220008752200087522000875220008F4
:1000900075220008752200087522000875220008E4
:1000A00075220008752200087522000875220008D4
:1000B00075220008752200087522000875220008C4
:1000C00075220008752200087522000875220008B4
:1000D00075220008A1210008752200087522000879
:1000E0007522000875220008752200080000000033
:1000F0000000000000000000000000000000000000
:0C01000000000000000000005FF808F1A3
:10010C0010B5054C237833B9044B13B10448AFF345
:10011C0000800123237010BD6C0000200000000043
:10012C007059000808B5034B1BB103490348AFF3E2
:10013C00008008BD0000000070000020705900080D
:10014C0080F0004002E000BF81F0004142001FBF80
:10015C005FEA410392EA030F7FEA226C7FEA236C89
:10016C006AD04FEA1262D2EB1363C1BFD21841407E
:10017C0048404140B8BF5B42192B88BF704710F014
:10018C00004F40F4000020F07F4018BF404211F0B7
:10019C00004F41F4000121F07F4118BF494292EA1F
:1001AC00030F3FD0A2F1010241FA03FC10EB0C004B
:1001BC00C3F1200301FA03F100F0004302D54942D8
:1001CC0060EB4000B0F5000F13D3B0F1807F06D385
:1001DC0040084FEA310102F10102FE2A51D2B1F17D
:1001EC00004F40EBC25008BF20F0010040EA030072
:1001FC007047490040EB0000013A28BFB0F5000FF2
:10020C00EDD2B0FA80FCACF1080CB2EB0C0200FAA7
:10021C000CF0AABF00EBC25052421843BCBFD040F6
:10022C001843704792F0000F81F4000106BF80F470
:10023C0000000132013BB5E74FEA41037FEA226C33
:10024C0018BF7FEA236C21D092EA030F04D092F0FE
:10025C00000F08BF0846704790EA010F1CBF002032
:10026C00704712F07F4F04D1400028BF40F000408F
:10027C00704712F100723CBF00F50000704700F0AF
:10028C00004343F0FE4040F4000070477FEA2262D6
:10029C0016BF08467FEA23630146420206BF5FEAA7
:1002AC00412390EA010F40F4800070474FF00003A7
:1002BC0004E000BF10F0004348BF40425FEA000C6E
:1002CC0008BF704743F0964301464FF000001CE016
:1002DC0050EA010208BF70474FF000030AE000BF6C
:1002EC0050EA010208BF704711F0004302D54042AA
:1002FC0061EB41015FEA010C02BF8446014600201C
:10030C0043F0B64308BFA3F18053A3F50003BCFA36
:10031C008CF2083AA3EBC25310DB01FA02FC6344E3
:10032C0000FA02FCC2F12002BCF1004F20FA02F2EA
:10033C0043EB020008BF20F00100704702F12002DD
:10034C0001FA02FCC2F1200250EA4C0021FA02F23E
:10035C0043EB020008BF20EADC7070474FF0FF0C43
:10036C001CEAD0521EBF1CEAD15392EA0C0F93EA3E
:10037C000C0F6FD01A4480EA010C400218BF5FEAE0
:10038C0041211ED04FF0006343EA501043EA511153
:10039C00A0FB01310CF00040B1F5000F3EBF49004D
:1003AC0041EAD3715B0040EA010062F17F02FD2A51
:1003BC001DD8B3F1004F40EBC25008BF20F0010034
:1003CC00704790F0000F0CF0004C08BF49024CEA4B
:1003DC00502040EA51207F3AC2BFD2F1FF0340EADD
:1003EC00C250704740F400004FF00003013A5DDC4E
:1003FC0012F1190FDCBF00F000407047C2F100028F
:10040C00410021FA02F1C2F1200200FA02FC5FEA7B
:10041C00310040F1000053EA4C0308BF20EADC70C5
:10042C00704792F0000F00F0004C02BF400010F437
:10043C00000F013AF9D040EA0C0093F0000F01F0E4
:10044C00004C02BF490011F4000F013BF9D041EA06
:10045C000C018FE70CEAD15392EA0C0F18BF93EA08
:10046C000C0F0AD030F0004C18BF31F0004CD8D132
:10047C0080EA010000F00040704790F0000F17BFB9
:10048C0090F0004F084691F0000F91F0004F14D0FF
:10049C0092EA0C0F01D142020FD193EA0C0F03D157
:1004AC004B0218BF084608D180EA010000F000405A
:1004BC0040F0FE4040F40000704740F0FE4040F435
:1004CC00400070474FF0FF0C1CEAD0521EBF1CEAD4
:1004DC00D15392EA0C0F93EA0C0F69D0A2EB0302F2
:1004EC0080EA010C49024FEA402037D04FF080538C
:1004FC0043EA111143EA10130CF000408B4238BF51
:10050C005B0042F17D024FF4000C8B4224BF5B1A5E
:10051C0040EA0C00B3EB510F24BFA3EB510340EAAC
:10052C005C00B3EB910F24BFA3EB910340EA9C005A
:10053C00B3EBD10F24BFA3EBD10340EADC001B01CA
:10054C0018BF5FEA1C1CE0D1FD2A3FF650AF8B426E
:10055C0040EBC25008BF20F0010070470CF0004C7B
:10056C004CEA50207F32C2BFD2F1FF0340EAC250A6
:10057C00704740F400004FF00003013A37E792F067
:10058C00000F00F0004C02BF400010F4000F013AC5
:10059C00F9D040EA0C0093F0000F01F0004C02BFC0
:1005AC00490011F4000F013BF9D041EA0C0195E729
:1005BC000CEAD15392EA0C0F08D142027FF47DAFC2
:1005CC0093EA0C0F7FF470AF084676E793EA0C0FB2
:1005DC0004D14B023FF44CAF08466EE730F0004CB0
:1005EC0018BF31F0004CCAD130F000427FF45CAF40
:1005FC0031F000437FF43CAF5FE700BF42000ED206
:10060C00B2F1FE4F0BD34FF09E03B3EB126209D441
:10061C004FEA002343F0004323FA02F070474FF0F7
:10062C000000704712F1610F01D1420202D14FF06C
:10063C00FF3070474FF00000704700BF80B584B0AA
:10064C0000AF03460A46FB711346BB71FB79012BC5
:10065C0002D15023FB7301E06023FB730C4B00228F
:10066C009A600B4B0022DA60FB7B094A1360084B43
:10067C0001221A61074ABB791370074B054A0449DA
:10068C00064802F081F8034618461037BD4680BD77
:10069C00E00500201406002024060020F4040020AD
:1006AC0080B584B000AF03463960FB711346BB7153
:1006BC003B68002B01D101232BE0FB79012B02D1EC
:1006CC005023FB7301E06023FB73144B00229A60F0
:1006DC00124B0022DA60FB7B104A1360BB790F4A85
:1006EC0013610023BB7309E0BB7B3A681A44BB7BE4
:1006FC0011780B4AD154BB7B0133BB73BA7BBB79EA
:10070C009A42F1D3074B064A0449074802F03CF8D9
:10071C00034618461037BD4680BD00BFE0050020DB
:10072C001406002024060020F404002080B582B0BA
:10073C0000AF786000BF0B4B1B68DB6803F0030352
:10074C00002BF8D0084B094A0021064802F0EBF8C0
:10075C00054B1A787B681A70002318460837BD467B
:10076C0080BD00BFF40400201C060020F80500200A
:10077C0080B400AF034B044A1A6000BFBD4680BC76
:10078C00704700BF9400002000A8000880B582B01C
:10079C0000AF204800F03EFA0346BB71BB79002B3A
:1007AC0033D11C4B1B78032B2FD11B4800F0ECF9D9
:1007BC000346BB71BB79002B27D1174B1B78002B41
:1007CC0023D10023FB710FE0144B1B681A46FB79F5
:1007DC001278D1B2124AD154104B1B6801330F4A14
:1007EC001360FB790133FB71FB79072BECD9BB79D7
:1007FC00002B0AD10A4800F05DF90346BB710120B9
:10080C0000F0A0F9042000F0E3F900BF0837BD4662
:10081C0080BD00BF900000209100002094000020BB
:10082C008800002080B584B000AF7860224B1B7824
:10083C00012B33D1214800F0EDF90346FB73FB7B10
:10084C00002B1DD11D4B1B78002B0ED1022000F06C
:10085C00BFF91B4B02221A701A4B1B68DA68194B32
:10086C001B6822F02002DA6022E0174B03221A7078
:10087C004FF0FF3301221449124803F085FE17E0B4
:10088C00FB7B012B14D1104B02221A704FF0FF335B
:10089C0001220D490B4803F077FE09E00A4B0422B4
:1008AC001A704FF0FF3301220749064803F06CFE23
:1008BC0000BF1037BD4680BD9C0000209800002072
:1008CC009900002070050020A100002080B485B0A4
:1008DC0000AF0346FB710023FB730B4B1B78002B03
:1008EC0009D1094B01221A70084AFB791370064B87
:1008FC0000221A7001E00123FB73FB7B18461437AE
:10090C00BD4680BC704700BFBA000020AC00002080
:10091C0080B485B000AF78600023FB730C4B1B7860
:10092C00002B0DD17B68002B0AD0094B01221A70C9
:10093C00084B1A787B681A70054B00221A7001E07C
:10094C000123FB73FB7B18461437BD4680BC7047F4
:10095C00BA000020AC00002080B485B000AF7860F5
:10096C000023FB730A4B1B78002B09D1084B012287
:10097C001A70084A7B681360054B00221A7001E05C
:10098C000123FB73FB7B18461437BD4680BC7047B4
:10099C00B9000020A800002080B485B000AF7860BA
:1009AC000023FB730C4B1B78002B0DD17B68002BA9
:1009BC000AD0094B01221A70084B1A687B681A601E
:1009CC00054B00221A7001E00123FB73FB7B1846D8
:1009DC001437BD4680BC7047B9000020A800002029
:1009EC0080B485B000AF78600023FB730C4B1B7890
:1009FC00002B0DD17B68002B0AD0094B01221A70F9
:100A0C00084B1A687B681A60054B00221A7001E0CB
:100A1C000123FB73FB7B18461437BD4680BC704723
:100A2C00B8000020A400002080B485B000AF0346BD
:100A3C00FB710023FB730B4B1B78002B09D1094B6B
:100A4C0001221A70084AFB791370064B00221A70A7
:100A5C0001E00123FB73FB7B18461437BD4680BCB9
:100A6C00704700BFBB000020AD00002080B485B0F3
:100A7C0000AF78600023FB730C4B1B78002B0DD15F
:100A8C007B68002B0AD0094B01221A70084B1A788C
:100A9C007B681A70054B00221A7001E00123FB736E
:100AAC00FB7B18461437BD4680BC7047BB0000204A
:100ABC00AD00002080B485B000AF78600023FB73DC
:100ACC000C4B1B78002B0CD17B68002B09D0094BED
:100ADC0001221A70084A7B681360064B00221A70B8
:100AEC0001E00123FB73FB7B18461437BD4680BC29
:100AFC00704700BFBC000020B000002080B485B05F
:100B0C0000AF78600023FB730C4B1B78002B0DD1CE
:100B1C007B68002B0AD0094B01221A70084B1A680B
:100B2C007B681A60054B00221A7001E00123FB73ED
:100B3C00FB7B18461437BD4680BC7047BC000020B8
:100B4C00B000002080B485B000AF0346FB710023D9
:100B5C00FB730B4B1B78002B09D1094B01221A702C
:100B6C00084AFB791370064B00221A7001E001232E
:100B7C00FB73FB7B18461437BD4680BC704700BF27
:100B8C00BD000020B400002080B485B000AF7860B8
:100B9C000023FB730C4B1B78002B0DD17B68002BB7
:100BAC000AD0094B01221A70084B1A787B681A700C
:100BBC00054B00221A7001E00123FB73FB7B1846E6
:100BCC001437BD4680BC7047BD000020B400002027
:100BDC0080B485B000AF0346FB710023FB730B4B55
:100BEC001B78002B09D1094B01221A70084AFB799A
:100BFC001370064B00221A7001E00123FB73FB7B80
:100C0C0018461437BD4680BC704700BFBE0000209C
:100C1C00B500002080B485B000AF78600023FB7372
:100C2C000C4B1B78002B0DD17B68002B0AD0094B89
:100C3C0001221A70084B1A787B681A70054B002237
:100C4C001A7001E00123FB73FB7B18461437BD4679
:100C5C0080BC7047BE000020B500002080B485B079
:100C6C0000AF0346FB710023FB730B4B1B78002B6F
:100C7C0009D1094B01221A70084AFB791370064BF3
:100C8C0000221A7001E00123FB73FB7B184614371A
:100C9C00BD4680BC704700BFBF000020B6000020DE
:100CAC0080B485B000AF0346FB710023FB730B4B84
:100CBC001B78002B09D1094B01221A70084AFB79C9
:100CCC001370064B00221A7001E00123FB73FB7BAF
:100CDC0018461437BD4680BC704700BFC0000020CA
:100CEC00B700002080B485B000AF78600023FB73A0
:100CFC000C4B1B78002B0DD17B68002B0AD0094BB9
:100D0C0001221A70084B1A787B681A70054B002266
:100D1C001A7001E00123FB73FB7B18461437BD46A8
:100D2C0080BC7047C0000020B700002080B582B0A6
:100D3C0000AF00F027FA44F62063012278215B48CB
:100D4C0002F09EFC0346002B01D00023A9E040F6E4
:100D5C00C4137B6002E07B68013B7B607B68002BEB
:100D6C00F9D1AE220021782000F086FA2022002151
:100D7C00782000F081FA10220021782000F07CFA13
:100D8C00B0220021782000F077FAC82200217820C8
:100D9C0000F072FA00220021782000F06DFA102287
:100DAC000021782000F068FA40220021782000F021
:100DBC0063FA81220021782000F05EFAFF220021E4
:100DCC00782000F059FAA1220021782000F054FA82
:100DDC00A6220021782000F04FFAA82200217820CA
:100DEC0000F04AFA3F220021782000F045FAA422B4
:100DFC000021782000F040FAD3220021782000F066
:100E0C003BFA00220021782000F036FAD52200218E
:100E1C00782000F031FAF0220021782000F02CFA32
:100E2C00D9220021782000F027FA222200217820F4
:100E3C0000F022FADA220021782000F01DFA1222AA
:100E4C000021782000F018FADB220021782000F035
:100E5C0013FA20220021782000F00EFA8D220021B6
:100E6C00782000F009FA14220021782000F004FA0E
:100E7C00AF220021782000F0FFF92E2200217820EB
:100E8C0000F0FAF9002000F043F800F013F8084BDA
:100E9C0000221A80064B00225A80054B01225A71FF
:100EAC00012318460837BD4680BD00BF1C05002035
:100EBC00C404002080B582B000AF0023FB711DE09C
:100ECC00FB79503BDBB21A460021782000F0D4F9B4
:100EDC0000220021782000F0CFF910220021782088
:100EEC0000F0CAF9FB79DB01084A1A44802340213F
:100EFC00782000F05BF9FB790133FB71FB79072B50
:100F0C00DED900BF00BF0837BD4680BDC40000203D
:100F1C0080B582B000AF0346FB71FB79002B01D189
:100F2C00002300E0FF234FF480621946034804F0CD
:100F3C0087F800BF0837BD4680BD00BFC400002045
:100F4C0080B483B000AF0346FB800B46BB801346D6
:100F5C00FB70FB887F2B48D8BB883F2B45D8254B93
:100F6C001B79002B06D0FB78002B0CBF0123002330
:100F7C00DBB2FB70FB78012B1AD1FA88BB88DB083B
:100F8C0098B20346DB0113441B4AD35C5AB2BB88AC
:100F9C0003F00703012101FA03F35BB2134359B2C7
:100FAC00FA880346DB011344C9B2134AD1541DE03D
:100FBC00FA88BB88DB0898B20346DB0113440E4A5F
:100FCC00D35C5AB2BB8803F00703012101FA03F387
:100FDC005BB2DB435BB2134059B2FA880346DB01C8
:100FEC001344C9B2044AD15400E000BF0C37BD46CB
:100FFC0080BC7047C4040020C400002080B483B0BF
:10100C0000AF03460A46FB801346BB80054AFB88AB
:10101C001380044ABB88538000BF0C37BD4680BC8C
:10102C00704700BFC404002080B586B000AF0346F3
:10103C003960FB711346BB713A4B1B881A463B68EF
:10104C001B7813447F2B07DC364B5B881A463B68B6
:10105C005B7813443F2B01DD00235EE000237B61B2
:10106C004BE03B685A68FB79203B3968497801FBB7
:10107C0003F319467B690B445B0013441B88FB602C
:10108C0000233B6130E0FA683B6902FA03F303F496
:10109C000043002B10D0234B1A883B699BB213449E
:1010AC0098B2204B5A887B699BB213449BB2BA7995
:1010BC001946FFF745FF14E01A4B1A883B699BB29F
:1010CC00134498B2174B5A887B699BB2134499B25C
:1010DC00BB79002B0CBF01230023DBB21A46FFF7B0
:1010EC002FFF3B6901333B613B681B781A463B6918
:1010FC009342C8D37B6901337B613B685B781A46AA
:10110C007B699342ADD3074B1A883B681B789BB223
:10111C0013449AB2034B1A80FB7918461837BD4614
:10112C0080BD00BFC404002080B584B000AFF8605F
:10113C00B9601346FB7112E0FB681B78FA79B96849
:10114C001846FFF771FF03461A46FB681B789A4254
:10115C0002D0FB681B7808E0FB680133FB60FB687E
:10116C001B78002BE8D1FB681B7818461037BD465E
:10117C0080BD80B500AF0020FFF7CAFEFFF79AFED6
:10118C0000BF80BD80B483B000AF074B7B6002E032
:10119C007B68013B7B607B68002BF9D100BF00BFF3
:1011AC000C37BD4680BC704790D0030090B5C7B0DB
:1011BC0002AF0446084607F58871A1F588710A60EC
:1011CC00194607F58873A3F2091322461A7007F51E
:1011DC008873A3F5857302461A7007F58873A3F517
:1011EC0086730A461A8007F58873A3F5827307F590
:1011FC008872A2F5857212781A70002387F80F3165
:10120C0015E097F80F3107F58872A2F5887212680D
:10121C001A4497F80F310133117807F58872A2F54B
:10122C008272D15497F80F31013387F80F3197F848
:10123C000F319BB207F58872A2F5867212889A421A
:10124C00DFD807F58873A3F209131B7899B207F559
:10125C008873A3F586731B8801339BB207F10C02CC
:10126C000A200090034802F00DF900BF07F58A77B9
:10127C00BD4690BD1C05002080B586B002AF03466C
:10128C00FB710B46BB7113467B71BB793B737B794E
:10129C007B73FB7999B207F10C020A2300930223AA
:1012AC00034802F0EFF800BF1037BD4680BD00BF09
:1012BC001C05002080B400AF144B00221A60144BA4
:1012CC0000221A70134B00221A80134B00221A8032
:1012DC00124B00221A70124B4FF000021A60114B85
:1012EC0000221A70104B00221A70104B104A1A6010
:1012FC000E4B104A5A600D4B0F4A9A600B4B0F4A1B
:10130C00DA6000231846BD4680BC7047CC04002030
:10131C00D0040020D2040020D4040020D6040020E5
:10132C00D8040020DC040020DD040020E0040020B0
:10133C0081130008CD1300088D1400081116000845
:10134C0080B582B000AF0023FB71084B1B781A46A6
:10135C00074B53F822303B603B680020984703460C
:10136C00FB71FB7918460837BD4680BDDD040020B3
:10137C00E004002080B584B000AF78600023FB73DC
:10138C000023BB7307F10E031846FFF76FFB0346F0
:10139C00FB73FB7B002B09D1BB7B012B03D1074BD0
:1013AC0001221A7004E00023FB7301E00123FB739C
:1013BC00FB7B18461037BD4680BD00BFDD04002006
:1013CC0080B58AB000AF7860002387F827300023FF
:1013DC00FB6100233B620023FB7600237B6100232F
:1013EC003B610023FB7307F1100207F1140107F1B5
:1013FC001B03184600F044F907F1140207F11B0314
:10140C001146184600F092F97B69396907F11C0204
:10141C00184600F051F9FB7E10211846FFF70EF923
:10142C0007F10F031846FFF781F9FB7B502B13D103
:10143C00FB7E34211846FFF701F907F10F0318461C
:10144C00FFF774F9FB7B732B06D1FB7E07F11C01B4
:10145C0008221846FFF724F907F10F031846FFF787
:10146C0065F9FB7B742B02D1044B02221A7097F89E
:10147C00273018462837BD4680BD00BFDD0400204C
:10148C0090B587B000AF78600023FB7500233B61FB
:10149C000023FB73524B1B68DB089AB2514B1A802A
:1014AC004F4B1B68DBB203F00703DAB24E4B1A70DA
:1014BC0007F117031846FFF767FBFB7D012B40F084
:1014CC00898007F110031846FFF718FB474B1B7870
:1014DC0036211846FFF7B2F807F10F031846FFF74D
:1014EC0025F9FB7B752B75D1414B1A883D4B1B881D
:1014FC009A4250D23D4B1B78396908221846FFF7A7
:10150C00CFF807F10F031846FFF710F9FB7B762B8A
:10151C0060D1374B1B8801339AB2354B1A80344B50
:10152C001A88304B1B889A4207D12F4B1B78002B03
:10153C0003D1304B03221A7005E00020FFF702FBA9
:10154C000320FFF745FB2A4B1B881846FEF7AEFE1F
:10155C000446244B1B881846FEF7A8FE0346194682
:10156C002046FEF7AFFF03461A46234B1A60224B68
:10157C001B6822491846FEF7F1FE03461846FFF792
:10158C003DF80346DAB21E4B1A701D4B1B781846F9
:10159C00FFF786FB1EE0144B1B78002B1AD0134B65
:1015AC001B783969104A12781846FFF779F807F159
:1015BC000F031846FFF7BAF8FB7B762B0AD10D4BBD
:1015CC0003221A700E4B64221A700D4B1B781846AE
:1015DC00FFF766FB002318461C37BD4690BD00BFC5
:1015EC00CC040020D4040020D6040020D004002019
:1015FC00D2040020DD040020D80400200000C842E2
:10160C00DC04002080B584B000AF78600023FB734D
:10161C000020FFF797FA144B1B7837211846FFF779
:10162C000DF807F10F031846FFF780F8FB7B772BBB
:10163C0005D10E4B00221A700520FFF7C9FA0C4B8E
:10164C0000221A60084B00221A700A4B00221A80E2
:10165C00094B00221A80094B00221A7000231846ED
:10166C001037BD4680BD00BFD0040020DD04002033
:10167C00CC040020D2040020D4040020D604002086
:10168C0080B586B000AFF860B9607A600023FB7556
:10169C00F868FFF73DF90346FB75B868FFF77CF96E
:1016AC000346FB757868FFF79BF90346FB75FB7DDA
:1016BC0018461837BD4680BD80B485B000AFF860C1
:1016CC00B9607A60FB68DAB27B681A70FB681A0A38
:1016DC007B680133D2B21A70FB681A0C7B68023338
:1016EC00D2B21A70FB681A0E7B680333D2B21A702E
:1016FC007B680433BA68D2B21A70BB681A0A7B686A
:10170C000533D2B21A70BB681A0C7B680633D2B29E
:10171C001A70BB681A0E7B680733D2B21A7000239A
:10172C0018461437BD4680BC7047000080B483B0A7
:10173C0000AF786039607B681A78064B1A703B688A
:10174C001B68054A1360002318460C37BD4680BC45
:10175C00704700BFD0040020CC04002080B500AF3F
:10176C00074B00221A70074B00221A70064B0022FE
:10177C001A70FFF7DBFA00F0B3F800BF80BD00BFB2
:10178C00F0040020F2040020F304002080B582B0A5
:10179C0000AF4F4B1B78062B00F28E8001A252F843
:1017AC0023F000BFCD170008F5170008FB17000841
:1017BC00171800083918000873180008A318000837
:1017CC004448FFF727FA03467B717B79002B75D1D0
:1017DC00404B1B78012B71D100F002FA00F0A0F8FD
:1017EC003B4B01221A7069E000F002FA6BE000F04A
:1017FC00F7F900F041F90120FFF730FA0220FFF76A
:10180C00E7F9334B04221A705DE000F0E9F902208D
:10181C00FFF724FA0220FFF7DBF92D4B00221A7098
:10182C002D4B00221A7000F05BF84CE02B48FFF7B0
:10183C0059FA0346BB71BB79002B41D1274B1B785E
:10184C00184600F04DF9254B1B78642B38D14FF41A
:10185C00FA6000F06DFD00F0C3F900F097F91C4B35
:10186C0005221A702CE01B48FFF7D4F90346FB71D4
:10187C00FB79002B26D1174B1B78052B22D100F0BE
:10188C00AFF900F059F94FF4FA6000F051FD104B2C
:10189C0006221A7016E00E4B00221A700E4B002214
:1018AC001A700E4B00221A7000F09AF900F018F81A
:1018BC000020FFF78DF906E000BF04E000BF02E056
:1018CC0000BF00E000BF00BF0837BD4680BD00BFB1
:1018DC00F0040020F1040020F2040020F3040020A6
:1018EC0080B500AF0A210020FFF788FB01220849D0
:1018FC000848FFF719FC1E210520FFF77FFB01228A
:10190C0005490648FFF710FCFFF7D4FA00BF80BD6D
:10191C000800002088590008000000209459000895
:10192C0080B584B000AF0023BB730023BB6007F10C
:10193C000E031846FEF7ECFF07F108031846FFF7F5
:10194C002BF8BB683F4AA2FB03239B09DBB21E3377
:10195C00FB7300211420FFF751FB01223A493B484D
:10196C00FFF7E2FB0A211420FFF748FB012236495E
:10197C003748FFF7D9FBBB7B012B02D0022B0AD0D7
:10198C0013E014211420FFF739FB01222E493148B2
:10199C00FFF7CAFB13E014211420FFF72FFB0122E1
:1019AC0029492D48FFF7C0FB09E014211420FFF74B
:1019BC0025FB012224492948FFF7B6FB00BFFA7B1F
:1019CC003B1D2749184603F01BFB1E211420FFF773
:1019DC0015FB01221C492348FFF7A6FB1E215F20A3
:1019EC00FFF70CFB3B1D012217491846FFF79CFB28
:1019FC001E216E20FFF702FB012213491A48FFF744
:101A0C0093FB28211E20FFF7F9FA01220E491748F3
:101A1C00FFF78AFB32211E20FFF7F0FA01220A4958
:101A2C001348FFF781FB28211420FFF7E7FA012266
:101A3C0005491048FFF778FBFFF73CFA00BF103759
:101A4C00BD4680BDD34D621000000020A85900088F
:101A5C00B8590008C8590008D8590008E8590008B6
:101A6C00F4590008F8590008045A0008085A0008EC
:101A7C00105A0008185A000880B500AF0A21282017
:101A8C00FFF7BCFA012211491148FFF74DFB142155
:101A9C002820FFF7B3FA01220C490E48FFF744FB4C
:101AAC001E212820FFF7AAFA012208490A48FFF74D
:101ABC003BFB28213220FFF7A1FA012203490748FA
:101ACC00FFF732FBFFF7F6F900BF80BD00000020E6
:101ADC001C5A0008285A0008305A00083C5A0008C2
:101AEC0080B584B000AF0346FB71FA7907F10C03A3
:101AFC000E49184603F084FA28213220FFF77EFAAB
:101B0C0001220B490B48FFF70FFB28213220FFF76E
:101B1C0075FA07F10C03012205491846FFF704FB7F
:101B2C00FFF7C8F900BF1037BD4680BDF459000857
:101B3C0000000020445A000880B500AF0A2128207C
:101B4C00FFF75CFA01220D490D48FFF7EDFA14215D
:101B5C002320FFF753FA012208490A48FFF7E4FA59
:101B6C001E213220FFF74AFA012204490648FFF7EA
:101B7C00DBFAFFF79FF900BF80BD00BF000000201B
:101B8C001C5A00084C5A0008585A000880B500AF7F
:101B9C000A212820FFF732FA01220D490D48FFF7E0
:101BAC00C3FA14212820FFF729FA012208490A4810
:101BBC00FFF7BAFA1E212820FFF720FA0122044968
:101BCC000648FFF7B1FAFFF775F900BF80BD00BFFB
:101BDC0000000020605A00086C5A0008785A00086F
:101BEC0080B500AFFFF7C5FAFFF764F900BF80BD01
:101BFC0080B500AF0221334801F0D0FA0346002B28
:101C0C003AD100BF02212F4801F0C8FA0346002B3D
:101C1C00F8D02D4B1B78002B15D11E211420FFF76B
:101C2C00EDF9012229492A48FFF77EFA28211420D0
:101C3C00FFF7E4F9012225492648FFF775FA224BF4
:101C4C0001221A7018E0204B1B78012B14D11E2195
:101C5C001420FFF7D3F901221C491E48FFF764FA40
:101C6C0028211420FFF7CAF9012218491848FFF758
:101C7C005BFA154B00221A70FFF71CF9642000F078
:101C8C0057FB04210F4801F089FA0346002BB1D110
:101C9C0000BF04210B4801F081FA0346002BF8D059
:101CAC00094B1B78002B03D10B4B02221A7006E058
:101CBC00054B1B78012B9DD1074B03221A7000BFDB
:101CCC0080BD00BF00080140F2040020000000208D
:101CDC00845A0008185A0008F004002080B582B01D
:101CEC0000AF0023FB7100F0C1FA00F033F800F0F4
:101CFC0001F900F075F800F0CFF8154800F000FD80
:101D0C00FFF7D8FAFEF734FDFFF728FD0320FEF7A6
:101D1C005FFF0120FEF788FE0120FEF7D7FD1020A3
:101D2C00FEF71AFEFB1D1846FEF774FFFB79022B1B
:101D3C000AD0FB79032B02D1FEF728FD04E0FB79D6
:101D4C00042B01D1FFF7FCFAFFF720FDEAE700BFF7
:101D5C00F404002080B590B000AF07F118032822DE
:101D6C000021184603F06CF93B1D00221A605A60E2
:101D7C009A60DA601A610123BB614FF48033FB6116
:101D8C0000233B620123BB6202237B634FF480334D
:101D9C00BB634FF4E013FB6307F11803184601F023
:101DAC00F7FF0346002B01D000F00AF90F237B60EC
:101DBC000223BB600023FB604FF480633B61002374
:101DCC007B613B1D0221184602F064FA0346002B8E
:101DDC0001D000F0F5F800BF4037BD4680BD0000D3
:101DEC0080B500AF294B2A4A1A60284B04225A604E
:101DFC00264B00229A60254B0022DA60234B4FF4CD
:101E0C0060221A61214B4FF480125A611F4B002241
:101E1C001A761E4B00225A761C4B00229A761B4BCC
:101E2C000022DA76194B00221A77184B00225A77C7
:101E3C00164800F0A1FA0346002B01D000F0C0F8C0
:101E4C00144B01221A62134B00225A61114B0022CF
:101E5C001A61104B4FF400721A600E4B00225A603C
:101E6C000C4B4FF400729A600A4B0022DA60094B5B
:101E7C0000229A61074B0122DA61064B0A225A6250
:101E8C000449024800F073FB00BF80BDF40400203D
:101E9C0000640040B805002080B500AF124B134A17
:101EAC001A60114B124A5A600F4B00229A600E4B6B
:101EBC000022DA600C4B4FF480421A610A4B00226C
:101ECC005A61094B00229A61074B0022DA61064BDA
:101EDC0000221A62044801F091F90346002B01D04C
:101EEC0000F06EF800BF80BD1C05002000540040BF
:101EFC00801A060080B588B000AF07F110030022ED
:101F0C001A605A609A60DA602A4B9B69294A43F03E
:101F1C0010039361274B9B6903F01003FB60FB6874
:101F2C00244B9B69234A43F020039361214B9B690B
:101F3C0003F02003BB60BB681E4B9B691D4A43F03A
:101F4C00040393611B4B9B6903F004037B607B6868
:101F5C00184B9B69174A43F008039361154B9B6917
:101F6C0003F008033B603B6800224FF40051124819
:101F7C0001F02BF94FF400533B6101237B610023EB
:101F8C00BB610223FB6107F1100319460A4800F0FC
:101F9C0081FF06233B6100237B610123BB6107F1B9
:101FAC0010031946054800F075FF00BF2037BD46E9
:101FBC0080BD00BF0010024000100140000801402D
:101FCC0080B400AF72B600BFFEE7000080B485B0ED
:101FDC0000AF154B9B69144A43F001039361124BFC
:101FEC009B6903F00103BB60BB680F4BDB690E4AB6
:101FFC0043F08053D3610C4BDB6903F080537B605F
:10200C007B680A4B5B68FB60FB6823F0E063FB605A
:10201C00FB6843F00073FB60044AFB68536000BF2D
:10202C001437BD4680BC70470010024000000140D0
:10203C0080B588B000AF786007F1100300221A60F9
:10204C005A609A60DA607B681B681C4A934231D1F3
:10205C001B4BDB691A4A43F00073D361184BDB69E5
:10206C0003F00073FB60FB68154B9B69144A43F04B
:10207C0004039361124B9B6903F00403BB60BB68C0
:10208C004FF400633B6100237B610023BB6107F1CC
:10209C00100319460B4800F0FDFE4FF480533B61D2
:1020AC0002237B610323FB6107F1100319460548EA
:1020BC0000F0F0FE00BF2037BD4680BD006400403C
:1020CC00001002400008014080B588B000AF786075
:1020DC0007F1100300221A605A609A60DA607B687C
:1020EC001B68154A934223D1144B9B69134A43F046
:1020FC0008039361114B9B6903F00803FB60FB68B9
:10210C00C0233B6112237B610323FB6107F11003A6
:10211C0019460B4800F0BEFE084BDB69074A43F436
:10212C000013D361054BDB6903F40013BB60BB6880
:10213C0000BF2037BD4680BD005400400010024057
:10214C00000C014080B400AFFEE780B400AFFEE7A6
:10215C0080B400AFFEE780B400AFFEE780B400AF00
:10216C00FEE780B400AF00BFBD4680BC704780B4B2
:10217C0000AF00BFBD4680BC704780B400AF00BF4D
:10218C00BD4680BC704780B500AF00F0B5F800BF0D
:10219C0080BD000080B500AF024802F079FA00BFA4
:1021AC0080BD00BF7005002080B586B000AF7860A0
:1021BC00144A154BD31A7B617B693B61134B1B682B
:1021CC00002B02D1114B124A1A60104B1A687B6813
:1021DC0013443A699A4207D202F03AFF03460C22A2
:1021EC001A604FF0FF3309E0084B1B68FB60074B8C
:1021FC001A687B681344054A1360FB681846183745
:10220C00BD4680BD005000200004000028060020C0
:10221C007807002080B400AF00BFBD4680BC70477B
:10222C00FFF7F8FF0B480C490C4A002302E0D45886
:10223C00C4500433C4188C42F9D3094A094C002306
:10224C0001E013600432A242FBD302F007FFFFF758
:10225C0045FD7047000000206C000020B86F00089E
:10226C006C00002078070020FEE7000080B500AF6E
:10227C00084B1B68074A43F010031360032000F05F
:10228C0023FD0F2000F008F8FFF7A0FE00231846EE
:10229C0080BD00BF0020024080B582B000AF7860E6
:1022AC00124B1A68124B1B7819464FF47A73B3FB16
:1022BC00F1F3B2FBF3F3184600F02DFD0346002BAF
:1022CC0001D001230EE07B680F2B0AD8002279681D
:1022DC004FF0FF3000F003FD064A7B6813600023CB
:1022EC0000E0012318460837BD4680BD10000020D1
:1022FC00180000201400002080B400AF054B1B78A0
:10230C001A46054B1B681344034A136000BFBD46B5
:10231C0080BC7047180000202C06002080B400AF51
:10232C00024B1B681846BD4680BC70472C0600202B
:10233C0080B584B000AF7860FFF7F0FFB8607B68C1
:10234C00FB60FB68B3F1FF3F05D00A4B1B781A46C4
:10235C00FB681344FB6000BFFFF7E0FF0246BB685D
:10236C00D31AFA689A42F7D800BF00BF1037BD469F
:10237C0080BD00BF1800002080B584B000AF78602D
:10238C007B68002B01D10123EDE07B6893F82030B2
:10239C00DBB2002B02D17868FFF74AFE7B681B6822
:1023AC001A687B681B6842F001021A60FFF7B6FFDF
:1023BC00F86012E0FFF7B2FF0246FB68D31A0A2B53
:1023CC000BD97B685B6A43F400327B685A627B688A
:1023DC00052283F820200123C5E07B681B685B681D
:1023EC0003F00103002BE5D07B681B681A687B683F
:1023FC001B6822F002021A60FFF790FFF86012E0EF
:10240C00FFF78CFF0246FB68D31A0A2B0BD97B68AB
:10241C005B6A43F400327B685A627B68052283F85E
:10242C00202001239FE07B681B685B6803F002039C
:10243C00002BE5D17B681B7E012B08D17B681B68C8
:10244C001A687B681B6842F080021A6007E07B68A0
:10245C001B681A687B681B6822F080021A607B6814
:10246C005B7E012B08D17B681B681A687B681B6834
:10247C0042F040021A6007E07B681B681A687B68B0
:10248C001B6822F040021A607B689B7E012B08D1EE
:10249C007B681B681A687B681B6842F020021A6014
:1024AC0007E07B681B681A687B681B6822F02002B7
:1024BC001A607B68DB7E012B08D17B681B681A686D
:1024CC007B681B6822F010021A6007E07B681B68AF
:1024DC001A687B681B6842F010021A607B681B7FCD
:1024EC00012B08D17B681B681A687B681B6842F05B
:1024FC0008021A6007E07B681B681A687B681B6817
:10250C0022F008021A607B685B7F012B08D17B6884
:10251C001B681A687B681B6842F004021A6007E0AB
:10252C007B681B681A687B681B6822F004021A60BF
:10253C007B689A687B68DB681A437B681B691A4363
:10254C007B685B6942EA03017B685B685A1E7B68A7
:10255C001B680A43DA617B6800225A627B6801229D
:10256C0083F82020002318461037BD4680BD80B468
:10257C0087B000AF786039607B681B687B617B68D3
:10258C0093F82030FB74FB7C012B03D0FB7C022BDB
:10259C0040F0AA807B69D3F8003243F001027B69DA
:1025AC00C3F800223B685B6903F01F03012202FAA7
:1025BC0003F3FB607B69D3F81C22FB68DB431A40F6
:1025CC007B69C3F81C223B68DB69002B23D17B6938
:1025DC00D3F80C22FB68DB431A407B69C3F80C224E
:1025EC003B68DB6819043B685B689BB23A685269CC
:1025FC0019437B69483243F832103B689B681904D5
:10260C003B681B689AB23B685B690A43796948333B
:10261C00DB000B445A603B68DB69012B22D17B69E0
:10262C00D3F80C22FB681A437B69C3F80C223B6875
:10263C001B6819043B685B689BB23A685269194382
:10264C007B69483243F832103B689B6819043B683D
:10265C00DB689AB23B685B690A4379694833DB00F3
:10266C000B445A603B689B69002B09D17B69D3F8FA
:10267C000422FB68DB431A407B69C3F8042207E0A1
:10268C007B69D3F80422FB681A437B69C3F80422E4
:10269C003B681B69002B09D17B69D3F81422FB68BA
:1026AC00DB431A407B69C3F8142207E07B69D3F83B
:1026BC001422FB681A437B69C3F814223B681B6A1B
:1026CC00012B07D17B69D3F81C22FB681A437B6969
:1026DC00C3F81C227B69D3F8003223F001027B691A
:1026EC00C3F80022002306E07B685B6A43F4802277
:1026FC007B685A62012318461C37BD4680BC704764
:10270C0080B584B000AF78607B6893F82030DBB282
:10271C00012B2ED17B68022283F820207B681B685A
:10272C001A687B681B6822F001021A60FFF7F6FD3D
:10273C00F86012E0FFF7F2FD0246FB68D31A0A2B91
:10274C000BD97B685B6A43F400327B685A627B6806
:10275C00052283F82020012312E07B681B685B684C
:10276C0003F00103002BE5D17B6800225A620023A1
:10277C0006E07B685B6A43F400227B685A620123A3
:10278C0018461037BD4680BD80B489B000AFF860E4
:10279C00B9607A603B60FB6893F82030FB77FB688C
:1027AC001B689B68BB61FB7F012B03D0FB7F022B5B
:1027BC0040F0AD80BB6903F08063002B0AD1BB698C
:1027CC0003F00063002B05D1BB6903F08053002B91
:1027DC0000F09580BB691B0E03F003037B610122A3
:1027EC007B699A403B681A60BB689B68002B0DD1D3
:1027FC00BB681B685A05BB68DB68F96809681A4333
:10280C007B6918331B010B441A600FE0BB685B68D3
:10281C00DA00BB689B681A43BB68DB68F968096817
:10282C001A437B6918331B010B441A60FB68196847
:10283C00BB681A697B6918331B010B4404331A609B
:10284C00BB681B7D012B11D1FB681A687B6918339F
:10285C001B01134404331B68FA68116843F480723B
:10286C007B6918331B010B4404331A607B680733F4
:10287C001B781A067B6806331B781B041A437B688B
:10288C0005331B781B0213437A6804321278104606
:10289C00FA68116843EA00027B691B010B4403F5DB
:1028AC00C6731A607B6803331B781A067B68023385
:1028BC001B781B041A437B6801331B781B021343E0
:1028CC007A6812781046FA68116843EA00027B694C
:1028DC001B010B4403F5C4731A60FB681A687B690F
:1028EC0018331B0113441B68FA68116843F001028A
:1028FC007B6918331B010B441A6000230EE0FB6844
:10290C005B6A43F40012FB685A62012306E0FB6821
:10291C005B6A43F48022FB685A6201231846243711
:10292C00BD4680BC704780B487B000AFF860B9601A
:10293C007A603B60FB6893F82030FB75FB7D012BC4
:10294C0003D0FB7D022B40F00381BB68002B0ED122
:10295C00FB681B68DB6803F00303002B16D1FB68D4
:10296C005B6A43F40012FB685A620123F7E0FB68D0
:10297C001B681B6903F00303002B07D1FB685B6A20
:10298C0043F40012FB685A620123E8E0FB681A6802
:10299C00BB681B331B0113441B6803F004027B68E8
:1029AC009A607B689B68002B0CD1FB681A68BB682B
:1029BC001B331B0113441B685B0DC3F30A027B68BA
:1029CC001A600BE0FB681A68BB681B331B011344CD
:1029DC001B68DB0823F060427B685A60FB681A684E
:1029EC00BB681B331B0113441B6803F002027B689A
:1029FC00DA60FB681A68BB681B331B011344043391
:102A0C001B6803F00803002B03D07B6808221A61B3
:102A1C000BE0FB681A68BB681B331B0113440433BF
:102A2C001B6803F00F027B681A61FB681A68BB68AD
:102A3C001B331B01134404331B681B0ADAB27B687B
:102A4C009A61FB681A68BB681B331B01134404337F
:102A5C001B681B0C9AB27B685A61FB681A68BB68CE
:102A6C001B01134403F5DC731B68DAB23B681A7064
:102A7C00FB681A68BB681B01134403F5DC731B6805
:102A8C001A0A3B680133D2B21A70FB681A68BB6829
:102A9C001B01134403F5DC731B681A0C3B680233EF
:102AAC00D2B21A70FB681A68BB681B01134403F599
:102ABC00DC731B681A0E3B680333D2B21A70FB68C6
:102ACC001A68BB681B01134403F5DE731A683B6874
:102ADC000433D2B21A70FB681A68BB681B0113442A
:102AEC0003F5DE731B681A0A3B680533D2B21A7001
:102AFC00FB681A68BB681B01134403F5DE731B6883
:102B0C001A0C3B680633D2B21A70FB681A68BB68A1
:102B1C001B01134403F5DE731B681A0E3B68073365
:102B2C00D2B21A70BB68002B08D1FB681B68DA683C
:102B3C00FB681B6842F02002DA6007E0FB681B6848
:102B4C001A69FB681B6842F020021A61002306E038
:102B5C00FB685B6A43F48022FB685A6201231846C7
:102B6C001C37BD4680BC704780B485B000AF786020
:102B7C007B6803F00703FB600C4BDB68BB60BA6837
:102B8C004FF6FF031340BB60FB681A02BB6813438C
:102B9C0043F0BF6343F40033BB60044ABB68D360AB
:102BAC0000BF1437BD4680BC704700BF00ED00E08D
:102BBC0080B400AF044BDB681B0A03F00703184614
:102BCC00BD4680BC704700BF00ED00E080B483B010
:102BDC0000AF03463960FB7197F90730002B0ADB15
:102BEC003B68DAB20C4997F907301201D2B20B44A8
:102BFC0083F800230AE03B68DAB20849FB7903F05A
:102C0C000F03043B1201D2B20B441A7600BF0C37EF
:102C1C00BD4680BC704700BF00E100E000ED00E065
:102C2C0080B489B000AFF860B9607A60FB6803F0DB
:102C3C000703FB61FB69C3F10703042B28BF0423C3
:102C4C00BB61FB690433062B02D9FB69033B00E033
:102C5C0000237B614FF0FF32BB6902FA03F3DA43C6
:102C6C00BB681A407B699A404FF0FF317B6901FACF
:102C7C0003F3D9437B680B40134318462437BD46F6
:102C8C0080BC704780B582B000AF78607B68013B38
:102C9C00B3F1807F01D301230FE00A4A7B68013B2B
:102CAC0053600F214FF0FF30FFF790FF054B0022D0
:102CBC009A60044B07221A60002318460837BD4659
:102CCC0080BD00BF10E000E080B582B000AF78603E
:102CDC007868FFF749FF00BF0837BD4680BD80B557
:102CEC0086B000AF0346B9607A60FB7300237B614A
:102CFC00FFF75EFF78617A68B9687869FFF790FF33
:102D0C00024697F90F3011461846FFF75FFF00BFD8
:102D1C001837BD4680BD80B582B000AF786078684A
:102D2C00FFF7B0FF034618460837BD4680BD80B498
:102D3C0085B000AF78600023FB737B6893F821307B
:102D4C00DBB2022B08D07B6804229A637B680022DA
:102D5C0083F82020012320E07B681B681A687B68BD
:102D6C001B6822F00E021A607B681B681A687B686D
:102D7C001B6822F001021A607B681A6C7B68DB6BA3
:102D8C00012101FA02F25A607B68012283F82120AA
:102D9C007B68002283F82020FB7B18461437BD4645
:102DAC0080BC704780B584B000AF78600023FB73A3
:102DBC007B6893F82130DBB2022B05D07B680422B0
:102DCC009A630123FB7351E07B681B681A687B686C
:102DDC001B6822F00E021A607B681B681A687B68FD
:102DEC001B6822F001021A607B681B68224A93421E
:102DFC0029D07B681B68214A934222D07B681B68D0
:102E0C001F4A93421AD07B681B681E4A934212D009
:102E1C007B681B681C4A93420AD07B681B681B4A60
:102E2C00934202D14FF480130EE04FF080730BE00D
:102E3C004FF4803308E04FF4805305E04FF4807377
:102E4C0002E0102300E00123114A53607B68012249
:102E5C0083F821207B68002283F820207B685B6B41
:102E6C00002B03D07B685B6B78689847FB7B18461C
:102E7C001037BD4680BD00BF080002401C00024058
:102E8C003000024044000240580002406C000240F6
:102E9C000000024080B48BB000AF78603960002332
:102EAC007B6200233B6269E101227B6A02FA03F335
:102EBC00FB613B681B68FA691340BB61BA69FB692B
:102ECC009A4240F058813B685B689A4A93425ED0C4
:102EDC00984A934275D8984A934258D0964A93424E
:102EEC006FD8964A934252D0944A934269D8944AE6
:102EFC0093424CD0924A934263D8924A934246D022
:102F0C00904A93425DD8122B2AD8122B59D801A281
:102F1C0052F823F09B2F0008752F0008872F00080C
:102F2C00C92F0008CF2F0008CF2F0008CF2F000883
:102F3C00CF2F0008CF2F0008CF2F0008CF2F00086D
:102F4C00CF2F0008CF2F0008CF2F0008CF2F00085D
:102F5C00CF2F0008CF2F00087D2F0008912F0008DD
:102F6C00794A934213D02CE03B68DB683B6229E042
:102F7C003B68DB6804333B6224E03B68DB68083366
:102F8C003B621FE03B68DB680C333B621AE03B683A
:102F9C009B68002B02D104233B6213E03B689B68C7
:102FAC00012B05D108233B627B68FA691A6109E0A1
:102FBC0008233B627B68FA695A6103E000233B6299
:102FCC0000E000BFBB69FF2B01D87B6801E07B6888
:102FDC0004337B61BB69FF2B02D87B6A9B0002E048
:102FEC007B6A083B9B003B617B691A680F213B693C
:102FFC0001FA03F3DB431A40396A3B6901FA03F324
:10300C001A437B691A603B685B6803F08053002BA2
:10301C0000F0B1804D4B9B694C4A43F00103936126
:10302C004A4B9B6903F00103BB60BB68484A7B6A4F
:10303C009B08023352F82330FB607B6A03F00303D6
:10304C009B000F2202FA03F3DB43FA681340FB6088
:10305C007B68404A934213D07B683F4A93420DD021
:10306C007B683E4A934207D07B683D4A934201D12C
:10307C00032306E0042304E0022302E0012300E022
:10308C0000237A6A02F0030292009340FA68134319
:10309C00FB602F497B6A9B080233FA6841F82320B6
:1030AC003B685B6803F48013002B06D02D4B9A68A9
:1030BC002C49BB6913438B6006E02A4B9A68BB69A9
:1030CC00DB43284913408B603B685B6803F40013B7
:1030DC00002B06D0234BDA682249BB691343CB6023
:1030EC0006E0204BDA68BB69DB431E491340CB601A
:1030FC003B685B6803F40033002B06D0194B5A680D
:10310C001849BB6913434B6006E0164B5A68BB6900
:10311C00DB43144913404B603B685B6803F480331A
:10312C00002B21D00F4B1A680E49BB6913430B605F
:10313C0021E000BF0000321000003110000022100E
:10314C0000002110000012100000111000100240AD
:10315C000000014000080140000C0140001001403B
:10316C0000140140000401400B4B1A68BB69DB439F
:10317C00094913400B607B6A01337B623B681A6818
:10318C007B6A22FA03F3002B7FF48EAE00BF00BFE4
:10319C002C37BD4680BC70470004014080B485B01C
:1031AC0000AF78600B467B807B689A687B88134005
:1031BC00002B02D00123FB7301E00023FB73FB7B8C
:1031CC0018461437BD4680BC704780B483B000AF3E
:1031DC0078600B467B8013467B707B78002B03D08A
:1031EC007A887B681A6103E07B881A047B681A6111
:1031FC0000BF0C37BD4680BC7047000080B584B062
:10320C0000AF78607B68002B01D101232BE17B6838
:10321C0093F83D30DBB2002B06D17B68002283F89B
:10322C003C207868FEF750FF7B68242283F83D2011
:10323C007B681B681A687B681B6822F001021A60A5
:10324C007B681B681A687B681B6842F400421A6032
:10325C007B681B681A687B681B6822F400421A6042
:10326C0001F060F9F8607B685B68814A934207D88B
:10327C00FB68804A934294BF01230023DBB206E033
:10328C00FB687D4A934294BF01230023DBB2002BE1
:10329C0001D00123E7E0FB68784AA2FB03239B0CD7
:1032AC00BB607B681B685B6823F03F017B681B6815
:1032BC00BA680A435A607B681B681B6A23F03F019B
:1032CC007B685B686A4A934202D8BB68013309E0A9
:1032DC00BB684FF4967202FB03F3694AA2FB03230B
:1032EC009B0901337A6812680B4313627B681B6875
:1032FC00DB6923F44F4222F0FF027B685B685C4978
:10330C008B4219D8FB68591E7B685B685B00B1FB6C
:10331C00F3F3591C40F6FC730B40002B0AD0FB68EE
:10332C00591E7B685B685B00B1FBF3F30133C3F39D
:10333C000B0351E004234FE07B689B68002B11D1F9
:10334C00FB68581E7B6859680B465B000B44B0FB4E
:10335C00F3F30133C3F30B03002B0CBF0123002346
:10336C00DBB212E0FB68581E7B6859680B469B0069
:10337C000B4499000B44B0FBF3F30133C3F30B0381
:10338C00002B0CBF01230023DBB2002B01D0012347
:10339C0022E07B689B68002B0ED1FB68581E7B6873
:1033AC0059680B465B000B44B0FBF3F30133C3F3DA
:1033BC000B0343F400430FE0FB68581E7B6859680D
:1033CC000B469B000B4499000B44B0FBF3F3013309
:1033DC00C3F30B0343F44043796809681343CB618F
:1033EC007B681B681B6823F0C0017B68DA697B680B
:1033FC001B6A1A437B681B680A431A607B681B684C
:10340C009B6823F4034323F0FF037A6811697A68FD
:10341C00D26811437A6812680B4393607B681B680F
:10342C00DB6823F0FF017B685A697B689B691A4350
:10343C007B681B680A43DA607B681B681A687B68C8
:10344C001B6842F001021A607B6800221A647B68D8
:10345C00202283F83D207B6800221A637B680022BF
:10346C0083F83E20002318461037BD4680BD00BFB0
:10347C00A08601007F841E00FF083D0083DE1B43F5
:10348C00D34D621080B588B002AFF8607A601A46EE
:10349C000B467B8113463B81FEF740FF7861FB684E
:1034AC0093F83D30DBB2202B40F0E0807B69009339
:1034BC00192301227049F86800F092FA0346002B98
:1034CC0001D00223D3E0FB6893F83C30012B01D1EF
:1034DC000223CCE0FB68012283F83C20FB681B68CC
:1034EC001B6803F00103012B07D0FB681B681A68EB
:1034FC00FB681B6842F001021A60FB681B681A68C3
:10350C00FB681B6822F400621A60FB68212283F8B6
:10351C003D20FB68102283F83E20FB6800221A64D1
:10352C00FB687A685A62FB683A895A85FB685B8D3E
:10353C009AB2FB681A85FB68504ADA6279897B6912
:10354C003A6AF86800F0CAF90346002B01D001234F
:10355C008DE000233B61FB681B685B693B61FB688A
:10356C001B689B693B613B6966E07A69396AF8685C
:10357C0000F050FB0346002B0DD0FB681B6C042B9A
:10358C0007D1FB681B681A68FB681B6842F4007261
:10359C001A6001236BE0FB685B6A1A78FB681B6896
:1035AC001A61FB685B6A5A1CFB685A62FB685B8D8C
:1035BC009BB2013B9AB2FB685A85FB681B8D013BA1
:1035CC009AB2FB681A85FB681B685B6903F00403FD
:1035DC00042B1BD1FB681B8D002B17D0FB685B6A7F
:1035EC001A78FB681B681A61FB685B6A5A1CFB68DB
:1035FC005A62FB685B8D9BB2013B9AB2FB685A85A1
:10360C00FB681B8D013B9AB2FB681A857A69396A93
:10361C00F86800F047FB0346002B0DD0FB681B6CD1
:10362C00042B07D1FB681B681A68FB681B6842F403
:10363C0000721A6001231AE0FB681B8D002B94D1D9
:10364C00FB681B681A68FB681B6842F400721A60FE
:10365C00FB68202283F83D20FB68002283F83E2083
:10366C00FB68002283F83C20002300E0022318466C
:10367C001837BD4680BD00BF020010000000FFFFE0
:10368C0080B58AB002AFF8607A603B600B467B81F4
:10369C00FEF744FEF8610023BB61FB6893F83D30F4
:1036AC00DBB2202B40F01181FB690093192301221E
:1036BC008849F86800F094F90346002B01D00223E6
:1036CC0004E1FB6893F83C30012B01D10223FDE0AF
:1036DC00FB68012283F83C20FB681B681B6803F025
:1036EC000103012B07D0FB681B681A68FB681B6879
:1036FC0042F001021A60FB681B681A68FB681B68C1
:10370C0022F400621A60FB68242283F83D20FB68D7
:10371C0000221A64FB68704ADA62FB681B681A683C
:10372C00FB681B6842F480721A60FB6900933B686B
:10373C0000224FF00111F86800F052F90346002BFB
:10374C000DD0FB681B681B6803F48073B3F5807F96
:10375C0003D1FB684FF400721A640323B6E07B8933
:10376C00DBB21A46FB681B6802F0FE021A61FEF718
:10377C00D5FDF861FB681B685B6903F00203022B43
:10378C000CBF01230023DBB2FB75FB681B685B6974
:10379C0003F48063B3F5806F0CBF01230023DBB20D
:1037AC00BB7525E0FEF7BAFD0246FB69D31A3A68F1
:1037BC009A4202D33B68002B03D1FB68A02283F80A
:1037CC003D20FB681B685B6903F00203022B0CBFF6
:1037DC0001230023DBB2FB75FB681B685B6903F4F8
:1037EC008063B3F5806F0CBF01230023DBB2BB7584
:1037FC00FB6893F83D30DBB2A02B05D0FB7D002B92
:10380C0002D1BB7D002BCDD0FB68202283F83D205C
:10381C00FB681B685B6903F00203022B29D1FB6870
:10382C001B681A68FB681B6842F400721A6000235C
:10383C003B61FB681B685B693B61FB681B689B69B0
:10384C003B613B69FB690093192301222149F8680C
:10385C0000F0C6F80346002B01D0012336E0FB68CC
:10386C00202283F83D20FB68002283F83C200023B3
:10387C002CE0FB681B681A68FB681B6842F400723A
:10388C001A60FB681B686FF480625A61FB690093D5
:10389C00192301220F49F86800F0A2F80346002B07
:1038AC0001D0012312E0BB690133BB61BA697B68AB
:1038BC009A42FFF432AFFB68202283F83D20FB686C
:1038CC00002283F83C20012300E002231846203715
:1038DC00BD4680BD020010000000FFFF80B588B01F
:1038EC0002AFF8607A603B600B467B81FB68DB6A59
:1038FC007B617B69082B06D07B69012B03D07B692C
:10390C0013F5803F08D1FB681B681A68FB681B68BD
:10391C0042F480721A600BE0FB681B6B122B07D110
:10392C00FB681B681A68FB681B6842F480721A609B
:10393C003B6800937B6800224FF00111F86800F09F
:10394C004FF80346002B0DD0FB681B681B6803F473
:10395C008073B3F5807F03D1FB684FF400721A6457
:10396C00032335E0FB681B69B3F5804F08D17B89D5
:10397C00DBB21A46FB681B6802F0FE021A611BE000
:10398C007B89DB11DBB203F00603DBB263F00F03C0
:10399C00DAB2FB681B681A613B687A680E49F868F2
:1039AC0000F098F80346002B01D0012310E07B892E
:1039BC00DAB2FB681B681A613B687A680749F868D9
:1039CC0000F088F80346002B01D0012300E000230F
:1039DC0018461837BD4680BD0800010002000100E2
:1039EC0080B584B000AFF860B9603B601346FB71E2
:1039FC0048E03B68B3F1FF3F44D0FEF78FFC024632
:103A0C00BB69D31A3A689A4202D33B68002B39D16E
:103A1C00BB681B0CDBB2012B0DD1FB681B685B690F
:103A2C00DA43BB6813409BB2002B0CBF012300236D
:103A3C00DBB21A460CE0FB681B689B69DA43BB6877
:103A4C0013409BB2002B0CBF01230023DBB21A46A0
:103A5C00FB799A4216D1FB6800221A63FB6820227C
:103A6C0083F83D20FB68002283F83E20FB681B6C2A
:103A7C0043F02002FB681A64FB68002283F83C20A8
:103A8C00012323E0BB681B0CDBB2012B0DD1FB68BF
:103A9C001B685B69DA43BB6813409BB2002B0CBFFD
:103AAC0001230023DBB21A460CE0FB681B689B6900
:103ABC00DA43BB6813409BB2002B0CBF01230023DD
:103ACC00DBB21A46FB799A4293D000231846103782
:103ADC00BD4680BD80B584B000AFF860B9607A6037
:103AEC003B6071E0FB681B685B6903F48063B3F5B2
:103AFC00806F23D1FB681B681A68FB681B6842F453
:103B0C0000721A60FB681B686FF480625A61FB6874
:103B1C0000221A63FB68202283F83D20FB680022F8
:103B2C0083F83E20FB681B6C43F00402FB681A64AC
:103B3C00FB68002283F83C20012367E07B68B3F12B
:103B4C00FF3F41D0FEF7EAFB02463B68D31A7A6886
:103B5C009A4202D37B68002B36D1BB681B0CDBB2BC
:103B6C00012B0CD1FB681B685B69DA43BB68134003
:103B7C009BB2002B14BF01230023DBB20BE0FB68CC
:103B8C001B689B69DA43BB6813409BB2002B14BFC4
:103B9C0001230023DBB2002B16D0FB6800221A6332
:103BAC00FB68202283F83D20FB68002283F83E202E
:103BBC00FB681B6C43F02002FB681A64FB68002254
:103BCC0083F83C20012321E0BB681B0CDBB2012BEA
:103BDC000CD1FB681B685B69DA43BB6813409BB272
:103BEC00002B14BF01230023DBB20BE0FB681B6826
:103BFC009B69DA43BB6813409BB2002B14BF0123B3
:103C0C000023DBB2002B7FF46DAF00231846103776
:103C1C00BD4680BD80B584B000AFF860B9607A60F5
:103C2C0034E0F86800F086F80346002B01D001233D
:103C3C0034E0BB68B3F1FF3F28D0FEF76FFB0246C0
:103C4C007B68D31ABA689A4202D3BB68002B1DD189
:103C5C00FB681B685B6903F08003802B16D0FB6844
:103C6C0000221A63FB68202283F83D20FB680022A7
:103C7C0083F83E20FB681B6C43F02002FB681A643F
:103C8C00FB68002283F83C20012307E0FB681B68DB
:103C9C005B6903F08003802BC3D1002318461037D7
:103CAC00BD4680BD80B584B000AFF860B9607A6065
:103CBC0034E0F86800F03EF80346002B01D00123F5
:103CCC0034E0BB68B3F1FF3F28D0FEF727FB024678
:103CDC007B68D31ABA689A4202D3BB68002B1DD1F9
:103CEC00FB681B685B6903F00403042B16D0FB68AC
:103CFC0000221A63FB68202283F83D20FB68002217
:103D0C0083F83E20FB681B6C43F02002FB681A64AE
:103D1C00FB68002283F83C20012307E0FB681B684A
:103D2C005B6903F00403042BC3D10023184610373E
:103D3C00BD4680BD80B483B000AF78607B681B68E3
:103D4C005B6903F48063B3F5806F1BD17B681B68E0
:103D5C006FF480625A617B6800221A637B682022B0
:103D6C0083F83D207B68002283F83E207B681B6C27
:103D7C0043F004027B681A647B68002283F83C20C1
:103D8C00012300E0002318460C37BD4680BC704769
:103D9C0080B586B000AF78607B68002B01D1012321
:103DAC0072E27B681B6803F00103002B00F0878034
:103DBC00924B5B6803F00C03042B0CD08F4B5B68AD
:103DCC0003F00C03082B12D18C4B5B6803F480338B
:103DDC00B3F5803F0BD1894B1B6803F40033002BE8
:103DEC006CD07B685B68002B68D101234CE27B684C
:103DFC005B68B3F5803F06D1804B1B687F4A43F468
:103E0C00803313602EE07B685B68002B0CD17B4BFE
:103E1C001B687A4A23F480331360784B1B68774A0B
:103E2C0023F4802313601DE07B685B68B3F5A02F3F
:103E3C000CD1724B1B68714A43F4802313606F4B97
:103E4C001B686E4A43F4803313600BE06B4B1B68AA
:103E5C006A4A23F480331360684B1B68674A23F467
:103E6C00802313607B685B68002B13D0FEF756FA37
:103E7C00386108E0FEF752FA02463B69D31A642B0C
:103E8C0001D9032300E25D4B1B6803F40033002BC4
:103E9C00F0D014E0FEF742FA386108E0FEF73EFA83
:103EAC0002463B69D31A642B01D90323ECE1534B33
:103EBC001B6803F40033002BF0D100E000BF7B68DB
:103ECC001B6803F00203002B63D04C4B5B6803F0C0
:103EDC000C03002B0BD0494B5B6803F00C03082B35
:103EEC001CD1464B5B6803F48033002B16D1434B3B
:103EFC001B6803F00203002B05D07B681B69012BA8
:103F0C0001D00123C0E13D4B1B6823F0F8027B6814
:103F1C005B69DB00394913430B603AE07B681B6932
:103F2C00002B20D0364B01221A60FEF7F7F93861CE
:103F3C0008E0FEF7F3F902463B69D31A022B01D9CC
:103F4C000323A1E12D4B1B6803F00203002BF0D0DF
:103F5C002A4B1B6823F0F8027B685B69DB0027495E
:103F6C0013430B6015E0264B00221A60FEF7D6F9BE
:103F7C00386108E0FEF7D2F902463B69D31A022BEE
:103F8C0001D9032380E11D4B1B6803F00203002BB6
:103F9C00F0D17B681B6803F00803002B3AD07B68D8
:103FAC009B69002B19D0174B01221A60FEF7B6F94A
:103FBC00386108E0FEF7B2F902463B69D31A022BCE
:103FCC0001D9032360E10D4B5B6A03F00203002B64
:103FDC00F0D0012000F0BAFA1CE00A4B00221A6063
:103FEC00FEF79CF938610FE0FEF798F902463B6941
:103FFC00D31A022B08D9032346E100BF001002405C
:10400C000000424280044242924B5B6A03F002037E
:10401C00002BE9D17B681B6803F00403002B00F034
:10402C00A6800023FB758B4BDB6903F08053002BC0
:10403C000DD1884BDB69874A43F08053D361854BA4
:10404C00DB6903F08053BB60BB680123FB75824BBB
:10405C001B6803F48073002B18D17F4B1B687E4ABE
:10406C0043F480731360FEF759F9386108E0FEF7EA
:10407C0055F902463B69D31A642B01D9032303E19A
:10408C00754B1B6803F48073002BF0D07B68DB68E6
:10409C00012B06D16F4B1B6A6E4A43F0010313626E
:1040AC002DE07B68DB68002B0CD16A4B1B6A694ADC
:1040BC0023F001031362674B1B6A664A23F0040367
:1040CC0013621CE07B68DB68052B0CD1614B1B6A0F
:1040DC00604A43F0040313625E4B1B6A5D4A43F073
:1040EC00010313620BE05B4B1B6A5A4A23F001037A
:1040FC001362584B1B6A574A23F0040313627B6804
:10410C00DB68002B15D0FEF709F938610AE0FEF7E1
:10411C0005F902463B69D31A41F28832934201D920
:10412C000323B1E04B4B1B6A03F00203002BEED0D0
:10413C0014E0FEF7F3F838610AE0FEF7EFF80246F8
:10414C003B69D31A41F28832934201D903239BE095
:10415C00404B1B6A03F00203002BEED1FB7D012BBD
:10416C0005D13C4BDB693B4A23F08053D3617B6820
:10417C00DB69002B00F08780364B5B6803F00C0387
:10418C00082B61D07B68DB69022B46D1334B0022B4
:10419C001A60FEF7C3F8386108E0FEF7BFF8024674
:1041AC003B69D31A022B01D903236DE0294B1B6801
:1041BC0003F00073002BF0D17B681B6AB3F5803FD2
:1041CC0008D1244B5B6823F400327B689B6821493F
:1041DC0013434B601F4B5B6823F474127B68196AA2
:1041EC007B685B6A0B431B4913434B601B4B0122DF
:1041FC001A60FEF793F8386108E0FEF78FF8024674
:10420C003B69D31A022B01D903233DE0114B1B68E8
:10421C0003F00073002BF0D035E0104B00221A6035
:10422C00FEF77CF8386108E0FEF778F802463B6947
:10423C00D31A022B01D9032326E0064B1B6803F08B
:10424C000073002BF0D11EE07B68DB69012B07D1DA
:10425C00012319E00010024000700040600042424F
:10426C000B4B5B68FB60FB6803F480327B681B6A5A
:10427C009A4206D1FB6803F470127B685B6A9A421F
:10428C0001D0012300E0002318461837BD4680BD3D
:10429C000010024080B584B000AF786039607B6854
:1042AC00002B01D10123D0E06A4B1B6803F00703FC
:1042BC003A689A4210D9674B1B6823F0070265498C
:1042CC003B6813430B60634B1B6803F007033A68AE
:1042DC009A4201D00123B8E07B681B6803F002030B
:1042EC00002B20D07B681B6803F00403002B05D047
:1042FC00594B5B68584A43F4E06353607B681B6816
:10430C0003F00803002B05D0534B5B68524A43F46F
:10431C0060535360504B5B6823F0F0027B689B68E2
:10432C004D4913434B607B681B6803F00103002B62
:10433C0040D07B685B68012B07D1474B1B6803F4AB
:10434C000033002B15D101237FE07B685B68022BC7
:10435C0007D1414B1B6803F00073002B09D10123DB
:10436C0073E03D4B1B6803F00203002B01D10123CA
:10437C006BE0394B5B6823F003027B685B68364962
:10438C0013434B60FDF7CAFFF8600AE0FDF7C6FF68
:10439C000246FB68D31A41F28832934201D90323B7
:1043AC0053E02D4B5B6803F00C027B685B689B0051
:1043BC009A42EBD1274B1B6803F007033A689A42E9
:1043CC0010D2244B1B6823F0070222493B6813438D
:1043DC000B60204B1B6803F007033A689A4201D02C
:1043EC00012332E07B681B6803F00403002B08D028
:1043FC00194B5B6823F4E0627B68DB681649134356
:10440C004B607B681B6803F00803002B09D0124B30
:10441C005B6823F460527B681B69DB000E49134315
:10442C004B6000F021F802460B4B5B681B0903F054
:10443C000F030A49CB5C22FA03F3094A1360094BB8
:10444C001B681846FDF728FF002318461037BD4699
:10445C0080BD00BF0020024000100240506F0008D9
:10446C00100000201400002080B487B000AF00239F
:10447C00FB600023BB6000237B6100237B60002377
:10448C003B611E4B5B68FB60FB6803F00C03042B69
:10449C0002D0082B03D027E0194B3B6127E0FB68C7
:1044AC009B0C03F00F03174AD35C7B60FB6803F48F
:1044BC008033002B10D0114B5B685B0C03F00103B5
:1044CC00114AD35CBB607B680D4A03FB02F2BB68EC
:1044DC00B2FBF3F37B6104E07B680C4A02FB03F351
:1044EC007B617B693B6102E0054B3B6100BF3B6933
:1044FC0018461C37BD4680BC704700BF00100240F8
:10450C0000127A00686F0008786F000800093D00FF
:10451C0080B400AF024B1B681846BD4680BC704788
:10452C001000002080B500AFFFF7F2FF0246054BEC
:10453C005B681B0A03F007030349CB5C22FA03F305
:10454C00184680BD00100240606F000880B485B032
:10455C0000AF78600A4B1B680A4AA2FB03235B0A74
:10456C007A6802FB03F3FB6000BFFB685A1EFA601B
:10457C00002BF9D100BF00BF1437BD4680BC70477B
:10458C0010000020D34D621080B58AB002AFF860E5
:10459C00B9603B601346FB8000237B61FB6893F89A
:1045AC004130DBB2202B6DD1BB68002B02D0FB88D5
:1045BC00002B01D1012366E0FB6800225A64FB68E2
:1045CC00212283F84120FDF7A9FE7861FB68FA8867
:1045DC009A84FB68FA88DA84FB689B68B3F5805F81
:1045EC0008D1FB681B69002B04D10023FB61BB685D
:1045FC00BB6103E0BB68FB610023BB612AE03B6845
:10460C0000937B6900228021F86800F0F0FA0346E1
:10461C00002B01D0032336E0FB69002B0BD1BB69C7
:10462C001B881A46FB681B68C2F308025A60BB69F8
:10463C000233BB6107E0FB691A78FB681B685A60A0
:10464C00FB690133FB61FB68DB8C9BB2013B9AB2CB
:10465C00FB68DA84FB68DB8C9BB2002BCFD13B6808
:10466C0000937B6900224021F86800F0C0FA0346F1
:10467C00002B01D0032306E0FB68202283F84120A5
:10468C00002300E0022318462037BD4680BD000001
:10469C0080B5BAB000AF78607B681B681B68C7F840
:1046AC00E4307B681B68DB68C7F8E0307B681B680C
:1046BC005B69C7F8DC300023C7F8D8300023C7F893
:1046CC00D430D7F8E43003F00F03C7F8D830D7F85C
:1046DC00D830002B0FD1D7F8E43003F02003002B97
:1046EC0009D0D7F8E03003F02003002B03D0786812
:1046FC0000F0C8FB5BE2D7F8D830002B00F0DE806E
:10470C00D7F8DC3003F00103002B06D1D7F8E030EA
:10471C0003F49073002B00F0D180D7F8E43003F051
:10472C000103002B0BD0D7F8E03003F48073002B7F
:10473C0005D07B685B6C43F001027B685A64D7F848
:10474C00E43003F00403002B0BD0D7F8DC3003F07B
:10475C000103002B05D07B685B6C43F002027B6885
:10476C005A64D7F8E43003F00203002B0BD0D7F8CF
:10477C00DC3003F00103002B05D07B685B6C43F04D
:10478C0004027B685A64D7F8E43003F00803002B6A
:10479C0011D0D7F8E03003F02003002B05D1D7F867
:1047AC00DC3003F00103002B05D07B685B6C43F01D
:1047BC0008027B685A647B685B6C002B00F0F2810A
:1047CC00D7F8E43003F02003002B08D0D7F8E03002
:1047DC0003F02003002B02D0786800F053FB7B68B9
:1047EC001B685B6903F04003002B14BF01230023FB
:1047FC00DBB2C7F8D4307B685B6C03F00803002B8A
:10480C0003D1D7F8D430002B4FD0786800F05DFA84
:10481C007B681B685B6903F04003002B41D07B680D
:10482C001B681433C7F89C30D7F89C3053E8003F12
:10483C00C7F89830D7F8983023F04003C7F8D03039
:10484C007B681B681433D7F8D020C7F8A820C7F8AA
:10485C00A430D7F8A410D7F8A82041E80023C7F853
:10486C00A030D7F8A030002BD9D17B68DB6B002BA4
:10487C0013D07B68DB6B7E4A5A637B68DB6B184614
:10488C00FEF790FA0346002B16D07B68DB6B5B6B54
:10489C007A68D26B104698470EE0786800F093F96E
:1048AC000AE0786800F08FF906E0786800F08BF980
:1048BC007B6800225A6475E100BF73E17B681B6B57
:1048CC00012B40F04F81D7F8E43003F01003002B9C
:1048DC0000F04881D7F8E03003F01003002B00F013
:1048EC0041810023BB607B681B681B68BB607B68D5
:1048FC001B685B68BB60BB687B681B685B6903F00B
:10490C004003002B00F0B6807B68DB6B1B685B6898
:10491C00A7F8BE30B7F8BE30002B00F045817B689D
:10492C009B8DB7F8BE209A4280F03E817B68B7F829
:10493C00BE20DA857B68DB6B9B69202B00F08880BE
:10494C007B681B680C33C7F88830D7F8883053E87D
:10495C00003FC7F88430D7F8843023F48073C7F84D
:10496C00B8307B681B680C33D7F8B820C7F8942094
:10497C00C7F89030D7F89010D7F8942041E800236E
:10498C00C7F88C30D7F88C30002BD9D17B681B68DA
:10499C0014337B677B6F53E8003F3B673B6F23F01F
:1049AC000103C7F8B4307B681B681433D7F8B42004
:1049BC00C7F88020FB67F96FD7F8802041E8002307
:1049CC00BB67BB6F002BE1D17B681B6814333B6664
:1049DC003B6E53E8003FFB65FB6D23F04003C7F8CB
:1049EC00B0307B681B681433D7F8B020FA66BB660E
:1049FC00B96EFA6E41E800237B667B6E002BE3D127
:104A0C007B68202283F842207B6800221A637B6833
:104A1C001B680C33FB64FB6C53E8003FBB64BB6C42
:104A2C0023F01003C7F8AC307B681B680C33D7F845
:104A3C00AC20BA657B65796DBA6D41E800233B65A6
:104A4C003B6D002BE3D17B68DB6B1846FEF76FF9EF
:104A5C007B6802225A637B689A8D7B68DB8D9BB2E4
:104A6C00D31A9BB21946786800F0B6F89CE000BFE8
:104A7C009B4D00087B689A8D7B68DB8D9BB2D31AAB
:104A8C00A7F8CE307B68DB8D9BB2002B00F08E80BC
:104A9C00B7F8CE30002B00F089807B681B680C3394
:104AAC00BB63BB6B53E8003F7B637B6B23F490735E
:104ABC00C7F8C8307B681B680C33D7F8C8207A64F9
:104ACC003B64396C7A6C41E80023FB63FB6B002B75
:104ADC00E3D17B681B6814337B627B6A53E8003F2D
:104AEC003B623B6A23F00103C7F8C4307B681B6848
:104AFC001433D7F8C4203A63FB62F96A3A6B41E885
:104B0C000023BB62BB6A002BE3D17B68202283F8B5
:104B1C0042207B6800221A637B681B680C333B6164
:104B2C003B6953E8003FFB60FB6823F01003C7F8B8
:104B3C00C0307B681B680C33D7F8C020FA61BB61AE
:104B4C00B969FA6941E800237B617B69002BE3D1E9
:104B5C007B6802225A63B7F8CE301946786800F0A9
:104B6C003BF823E0D7F8E43003F08003002B09D0A6
:104B7C00D7F8E03003F08003002B03D0786800F006
:104B8C001AF914E0D7F8E43003F04003002B0ED0F0
:104B9C00D7F8E03003F04003002B08D0786800F021
:104BAC0059F904E000BF02E000BF00E000BFE837A5
:104BBC00BD4680BD80B483B000AF786000BF0C37B9
:104BCC00BD4680BC704780B483B000AF786000BF36
:104BDC000C37BD4680BC704780B483B000AF7860A2
:104BEC000B467B8000BF0C37BD4680BC704780B540
:104BFC0090B000AFF860B9603B601346FB7150E0B9
:104C0C00BB6CB3F1FF3F4CD0BB6C002B07D0FDF756
:104C1C0085FB02463B68D31ABA6C9A4241D2FB68B8
:104C2C001B680C33BB62BB6A53E8003F7B627B6A38
:104C3C0023F4D073FB63FB681B680C33FA6B7A6349
:104C4C003B63396B7A6B41E80023FB62FB6A002BF8
:104C5C00E5D1FB681B6814337B617B6953E8003F2B
:104C6C003B613B6923F00103BB63FB681B68143396
:104C7C00BA6B3A62FB61F9693A6A41E80023BB619D
:104C8C00BB69002BE5D1FB68202283F84120FB682F
:104C9C00202283F84220FB68002283F84020032363
:104CAC000FE0FB681B681A68BB681340BA689A422D
:104CBC000CBF01230023DBB21A46FB799A429FD02A
:104CCC00002318464037BD4680BD80B495B000AF78
:104CDC0078607B681B680C337B637B6B53E8003F0D
:104CEC003B633B6B23F49073FB647B681B680C3356
:104CFC00FA6C3A64FB63F96B3A6C41E80023BB63D2
:104D0C00BB6B002BE5D17B681B6814333B623B6AA1
:104D1C0053E8003FFB61FB6923F00103BB647B6834
:104D2C001B681433BA6CFA62BB62B96AFA6A41E85E
:104D3C0000237B627B6A002BE5D17B681B6B012B0C
:104D4C0019D17B681B680C33FB60FB6853E8003F90
:104D5C00BB60BB6823F010037B647B681B680C335F
:104D6C007A6CBA617B617969BA6941E800233B616D
:104D7C003B69002BE5D17B68202283F842207B68BD
:104D8C0000221A6300BF5437BD4680BC704780B503
:104D9C0084B000AF78607B685B6AFB60FB680022C4
:104DAC00DA85FB680022DA84F868FFF70CFF00BF95
:104DBC001037BD4680BD80B485B000AF78607B688D
:104DCC0093F84130DBB2212B3ED17B689B68B3F565
:104DDC00805F14D17B681B69002B10D17B681B6A28
:104DEC00FB60FB681B881A467B681B68C2F30802D1
:104DFC005A607B681B6A9A1C7B681A6208E07B68A5
:104E0C001B6A591C7A6811621A787B681B685A6095
:104E1C007B68DB8C9BB2013B9BB27A681946D184D0
:104E2C00002B0FD17B681B68DA687B681B6822F04B
:104E3C008002DA607B681B68DA687B681B6842F06A
:104E4C004002DA60002300E0022318461437BD4606
:104E5C0080BC704780B582B000AF78607B681B68FF
:104E6C00DA687B681B6822F04002DA607B682022DB
:104E7C0083F841207868FFF79DFE00231846083719
:104E8C00BD4680BD80B58CB000AF78607B6893F870
:104E9C004230DBB2222B40F0AE807B689B68B3F5CE
:104EAC00805F17D17B681B69002B13D10023FB6239
:104EBC007B689B6ABB627B681B685B689BB2C3F3B5
:104ECC0008039AB2BB6A1A807B689B6A9A1C7B683F
:104EDC009A6226E07B689B6AFB620023BB627B685C
:104EEC009B68B3F5805F07D07B689B68002B0AD169
:104EFC007B681B69002B06D17B681B685B68DAB288
:104F0C00FB6A1A7008E07B681B685B68DBB203F015
:104F1C007F03DAB2FB6A1A707B689B6A5A1C7B6847
:104F2C009A627B68DB8D9BB2013B9BB27A68194617
:104F3C00D185002B5DD17B681B68DA687B681B68A8
:104F4C0022F02002DA607B681B68DA687B681B68D9
:104F5C0022F48072DA607B681B685A697B681B6874
:104F6C0022F001025A617B68202283F842207B6880
:104F7C0000225A637B681B6B012B35D17B680022A6
:104F8C001A637B681B680C337B617B6953E8003FB9
:104F9C003B613B6923F010037B627B681B680C331D
:104FAC007A6A3A62FB61F9693A6A41E80023BB61AB
:104FBC00BB69002BE5D17B681B681B6803F01003F1
:104FCC00102B0AD10023FB607B681B681B68FB60FD
:104FDC007B681B685B68FB60FB687B689B8D194674
:104FEC007868FFF7F9FD02E07868FBF71BFC0023FB
:104FFC0002E0002300E0022318463037BD4680BD96
:10500C000EB46FF0004100B59CB01DAB0290069041
:10501C00079104910848094953F8042B059100683D
:10502C0002A9019300F08EF90022029B1A701CB0A9
:10503C005DF804EB03B07047680000200802FFFF26
:10504C0003460244934200D1704703F8011BF9E771
:10505C00014B1868704700BF6800002070B500262F
:10506C000C4D0D4C641BA410A64209D100F07AFC27
:10507C0000260A4D0A4C641BA410A64205D170BD33
:10508C0055F8043B98470136EEE755F8043B984732
:10509C000136F2E7B06F0008B06F0008B06F00087F
:1050AC00B46F00087047704738B50546002940D0EA
:1050BC0051F8043C0C1F002BB8BFE41800F0DCF8CE
:1050CC001C4A136833B9636014602846BDE8384045
:1050DC0000F0D8B8A34208D9206821188B4201BF30
:1050EC0019685B6809182160EDE71A465B680BB11B
:1050FC00A342FAD911685018A0420BD12068014480
:10510C00501883421160E0D118685B680844106045
:10511C005360DAE702D90C232B60D6E720682118FC
:10512C008B4201BF19685B68091821606360546089
:10513C00CBE738BD7007002070B50E4E0C463168B9
:10514C00054611B900F0AAFB30602146284600F054
:10515C00A5FB431C0AD0C41C24F00304A04207D0B6
:10516C00211A284600F09AFB013001D14FF0FF3490
:10517C00204670BD740700202DE9F843CD1C25F0A6
:10518C00030508350C2D38BF0C25002D074601DB17
:10519C00A94205D90C2300263B603046BDE8F883B4
:1051AC00DFF8D08000F068F8D8F800301C465CBB03
:1051BC0029463846FFF7C0FF431C044655D1D8F8A2
:1051CC0000402646002E45D1002C48D0236831469D
:1051DC00384604EB030900F061FB81453FD121689F
:1051EC0038466D1A2946FFF7A7FF013037D02368E0
:1051FC002B442360D8F80030002B38D05A68A242D8
:10520C002BD100225A600FE02268521B1FD40B2AAC
:10521C0017D96119A342256018BF5960636808BF8C
:10522C00C8F8001062514B60384604F10B0600F0D0
:10523C0029F826F00706231DF21AAED09B1BA350AB
:10524C00ABE7A3426268DDD1C8F80020ECE7234647
:10525C006468ACE734467668B4E71346CCE70C23B5
:10526C0038463B6000F00EF897E72560DCE75B60A2
:10527C00FFDE00BF700700200148FFF713BF00BF1F
:10528C006C0700200148FFF70EBF00BF6C07002021
:10529C002DE9F0471F468E688246BE420C4690466A
:1052AC000B682CD88A8912F4906F26D0656909692D
:1052BC0005EB4505A3EB010905EBD5757B1C4B44B0
:1052CC006D109D4238BF1D46530527D52946FFF763
:1052DC0053FF064660B34A46216900F0FDFAA389E4
:1052EC0023F4906343F08003A38126614E4426602F
:1052FC003E466561A5EB0905A560BE4200D93E4658
:10530C0032464146206800F0AFFA0020A3689B1B90
:10531C00A360236833442360BDE8F0872A4600F07D
:10532C00E9FA06460028E0D150462169FFF7BCFE99
:10533C000C23CAF80030A3894FF0FF3043F0400330
:10534C00A381E9E72DE9F04F98468B8907461B06A8
:10535C000D4614469DB00ED50B6963B94021FFF77D
:10536C000BFF2860286120B90C233B604FF0FF3005
:10537C00D0E040236B610023099320238DF8293062
:10538C0030234FF00109CDF80C80DFF8A0818DF8A7
:10539C002A3023469A4613F8012B0AB1252AF9D153
:1053AC00BAEB040B0BD05B46224629463846FFF776
:1053BC006FFF013000F0A980099A5A4409929AF8BB
:1053CC000030002B00F0A18000234FF0FF32CDE91C
:1053DC0005230AF1010A049307938DF853301A93AD
:1053EC005446052214F8011B504800F067FA049A41
:1053FC00D8B9D00644BF20238DF85330110744BFD1
:10540C002B238DF853309AF800302A2B15D05446A4
:10541C0000204FF00A0C079A214611F8013B303B53
:10542C00092B4DD9B0B1079214E0A0EB080309FA8F
:10543C0003F31343A2460493D2E7039B191D1B6885
:10544C000391002BBBBF5B4242F002020793079310
:10545C00B8BF049223782E2B0CD163782A2B34D12D
:10546C00039B02341A1D1B680392002BB8BF4FF02C
:10547C00FF330593DFF8B8A003225046217800F0E3
:10548C001DFA38B14022049BA0EB0A008240134362
:10549C000134049314F8011B062226488DF82810B9
:1054AC0000F00CFA002838D0234B1BBB039B0733AE
:1054BC0023F0070308330393099B3344099368E7EC
:1054CC000C4601200CFB0232A6E700234FF00A0C1D
:1054DC00194601340593204610F8012B303A092A5D
:1054EC0003D9002BC6D00591C4E7044601230CFB5D
:1054FC000121F0E703AB00932A4638460F4B04A971
:10550C00AFF30080421C0646D6D1AB895B063FF553
:10551C002DAF09981DB0BDE8F08F03AB00932A4660
:10552C003846064B04A900F07DF8EBE77A6F0008CB
:10553C00806F0008846F0008000000009D52000876
:10554C002DE9F047164699468A680B69074693423F
:10555C00B8BF1346336091F843200C46DDF8208029
:10556C000AB1013333602368990642BF33680233B2
:10557C003360256815F0060506D104F1190AE368B5
:10558C0032689B1AAB422BDC94F84320131E226822
:10559C0018BF0123920630D44946384604F1430221
:1055AC00C047013023D02368226903F00603042B83
:1055BC0014BF002533684FF0000608BFE56804F1FE
:1055CC001A0408BFED1A54F8123C08BF25EAE57519
:1055DC009342C4BF9B1AED18B5421AD1002008E0C3
:1055EC000123524649463846C047013003D14FF09B
:1055FC00FF30BDE8F0870135C1E73020E11881F8B4
:10560C0043005A1C94F845102244023382F843108C
:10561C00C2E70123224649463846C0470130E6D04E
:10562C000136D9E72DE9FF470F7E9146782F80464A
:10563C000C469A460C9D01F1430207D8622F0AD8FA
:10564C00002F00F0D580582F00F0C18004F14205E6
:10565C0084F842703AE0A7F16303152BF6D801A148
:10566C0051F823F0C9560008DD56000859560008B9
:10567C00595600085956000859560008DD560008BE
:10568C005956000859560008595600085956000832
:10569C00E3570008095700089D57000859560008A1
:1056AC0059560008055800085956000809570008B3
:1056BC005956000859560008A55700082B681A1DA2
:1056CC001B682A6004F1420584F842300123A0E0F3
:1056DC0020682B68070603F10401296001D51E68B8
:1056EC0003E04606FBD5B3F90060002E03DA2D2348
:1056FC00764284F843300A23594812E02B6820681C
:10570C00191D2960050601D51E6802E04106FBD56E
:10571C001E886F2F0CBF08230A235148002184F8E0
:10572C0043106568002DA8BF2168A560A4BF21F0B7
:10573C00040121600EB9002D4BD01546B6FBF3F1D8
:10574C0003FB1167C75D05F8017D3746BB420E466A
:10575C00F4D9082B0BD12368DE0708D523696168BF
:10576C009942DEBF302305F8013C05F1FF35521B91
:10577C0022614B4621464046CDF800A003AAFFF714
:10578C00DFFE01304AD14FF0FF3004B0BDE8F087A6
:10579C00236843F0200323607827324884F845704F
:1057AC00236829681F0651F8046B02D45F0648BFB2
:1057BC00B6B2DF0748BF43F02003296048BF23601F
:1057CC001EB9236823F0200323601023A6E7244886
:1057DC00E4E71546BDE72B682668181D616928604B
:1057EC0035061B6801D5196002E07006FBD51980DF
:1057FC00002315462361BCE72B6800211A1D2A6083
:10580C001D686268284600F059F808B1401B6060BA
:10581C0063682361002384F84330AAE72A4649468B
:10582C0040462369D0470130ADD023689B0713D481
:10583C00E068039B9842B8BF1846A6E7012332469E
:10584C0049464046D04701309DD00135E368039965
:10585C005B1AAB42F2DCEBE7002504F11906F5E725
:10586C008B6F00089C6F0008884210B501EB020496
:10587C0002D98442234607D8431EA14208D011F80E
:10588C00012B03F8012FF8E7014602448A4200D1AC
:10589C0010BD13F8014D02F8014DF7E738B50023A0
:1058AC00054D044608462B60FCF77EFC431C02D1D8
:1058BC002B6803B1236038BD68070020034610B580
:1058CC00C9B202449342184601D1002003E0047887
:1058DC0001338C42F6D110BD0A44914200F1FF33E2
:1058EC0000D1704710B511F8014B914203F8014FEC
:1058FC00F9D110BD2DE9F041804614460E4621B970
:10590C001146BDE8F041FFF737BC2AB9FFF7CCFBD5
:10591C0025462846BDE8F08100F01BF88442074676
:10592C0002D8B4EB500F12D821464046FFF724FCA6
:10593C0005460028EDD0BC422246314628BF3A46E7
:10594C00FFF7CAFF31464046FFF7AEFBE1E73546AD
:10595C00DFE751F8043C181F002BBCBF0B58C018D4
:10596C0070470000F8B500BFF8BC08BC9E467047F5
:0C597C00F8B500BFF8BC08BC9E467047A0
:10598800464F54412053595354454D00576169744B
:10599800696E6720557064617465212100000000FC
:1059A8004E6577206669726D776172650000000048
:1059B800617661696C61626C6520666F72000000D7
:1059C8004C69676874696E67204D43550000000094
:1059D800436F6C6C6973696F6E204D43550000000E
:1059E800556E6B6E6F776E204D4355002564000031
:1059F800457374696D6174653A203C00730000005A
:105A0800416363657074000052656A6563740000E1
:105A18003E000000446F776E6C6F61640000000008
:105A28002020696E0000000050726F677265737302
:105A38000000000020203025000000002020202544
:105A480000000000436F6D706C65746564000000B1
:105A5800202D5F2D20200000496E7374616C6C69E5
:105A68006E670000204669726D77617265000000FC
:105A780020746F204D4355200000000020000000D6
:105A8800000000000000000000000000000000000E
:105A9800000000000010001000100010001000109E
:105AA8000000001000000000002800280028000066
:105AB8000000000000000000000000000024002496
:105AC800007C00240048007C0048004800000000DA
