:020000040800F2
:1000000000500020A11B0008311B0008371B00080E
:100010003D1B0008431B0008491B000800000000AE
:100020000000000000000000000000004F1B00085E
:100030005B1B000800000000671B0008731B000822
:10004000E91B0008E91B0008E91B0008E91B000880
:10005000E91B0008E91B0008E91B0008E91B000870
:10006000E91B0008E91B0008E91B0008E91B000860
:10007000E91B0008E91B0008E91B0008E91B000850
:10008000E91B0008E91B0008E91B0008E91B000840
:10009000E91B0008E91B0008E91B0008E91B000830
:1000A000E91B0008E91B0008E91B0008E91B000820
:1000B000E91B0008E91B0008E91B0008E91B000810
:1000C000E91B0008E91B0008E91B0008E91B000800
:1000D000E91B0008811B0008E91B0008E91B000858
:1000E000E91B0008E91B0008E91B000800000000EC
:1000F0000000000000000000000000000000000000
:0C01000000000000000000005FF808F1A3
:10010C0010B5054C237833B9044B13B10448AFF345
:10011C0000800123237010BD10000020000000009F
:10012C00B047000808B5034B1BB103490348AFF3B4
:10013C00008008BD0000000014000020B04700083B
:10014C0080F0004002E000BF81F0004142001FBF80
:10015C005FEA410392EA030F7FEA226C7FEA236C89
:10016C006AD04FEA1262D2EB1363C1BFD21841407E
:10017C0048404140B8BF5B42192B88BF704710F014
:10018C00004F40F4000020F07F4018BF404211F0B7
:10019C00004F41F4000121F07F4118BF494292EA1F
:1001AC00030F3FD0A2F1010241FA03FC10EB0C004B
:1001BC00C3F1200301FA03F100F0004302D54942D8
:1001CC0060EB4000B0F5000F13D3B0F1807F06D385
:1001DC0040084FEA310102F10102FE2A51D2B1F17D
:1001EC00004F40EBC25008BF20F0010040EA030072
:1001FC007047490040EB0000013A28BFB0F5000FF2
:10020C00EDD2B0FA80FCACF1080CB2EB0C0200FAA7
:10021C000CF0AABF00EBC25052421843BCBFD040F6
:10022C001843704792F0000F81F4000106BF80F470
:10023C0000000132013BB5E74FEA41037FEA226C33
:10024C0018BF7FEA236C21D092EA030F04D092F0FE
:10025C00000F08BF0846704790EA010F1CBF002032
:10026C00704712F07F4F04D1400028BF40F000408F
:10027C00704712F100723CBF00F50000704700F0AF
:10028C00004343F0FE4040F4000070477FEA2262D6
:10029C0016BF08467FEA23630146420206BF5FEAA7
:1002AC00412390EA010F40F4800070474FF00003A7
:1002BC0004E000BF10F0004348BF40425FEA000C6E
:1002CC0008BF704743F0964301464FF000001CE016
:1002DC0050EA010208BF70474FF000030AE000BF6C
:1002EC0050EA010208BF704711F0004302D54042AA
:1002FC0061EB41015FEA010C02BF8446014600201C
:10030C0043F0B64308BFA3F18053A3F50003BCFA36
:10031C008CF2083AA3EBC25310DB01FA02FC6344E3
:10032C0000FA02FCC2F12002BCF1004F20FA02F2EA
:10033C0043EB020008BF20F00100704702F12002DD
:10034C0001FA02FCC2F1200250EA4C0021FA02F23E
:10035C0043EB020008BF20EADC7070474FF0FF0C43
:10036C001CEAD0521EBF1CEAD15392EA0C0F93EA3E
:10037C000C0F6FD01A4480EA010C400218BF5FEAE0
:10038C0041211ED04FF0006343EA501043EA511153
:10039C00A0FB01310CF00040B1F5000F3EBF49004D
:1003AC0041EAD3715B0040EA010062F17F02FD2A51
:1003BC001DD8B3F1004F40EBC25008BF20F0010034
:1003CC00704790F0000F0CF0004C08BF49024CEA4B
:1003DC00502040EA51207F3AC2BFD2F1FF0340EADD
:1003EC00C250704740F400004FF00003013A5DDC4E
:1003FC0012F1190FDCBF00F000407047C2F100028F
:10040C00410021FA02F1C2F1200200FA02FC5FEA7B
:10041C00310040F1000053EA4C0308BF20EADC70C5
:10042C00704792F0000F00F0004C02BF400010F437
:10043C00000F013AF9D040EA0C0093F0000F01F0E4
:10044C00004C02BF490011F4000F013BF9D041EA06
:10045C000C018FE70CEAD15392EA0C0F18BF93EA08
:10046C000C0F0AD030F0004C18BF31F0004CD8D132
:10047C0080EA010000F00040704790F0000F17BFB9
:10048C0090F0004F084691F0000F91F0004F14D0FF
:10049C0092EA0C0F01D142020FD193EA0C0F03D157
:1004AC004B0218BF084608D180EA010000F000405A
:1004BC0040F0FE4040F40000704740F0FE4040F435
:1004CC00400070474FF0FF0C1CEAD0521EBF1CEAD4
:1004DC00D15392EA0C0F93EA0C0F69D0A2EB0302F2
:1004EC0080EA010C49024FEA402037D04FF080538C
:1004FC0043EA111143EA10130CF000408B4238BF51
:10050C005B0042F17D024FF4000C8B4224BF5B1A5E
:10051C0040EA0C00B3EB510F24BFA3EB510340EAAC
:10052C005C00B3EB910F24BFA3EB910340EA9C005A
:10053C00B3EBD10F24BFA3EBD10340EADC001B01CA
:10054C0018BF5FEA1C1CE0D1FD2A3FF650AF8B426E
:10055C0040EBC25008BF20F0010070470CF0004C7B
:10056C004CEA50207F32C2BFD2F1FF0340EAC250A6
:10057C00704740F400004FF00003013A37E792F067
:10058C00000F00F0004C02BF400010F4000F013AC5
:10059C00F9D040EA0C0093F0000F01F0004C02BFC0
:1005AC00490011F4000F013BF9D041EA0C0195E729
:1005BC000CEAD15392EA0C0F08D142027FF47DAFC2
:1005CC0093EA0C0F7FF470AF084676E793EA0C0FB2
:1005DC0004D14B023FF44CAF08466EE730F0004CB0
:1005EC0018BF31F0004CCAD130F000427FF45CAF40
:1005FC0031F000437FF43CAF5FE700BF42000ED206
:10060C00B2F1FE4F0BD34FF09E03B3EB126209D441
:10061C004FEA002343F0004323FA02F070474FF0F7
:10062C000000704712F1610F01D1420202D14FF06C
:10063C00FF3070474FF00000704700BF80B584B0AA
:10064C0000AF03460A46FB711346BB71FB79012BC5
:10065C0002D15023FB7301E06023FB730C4B00228F
:10066C009A600B4B0022DA60FB7B094A1360084B43
:10067C0001221A61074ABB791370074B054A0449DA
:10068C00064801F017FD034618461037BD4680BDDD
:10069C0094050020C8050020D8050020A8040020DF
:1006AC0080B584B000AF03463960FB711346BB7153
:1006BC003B68002B01D101232BE0FB79012B02D1EC
:1006CC005023FB7301E06023FB73144B00229A60F0
:1006DC00124B0022DA60FB7B104A1360BB790F4A85
:1006EC0013610023BB7309E0BB7B3A681A44BB7BE4
:1006FC0011780B4AD154BB7B0133BB73BA7BBB79EA
:10070C009A42F1D3074B064A0449074801F0D2FC40
:10071C00034618461037BD4680BD00BF9405002027
:10072C00C8050020D8050020A804002080B582B0A0
:10073C0000AF786000BF0B4B1B68DB6803F0030352
:10074C00002BF8D0084B094A0021064801F081FD26
:10075C00054B1A787B681A70002318460837BD467B
:10076C0080BD00BFA8040020D0050020AC050020EF
:10077C0080B400AF034B044A1A6000BFBD4680BC76
:10078C00704700BF380000200050000880B582B0D0
:10079C0000AF204800F066FC0346BB71BB79002B10
:1007AC0033D11C4B1B78032B2FD11B4800F014FCAE
:1007BC000346BB71BB79002B27D1174B1B78002B41
:1007CC0023D10023FB710FE0144B1B681A46FB79F5
:1007DC001278D1B2124AD154104B1B6801330F4A14
:1007EC001360FB790133FB71FB79072BECD9BB79D7
:1007FC00002B0AD10A4800F085FB0346BB7101208F
:10080C0000F0C8FB042000F00BFC00BF0837BD460D
:10081C0080BD00BF340000203500002038000020CF
:10082C002C00002080B400AF034B044A1A6000BFB8
:10083C00BD4680BC704700BF3C00002000A80008EB
:10084C0080B584B000AF78600B467B800023FB73CF
:10085C0000237B810023BB817B68002B02D1012309
:10086C00FB7324E00023BB811DE0BB897A68134431
:10087C001B781AB2BB89013379680B441B781B02B5
:10088C001BB213431BB27B810B4B1B687A8911463D
:10089C00184600F032F8084B1B680233064A136006
:1008AC00BB890233BB81BA897B889A42DDD3FB7B3F
:1008BC0018461037BD4680BD3C00002080B588B07E
:1008CC0000AF78600023FB6001233B617B687B6198
:1008DC001623BB6102F00EF807F1080207F10C03B6
:1008EC001146184602F0EEF80346FB7702F028F8A2
:1008FC00FB7F18462037BD4680BDB0B584B000AF35
:10090C0078600B467B8001F0F5FF7B8800221C464B
:10091C00154622462B467968012001F07BFF0346E1
:10092C00FB7302F00DF8FB7B18461037BD46B0BDCB
:10093C0090B583B000AF964B1B78052B00F28081ED
:10094C0001A252F823F000BF6D0900089B090008B2
:10095C00EF090008950A0008D90B0008B709000830
:10096C008C4800F0A3FB0346FB71FB79002B0ED1E6
:10097C00884B1B78012B03D1854B01221A7006E0A2
:10098C00844B1B78022B02D1814B05221A70824BAF
:10099C0005221A704FF0FF3301227F497F4803F084
:1009AC0079F87B4B02221A704BE17B4B06221A70B2
:1009BC004FF0FF3301227849784803F06BF8754B00
:1009CC0000221A70002000F02BFB744B1B68DA68B5
:1009DC00724B1B6842F02002DA606D4B00221A70D9
:1009EC002FE16D4B07221A704FF0FF3301226A4939
:1009FC006A4803F04FF84FF0FF3305226849674807
:100A0C0003F0CBF8664B1B781A46654B5B781B02E0
:100A1C001A43634B9B781B041A43614BDB781B0610
:100A2C0013431A465F4B1A605D4B1A795E4B1A7072
:100A3C005C4B1B68184600F0B7F95B4B1B781846EB
:100A4C0000F06CF9012000F017FA564B1B689B0A5A
:100A5C00DAB2564B1A70534B1B689BB2C3F30903A3
:100A6C009AB2534B1A804C4B08221A704FF0FF333A
:100A7C0001224949494803F00DF84E48FFF71EFF83
:100A8C00434B03221A70DCE0434B0C221A704FF0DC
:100A9C00FF3301224049414802F0FCFF434B1B78D5
:100AAC00002B23D04FF0FF334FF4806242493B4878
:100ABC0003F073F83D4B1B78013BDAB23B4B1A70D9
:100ACC004FF480613C48FFF7BBFE334B0A221A708F
:100ADC004FF0FF3301223049304802F0DBFF374B37
:100AEC001B6803F58063354A136029E02F4B1B7894
:100AFC00002B25D12E4B1B88002B21D02C4B1A8878
:100B0C004FF0FF332C49254803F047F84FF4806130
:100B1C002948FFF795FE204B0B221A704FF0FF333C
:100B2C0001221D491D4802F0B5FF194B04221A7011
:100B3C001F4B1B881A46214B1B6813441F4A13601A
:100B4C001E4B1B681846FFF7B1FB0446154B1B6880
:100B5C001846FFF7ABFB034619462046FFF7B2FCDD
:100B6C0003461A46164B1A60154B1B681549184656
:100B7C00FFF7F4FB03461846FFF740FD0346DAB2D5
:100B8C00114B1A70104B1B78184600F0B3FA58E052
:100B9C004A000020560000205100002024050020AF
:100BAC004C0000204400002048000020520000208F
:100BBC005400002000A80008580000206004002009
:100BCC00580400200000C8425C0400201F4B0D227A
:100BDC001A704FF0FF3301221C491D4802F05AFFD6
:100BEC00032000F01DFA1B4B00221A601A4B002246
:100BFC001A601A4B00221A70194B00221A70194BEA
:100C0C0000221A80184B00221A70184B4FF0000269
:100C1C001A60174B00221A70164B00221A60002023
:100C2C0000F068FAFFF7FEFD134B00221A70084B18
:100C3C001B68DA68064B1B6842F02002DA6000E0A1
:100C4C0000BF00BF0C37BD4690BD00BF5100002057
:100C5C002405002040000020440000204800002013
:100C6C0052000020540000205600002058040020A0
:100C7C005C040020600400204A00002080B584B091
:100C8C0000AF7860214B1B78012B30D1204800F04D
:100C9C00E9F90346FB73FB7B002B1AD11C4B1B7829
:100CAC00002B0BD1012000F0BBF91A4B1B68DA6842
:100CBC00184B1B6822F02002DA6022E0164B03224C
:100CCC001A704FF0FF3301221349124802F0E2FE72
:100CDC0017E0FB7B012B14D10F4B02221A704FF043
:100CEC00FF3301220C490B4802F0D4FE09E00A4BF9
:100CFC0004221A704FF0FF3301220749054802F015
:100D0C00C9FE00BF1037BD4680BD00BF4C0000209F
:100D1C0049000020240500205100002080B485B03B
:100D2C0000AF0346FB710023FB730B4B1B78002BAE
:100D3C0009D1094B01221A70084AFB791370064B32
:100D4C0000221A7001E00123FB73FB7B1846143759
:100D5C00BD4680BC704700BF7A0400206C040020A4
:100D6C0080B485B000AF78600023FB730C4B1B780C
:100D7C00002B0DD17B68002B0AD0094B01221A7075
:100D8C00084B1A787B681A70054B00221A7001E028
:100D9C000123FB73FB7B18461437BD4680BC7047A0
:100DAC007A0400206C04002080B485B000AF786019
:100DBC000023FB730A4B1B78002B09D1084B012233
:100DCC001A70084A7B681360054B00221A7001E008
:100DDC000123FB73FB7B18461437BD4680BC704760
:100DEC00790400206804002080B485B000AF7860DE
:100DFC000023FB730C4B1B78002B0DD17B68002B55
:100E0C000AD0094B01221A70084B1A687B681A60C9
:100E1C00054B00221A7001E00123FB73FB7B184683
:100E2C001437BD4680BC704779040020680400204C
:100E3C0080B485B000AF78600023FB730C4B1B783B
:100E4C00002B0DD17B68002B0AD0094B01221A70A4
:100E5C00084B1A687B681A60054B00221A7001E077
:100E6C000123FB73FB7B18461437BD4680BC7047CF
:100E7C00780400206404002080B485B000AF0346E1
:100E8C00FB710023FB730B4B1B78002B09D1094B17
:100E9C0001221A70084AFB791370064B00221A7053
:100EAC0001E00123FB73FB7B18461437BD4680BC65
:100EBC00704700BF7B0400206D04002080B485B017
:100ECC0000AF78600023FB730C4B1B78002B0DD10B
:100EDC007B68002B0AD0094B01221A70084B1A7838
:100EEC007B681A70054B00221A7001E00123FB731A
:100EFC00FB7B18461437BD4680BC70477B04002032
:100F0C006D04002080B485B000AF78600023FB73C3
:100F1C000C4B1B78002B0CD17B68002B09D0094B98
:100F2C0001221A70084A7B681360064B00221A7063
:100F3C0001E00123FB73FB7B18461437BD4680BCD4
:100F4C00704700BF7C0400207004002080B485B082
:100F5C0000AF78600023FB730C4B1B78002B0DD17A
:100F6C007B68002B0AD0094B01221A70084B1A68B7
:100F7C007B681A60054B00221A7001E00123FB7399
:100F8C00FB7B18461437BD4680BC70477C040020A0
:100F9C007004002080B485B000AF0346FB710023C1
:100FAC00FB730B4B1B78002B09D1094B01221A70D8
:100FBC00084AFB791370064B00221A7001E00123DA
:100FCC00FB73FB7B18461437BD4680BC704700BFD3
:100FDC007D0400207404002080B485B000AF7860DC
:100FEC000023FB730C4B1B78002B0DD17B68002B63
:100FFC000AD0094B01221A70084B1A787B681A70B8
:10100C00054B00221A7001E00123FB73FB7B184691
:10101C001437BD4680BC70477D040020740400204A
:10102C0080B485B000AF0346FB710023FB730B4B00
:10103C001B78002B09D1094B01221A70084AFB7945
:10104C001370064B00221A7001E00123FB73FB7B2B
:10105C0018461437BD4680BC704700BF7E04002084
:10106C007504002080B485B000AF78600023FB735A
:10107C000C4B1B78002B0DD17B68002B0AD0094B35
:10108C0001221A70084B1A787B681A70054B0022E3
:10109C001A7001E00123FB73FB7B18461437BD4625
:1010AC0080BC70477E0400207504002080B485B09D
:1010BC0000AF78600023FB730C4B1B78002B0DD119
:1010CC007B68002B0AD0094B01221A70084B1A7846
:1010DC007B681A70054B00221A7001E00123FB7328
:1010EC00FB7B18461437BD4680BC70477F0400203C
:1010FC007604002080B485B000AF0346FB7100235A
:10110C00FB730B4B1B78002B09D1094B01221A7076
:10111C00084AFB791370064B00221A7001E0012378
:10112C00FB73FB7B18461437BD4680BC704700BF71
:10113C00800400207704002080B400AF144B002200
:10114C001A60144B00221A70134B00221A80134B96
:10115C0000221A80124B00221A70124B4FF0000220
:10116C001A60114B00221A70104B00221A70104B8F
:10117C00104A1A600E4B104A5A600D4B0F4A9A6077
:10118C000B4B0F4ADA6000231846BD4680BC7047F3
:10119C0084040020880400208A0400208C04002091
:1011AC008E0400209004002094040020950400205C
:1011BC0098040020051200085112000811130008B1
:1011CC009514000880B582B000AF0023FB71084B6A
:1011DC001B781A46074B53F822303B603B680020C3
:1011EC0098470346FB71FB7918460837BD4680BD0E
:1011FC00950400209804002080B584B000AF78607E
:10120C000023FB730023BB7307F10E031846FFF793
:10121C0055FE0346FB73FB7B002B09D1BB7B012BDB
:10122C0003D1074B01221A7004E00023FB7301E089
:10123C000123FB73FB7B18461037BD4680BD00BFF6
:10124C009504002080B58AB000AF7860002387F841
:10125C0027300023FB6100233B620023FB76002335
:10126C007B6100233B610023FB7307F1100207F144
:10127C00140107F11B03184600F044F907F114029E
:10128C0007F11B031146184600F092F97B69396986
:10129C0007F11C02184600F051F9FB7E102118468C
:1012AC00FFF7CCF907F10F031846FFF73FFAFB7B6A
:1012BC00502B13D1FB7E34211846FFF7BFF907F1F1
:1012CC000F031846FFF732FAFB7B732B06D1FB7E1C
:1012DC0007F11C0108221846FFF7E2F907F10F038A
:1012EC001846FFF723FAFB7B742B02D1044B022226
:1012FC001A7097F8273018462837BD4680BD00BFB6
:10130C009504002090B587B000AF78600023FB7582
:10131C0000233B610023FB73524B1B68DB089AB222
:10132C00514B1A804F4B1B68DBB203F00703DAB248
:10133C004E4B1A7007F117031846FFF74DFEFB7D55
:10134C00012B40F0898007F110031846FFF7FEFDD2
:10135C00474B1B7836211846FFF770F907F10F033E
:10136C001846FFF7E3F9FB7B752B75D1414B1A88B7
:10137C003D4B1B889A4250D23D4B1B783969082251
:10138C001846FFF78DF907F10F031846FFF7CEF952
:10139C00FB7B762B60D1374B1B8801339AB2354BD4
:1013AC001A80344B1A88304B1B889A4207D12F4B2A
:1013BC001B78002B03D1304B03221A7005E0002060
:1013CC00FFF7E8FD0320FFF72BFE2A4B1B8818467E
:1013DC00FEF76CFF0446244B1B881846FEF766FF8D
:1013EC00034619462046FFF76DF803461A46234B71
:1013FC001A60224B1B6822491846FEF7AFFF0346C2
:10140C001846FFF7FBF80346DAB21E4B1A701D4B59
:10141C001B781846FFF76EFE1EE0144B1B78002B52
:10142C001AD0134B1B783969104A12781846FFF7FB
:10143C0037F907F10F031846FFF778F9FB7B762B8A
:10144C000AD10D4B03221A700E4B64221A700D4BED
:10145C001B781846FFF74EFE002318461C37BD4676
:10146C0090BD00BF840400208C0400208E0400205A
:10147C00880400208A040020950400209004002099
:10148C000000C8429404002080B584B000AF78609E
:10149C000023FB730020FFF77DFD144B1B783721D5
:1014AC001846FFF7CBF807F10F031846FFF73EF984
:1014BC00FB7B772B05D10E4B00221A700520FFF712
:1014CC00AFFD0C4B00221A60084B00221A700A4B1D
:1014DC0000221A80094B00221A80094B00221A7034
:1014EC00002318461037BD4680BD00BF880400207D
:1014FC0095040020840400208A0400208C04002021
:10150C008E04002080B586B000AFF860B9607A60B8
:10151C000023FB75F868FFF723FC0346FB75B868DE
:10152C00FFF762FC0346FB757868FFF781FC034606
:10153C00FB75FB7D18461837BD4680BD80B485B061
:10154C0000AFF860B9607A60FB68DAB27B681A7039
:10155C00FB681A0A7B680133D2B21A70FB681A0C4A
:10156C007B680233D2B21A70FB681A0E7B680333A5
:10157C00D2B21A707B680433BA68D2B21A70BB68E4
:10158C001A0A7B680533D2B21A70BB681A0C7B68D6
:10159C000633D2B21A70BB681A0E7B680733D2B20C
:1015AC001A70002318461437BD4680BC70470000E3
:1015BC0080B483B000AF786039607B681A78064BD2
:1015CC001A703B681B68054A1360002318460C37D9
:1015DC00BD4680BC704700BF8804002084040020F6
:1015EC0080B582B000AF00F0FBFA00F035F800F0E7
:1015FC002BF900F077F800F0CFF800F0FBF8154865
:10160C0000F014FDFFF798FDFFF7B2F80320FFF789
:10161C0007FD0120FFF730FC0120FFF77FFB42F2B2
:10162C002050FFF7C1FBFB1D1846FFF71BFDFB7994
:10163C00022B02D1FFF77CF9F5E7FB79032B02D1E2
:10164C00FFF7A4F8EFE7FB79042BECD1FFF7BAFD19
:10165C00E9E700BFA804002080B590B000AF07F107
:10166C00180328220021184603F070F83B1D0022B5
:10167C001A605A609A60DA601A610123BB614FF4F8
:10168C008033FB6100233B620123BB6202237B633B
:10169C004FF48033BB634FF4E013FB6307F1180383
:1016AC00184601F097FD0346002B01D000F024F9F9
:1016BC000F237B600223BB600023FB604FF480632D
:1016CC003B6100237B613B1D0221184602F004F8AC
:1016DC000346002B01D000F00FF900BF4037BD4688
:1016EC0080BD000080B500AF284B294A1A60274BFB
:1016FC0004225A60254B00229A60244B0022DA60A7
:10170C00224B4FF460221A61204B4FF480125A6125
:10171C001E4B00221A761D4B00225A761B4B0022C0
:10172C009A761A4B0022DA76184B00221A77174B4E
:10173C0000225A77154800F0B5FA0346002B01D069
:10174C0000F0DAF8134B01221A62124B00225A6194
:10175C00104B00221A610F4B00221A600D4B002215
:10176C005A600C4B00229A600A4B0022DA60094B3B
:10177C0000229A61074B0122DA61064B0A225A6257
:10178C000449024800F089FB00BF80BDA80400207A
:10179C00006400406C05002080B500AF124B134A6A
:1017AC001A60114B124A5A600F4B00229A600E4B72
:1017BC000022DA600C4B4FF480421A610A4B002273
:1017CC005A61094B00229A61074B0022DA61064BE1
:1017DC0000221A62044801F0B9FB0346002B01D029
:1017EC0000F08AF800BF80BDD004002000540040F7
:1017FC00801A060080B500AF114B124A1A60104BCC
:10180C004FF4E1325A600E4B00229A600C4B0022CE
:10181C00DA600B4B00221A61094B0C225A61084BFF
:10182C0000229A61064B0022DA61054802F0E2F8C8
:10183C000346002B01D000F05FF800BF80BD00BF55
:10184C00240500200038014080B588B000AF07F1B6
:10185C00100300221A605A609A60DA60244B9B696C
:10186C00234A43F010039361214B9B6903F010034F
:10187C00FB60FB681E4B9B691D4A43F02003936180
:10188C001B4B9B6903F02003BB60BB68184B9B6927
:10189C00174A43F004039361154B9B6903F004034F
:1018AC007B607B68124B9B69114A43F00803936180
:1018BC000F4B9B6903F008033B603B6800224FF41D
:1018CC0000510C4801F02AFB4FF400533B610123FB
:1018DC007B610023BB610223FB6107F110031946F6
:1018EC00044801F097F900BF2037BD4680BD00BF0A
:1018FC00001002400010014080B400AF72B600BF6F
:10190C00FEE7000080B485B000AF154B9B69144A0C
:10191C0043F001039361124B9B6903F00103BB601D
:10192C00BB680F4BDB690E4A43F08053D3610C4B01
:10193C00DB6903F080537B607B680A4B5B68FB6060
:10194C00FB6823F0E063FB60FB6843F00073FB6013
:10195C00044AFB68536000BF1437BD4680BC704717
:10196C00001002400000014080B588B000AF7860E4
:10197C0007F1100300221A605A609A60DA607B68E3
:10198C001B681C4A934231D11B4BDB691A4A43F04A
:10199C000073D361184BDB6903F00073FB60FB68C9
:1019AC00154B9B69144A43F004039361124B9B69DA
:1019BC0003F00403BB60BB684FF400633B6100237E
:1019CC007B610023BB6107F1100319460B4801F042
:1019DC0021F94FF480533B6102237B610323FB61AC
:1019EC0007F110031946054801F014F900BF203720
:1019FC00BD4680BD0064004000100240000801405C
:101A0C0080B588B000AF786007F1100300221A602F
:101A1C005A609A60DA607B681B68154A934223D13E
:101A2C00144B9B69134A43F008039361114B9B6958
:101A3C0003F00803FB60FB68C0233B6112237B614E
:101A4C000323FB6107F1100319460B4801F0E2F880
:101A5C00084BDB69074A43F40013D361054BDB6980
:101A6C0003F40013BB60BB6800BF2037BD4680BDCC
:101A7C000054004000100240000C014080B588B0BA
:101A8C0000AF786007F1100300221A605A609A6068
:101A9C00DA607B681B68204A934239D11F4B9B69E3
:101AAC001E4A43F4804393611C4B9B6903F48043AF
:101ABC00FB60FB68194B9B69184A43F00403936164
:101ACC00164B9B6903F00403BB60BB684FF40073B7
:101ADC003B6102237B610323FB6107F11003194671
:101AEC000F4801F097F84FF480633B6100237B6152
:101AFC000023BB6107F110031946094801F08AF86D
:101B0C0000220021252000F09CFD252000F0B5FDD1
:101B1C0000BF2037BD4680BD003801400010024098
:101B2C000008014080B400AFFEE780B400AFFEE7D0
:101B3C0080B400AFFEE780B400AFFEE780B400AF26
:101B4C00FEE780B400AF00BFBD4680BC704780B4D8
:101B5C0000AF00BFBD4680BC704780B400AF00BF73
:101B6C00BD4680BC704780B500AF00F07FF800BF69
:101B7C0080BD000080B500AF024802F0A1F800BFA4
:101B8C0080BD00BF2405002080B400AF00BFBD465F
:101B9C0080BC7047FFF7F8FF0B480C490C4A002338
:101BAC0002E0D458C4500433C4188C42F9D3094A07
:101BBC00094C002301E013600432A242FBD302F073
:101BCC00CDFDFFF70DFD7047000000200C0000203C
:101BDC00FC4700081000002000060020FEE7000073
:101BEC0080B500AF084B1B68074A43F01003136025
:101BFC00032000F01BFD0F2000F008F8FFF782FE19
:101C0C000023184680BD00BF0020024080B582B082
:101C1C0000AF7860124B1A68124B1B7819464FF4C0
:101C2C007A73B3FBF1F3B2FBF3F3184600F033FD18
:101C3C000346002B01D001230EE07B680F2B0AD842
:101C4C00002279684FF0FF3000F0FBFC064A7B68FD
:101C5C001360002300E0012318460837BD4680BD01
:101C6C0000000020080000200400002080B400AF19
:101C7C00054B1B781A46054B1B681344034A13602B
:101C8C0000BFBD4680BC704708000020DC0500206A
:101C9C0080B400AF024B1B681846BD4680BC704731
:101CAC00DC05002080B584B000AF78607B68002B29
:101CBC0001D10123EDE07B6893F82030DBB2002BDF
:101CCC0002D17868FFF750FE7B681B681A687B6846
:101CDC001B6842F001021A60FFF7DAFFF86012E0AD
:101CEC00FFF7D6FF0246FB68D31A0A2B0BD97B6889
:101CFC005B6A43F400327B685A627B68052283F886
:101D0C0020200123C5E07B681B685B6803F001039E
:101D1C00002BE5D07B681B681A687B681B6822F077
:101D2C0002021A60FFF7B4FFF86012E0FFF7B0FF91
:101D3C000246FB68D31A0A2B0BD97B685B6A43F407
:101D4C0000327B685A627B68052283F820200123CD
:101D5C009FE07B681B685B6803F00203002BE5D1F6
:101D6C007B681B7E012B08D17B681B681A687B681B
:101D7C001B6842F080021A6007E07B681B681A68D7
:101D8C007B681B6822F080021A607B685B7E012BEB
:101D9C0008D17B681B681A687B681B6842F040029C
:101DAC001A6007E07B681B681A687B681B6822F066
:101DBC0040021A607B689B7E012B08D17B681B68F4
:101DCC001A687B681B6842F020021A6007E07B6887
:101DDC001B681A687B681B6822F020021A607B68FB
:101DEC00DB7E012B08D17B681B681A687B681B683B
:101DFC0022F010021A6007E07B681B681A687B6887
:101E0C001B6842F010021A607B681B7F012B08D103
:101E1C007B681B681A687B681B6842F008021A60B2
:101E2C0007E07B681B681A687B681B6822F0080255
:101E3C001A607B685B7F012B08D17B681B681A6872
:101E4C007B681B6842F004021A6007E07B681B6821
:101E5C001A687B681B6822F004021A607B689A6817
:101E6C007B68DB681A437B681B691A437B685B6978
:101E7C0042EA03017B685B685A1E7B681B680A4355
:101E8C00DA617B6800225A627B68012283F8202089
:101E9C00002318461037BD4680BD80B487B000AF14
:101EAC00786039607B681B687B617B6893F82030B5
:101EBC00FB74FB7C012B03D0FB7C022B40F0AA8033
:101ECC007B69D3F8003243F001027B69C3F800222E
:101EDC003B685B6903F01F03012202FA03F3FB600A
:101EEC007B69D3F81C22FB68DB431A407B69C3F87F
:101EFC001C223B68DB69002B23D17B69D3F80C22B5
:101F0C00FB68DB431A407B69C3F80C223B68DB6837
:101F1C0019043B685B689BB23A68526919437B6948
:101F2C00483243F832103B689B6819043B681B68C5
:101F3C009AB23B685B690A4379694833DB000B440E
:101F4C005A603B68DB69012B22D17B69D3F80C22E8
:101F5C00FB681A437B69C3F80C223B681B681904A5
:101F6C003B685B689BB23A68526919437B6948329B
:101F7C0043F832103B689B6819043B68DB689AB2E3
:101F8C003B685B690A4379694833DB000B445A6050
:101F9C003B689B69002B09D17B69D3F80422FB6851
:101FAC00DB431A407B69C3F8042207E07B69D3F852
:101FBC000422FB681A437B69C3F804223B681B6943
:101FCC00002B09D17B69D3F81422FB68DB431A4040
:101FDC007B69C3F8142207E07B69D3F81422FB68F1
:101FEC001A437B69C3F814223B681B6A012B07D187
:101FFC007B69D3F81C22FB681A437B69C3F81C224B
:10200C007B69D3F8003223F001027B69C3F800220C
:10201C00002306E07B685B6A43F480227B685A628B
:10202C00012318461C37BD4680BC704780B584B070
:10203C0000AF78607B6893F82030DBB2012B2ED197
:10204C007B68022283F820207B681B681A687B68F7
:10205C001B6822F001021A60FFF71AFEF86012E00A
:10206C00FFF716FE0246FB68D31A0A2B0BD97B68C6
:10207C005B6A43F400327B685A627B68052283F802
:10208C002020012312E07B681B685B6803F00103CE
:10209C00002BE5D17B6800225A62002306E07B68A6
:1020AC005B6A43F400227B685A620123184610379E
:1020BC00BD4680BD80B489B000AFF860B9607A606D
:1020CC003B60FB6893F82030FB77FB681B689B68D0
:1020DC00BB61FB7F012B03D0FB7F022B40F0AD805B
:1020EC00BB6903F08063002B0AD1BB6903F000636A
:1020FC00002B05D1BB6903F08053002B00F09580B9
:10210C00BB691B0E03F003037B6101227B699A40C0
:10211C003B681A60BB689B68002B0DD1BB681B68C1
:10212C005A05BB68DB68F96809681A437B69183380
:10213C001B010B441A600FE0BB685B68DA00BB68DC
:10214C009B681A43BB68DB68F96809681A437B69AA
:10215C0018331B010B441A60FB681968BB681A69B9
:10216C007B6918331B010B4404331A60BB681B7D5D
:10217C00012B11D1FB681A687B6918331B011344BE
:10218C0004331B68FA68116843F480727B69183356
:10219C001B010B4404331A607B6807331B781A0647
:1021AC007B6806331B781B041A437B6805331B784A
:1021BC001B0213437A68043212781046FA681168CD
:1021CC0043EA00027B691B010B4403F5C6731A60DA
:1021DC007B6803331B781A067B6802331B781B045D
:1021EC001A437B6801331B781B0213437A681278FD
:1021FC001046FA68116843EA00027B691B010B4424
:10220C0003F5C4731A60FB681A687B6918331B01E9
:10221C0013441B68FA68116843F001027B69183398
:10222C001B010B441A6000230EE0FB685B6A43F44D
:10223C000012FB685A62012306E0FB685B6A43F4F8
:10224C008022FB685A62012318462437BD4680BCA5
:10225C00704780B487B000AFF860B9607A603B60BB
:10226C00FB6893F82030FB75FB7D012B03D0FB7DC5
:10227C00022B40F00381BB68002B0ED1FB681B685E
:10228C00DB6803F00303002B16D1FB685B6A43F495
:10229C000012FB685A620123F7E0FB681B681B699C
:1022AC0003F00303002B07D1FB685B6A43F40012B5
:1022BC00FB685A620123E8E0FB681A68BB681B33B1
:1022CC001B0113441B6803F004027B689A607B6853
:1022DC009B68002B0CD1FB681A68BB681B331B0175
:1022EC0013441B685B0DC3F30A027B681A600BE096
:1022FC00FB681A68BB681B331B0113441B68DB08A3
:10230C0023F060427B685A60FB681A68BB681B3319
:10231C001B0113441B6803F002027B68DA60FB6844
:10232C001A68BB681B331B01134404331B6803F08E
:10233C000803002B03D07B6808221A610BE0FB68B2
:10234C001A68BB681B331B01134404331B6803F06E
:10235C000F027B681A61FB681A68BB681B331B0190
:10236C00134404331B681B0ADAB27B689A61FB685E
:10237C001A68BB681B331B01134404331B681B0C0A
:10238C009AB27B685A61FB681A68BB681B011344DC
:10239C0003F5DC731B68DAB23B681A70FB681A68C9
:1023AC00BB681B01134403F5DC731B681A0A3B68FA
:1023BC000133D2B21A70FB681A68BB681B01134454
:1023CC0003F5DC731B681A0C3B680233D2B21A702B
:1023DC00FB681A68BB681B01134403F5DC731B68AC
:1023EC001A0E3B680333D2B21A70FB681A68BB68CA
:1023FC001B01134403F5DE731A683B680433D2B235
:10240C001A70FB681A68BB681B01134403F5DE7372
:10241C001B681A0A3B680533D2B21A70FB681A683B
:10242C00BB681B01134403F5DE731B681A0C3B6875
:10243C000633D2B21A70FB681A68BB681B011344CE
:10244C0003F5DE731B681A0E3B680733D2B21A70A1
:10245C00BB68002B08D1FB681B68DA68FB681B683B
:10246C0042F02002DA6007E0FB681B681A69FB681F
:10247C001B6842F020021A61002306E0FB685B6ACD
:10248C0043F48022FB685A62012318461C37BD4670
:10249C0080BC704780B485B000AF78607B6803F077
:1024AC000703FB600C4BDB68BB60BA684FF6FF039D
:1024BC001340BB60FB681A02BB68134343F0BF6355
:1024CC0043F40033BB60044ABB68D36000BF1437CD
:1024DC00BD4680BC704700BF00ED00E080B400AF8B
:1024EC00044BDB681B0A03F007031846BD4680BC8F
:1024FC00704700BF00ED00E080B483B000AF03462E
:10250C00FB7197F90730002B0BDBFB7903F01F02F3
:10251C00064997F907305B09012000FA02F241F8ED
:10252C00232000BF0C37BD4680BC704700E100E0A3
:10253C0080B483B000AF03463960FB7197F9073064
:10254C00002B0ADB3B68DAB20C4997F90730120111
:10255C00D2B20B4483F800230AE03B68DAB2084994
:10256C00FB7903F00F03043B1201D2B20B441A7631
:10257C0000BF0C37BD4680BC704700BF00E100E0D7
:10258C0000ED00E080B489B000AFF860B9607A600B
:10259C00FB6803F00703FB61FB69C3F10703042B22
:1025AC0028BF0423BB61FB690433062B02D9FB69EA
:1025BC00033B00E000237B614FF0FF32BB6902FA62
:1025CC0003F3DA43BB681A407B699A404FF0FF3142
:1025DC007B6901FA03F3D9437B680B40134318461C
:1025EC002437BD4680BC704780B582B000AF7860A0
:1025FC007B68013BB3F1807F01D301230FE00A4AD2
:10260C007B68013B53600F214FF0FF30FFF790FFC9
:10261C00054B00229A60044B07221A6000231846CF
:10262C000837BD4680BD00BF10E000E080B582B029
:10263C0000AF78607868FFF72DFF00BF0837BD4604
:10264C0080BD80B586B000AF0346B9607A60FB737D
:10265C0000237B61FFF742FF78617A68B96878697B
:10266C00FFF790FF024697F90F3011461846FFF717
:10267C005FFF00BF1837BD4680BD80B582B000AF8C
:10268C000346FB7197F907301846FFF735FF00BF7B
:10269C000837BD4680BD80B582B000AF78607868E1
:1026AC00FFF7A2FF034618460837BD4680BD80B42D
:1026BC0085B000AF78600023FB737B6893F8213002
:1026CC00DBB2022B08D07B6804229A637B68002261
:1026DC0083F82020012320E07B681B681A687B6844
:1026EC001B6822F00E021A607B681B681A687B68F4
:1026FC001B6822F001021A607B681A6C7B68DB6B2A
:10270C00012101FA02F25A607B68012283F8212030
:10271C007B68002283F82020FB7B18461437BD46CB
:10272C0080BC704780B584B000AF78600023FB7329
:10273C007B6893F82130DBB2022B05D07B68042236
:10274C009A630123FB7351E07B681B681A687B68F2
:10275C001B6822F00E021A607B681B681A687B6883
:10276C001B6822F001021A607B681B68224A9342A4
:10277C0029D07B681B68214A934222D07B681B6856
:10278C001F4A93421AD07B681B681E4A934212D090
:10279C007B681B681C4A93420AD07B681B681B4AE7
:1027AC00934202D14FF480130EE04FF080730BE094
:1027BC004FF4803308E04FF4805305E04FF48073FE
:1027CC0002E0102300E00123114A53607B680122D0
:1027DC0083F821207B68002283F820207B685B6BC8
:1027EC00002B03D07B685B6B78689847FB7B1846A3
:1027FC001037BD4680BD00BF080002401C000240DF
:10280C003000024044000240580002406C0002407C
:10281C0000000240F0B587B000AFF860B960C7E9BE
:10282C0000230123FB750023BB7500237B752F4B05
:10283C001B7E012B01D1022354E02C4B01221A7672
:10284C004CF2503000F0A8F80346FB75FB7D002BD2
:10285C0044D1FB68012B02D101237B7507E0FB6897
:10286C00022B02D102237B7501E004237B7500232C
:10287C00BB752DE0BB7D5A00BB6802EB030CBB7D26
:10288C001901D7E90023C1F12006A1F1200022FA99
:10289C0001F403FA06F6344323FA00F0044323FA56
:1028AC0001F5A3B21946604600F05AF84CF25030CC
:1028BC0000F072F80346FB750D4B1B690C4A23F0B4
:1028CC0001031361FB7D002B07D1BB7D0133BB756D
:1028DC00BA7D7B7D9A42CDD300E000BF034B002232
:1028EC001A76FB7D18461C37BD46F0BDE00500206E
:1028FC000020024080B483B000AF0023FB710D4B6D
:10290C001B6903F08003002B0DD00A4B0A4A5A6056
:10291C00084B0A4A5A60074B1B6903F08003002BD3
:10292C0001D00123FB71FB7918460C37BD4680BCE6
:10293C00704700BF0020024023016745AB89EFCDF3
:10294C0080B400AF054B1B69044A43F0800313614C
:10295C0000231846BD4680BC704700BF00200240D3
:10296C0080B483B000AF78600B467B80084B0022AC
:10297C00DA61084B1B69074A43F0010313617B685A
:10298C007A881A8000BF0C37BD4680BC704700BFE8
:10299C00E00500200020024080B584B000AF7860D4
:1029AC00FFF776F9F86010E07B68B3F1FF3F0CD0CD
:1029BC007B68002B07D0FFF76BF90246FB68D31A34
:1029CC007A689A4201D2032325E0154BDB6803F0A9
:1029DC000103002BE8D1124BDB6803F02003002B22
:1029EC0002D00F4B2022DA600D4BDB6803F0100392
:1029FC00002B0BD10A4BDB6903F00103002B05D133
:102A0C00074BDB6803F00403002B03D000F00AF83B
:102A1C00012300E0002318461037BD4680BD00BFDF
:102A2C000020024080B483B000AF00237B60234BB6
:102A3C00DB6803F01003002B09D0214BDB6943F05A
:102A4C0002031F4AD3617B6843F010037B601B4B6E
:102A5C00DB6803F00403002B09D0194BDB6943F04E
:102A6C000103174AD3617B6843F004037B60134B6B
:102A7C00DB6903F00103002B0BD0114BDB6943F036
:102A8C0004030F4AD3610D4BDB690C4A23F001039D
:102A9C00D3617B6840F20112934206D1074BDB698C
:102AAC00064A23F00103D36102E0044A7B68D36039
:102ABC0000BF0C37BD4680BC704700BF00200240F1
:102ACC00E005002080B584B000AF78603960012348
:102ADC00FB730023BB602F4B1B7E012B01D1022308
:102AEC0053E02C4B01221A767B681B68022B16D103
:102AFC004CF25030FFF750FF0346002B41D1012020
:102B0C0000F04CF84CF25030FFF746FF0346FB73D5
:102B1C00214B1B69204A23F00403136131E04CF272
:102B2C005030FFF739FF0346002B2AD13B684FF09A
:102B3C00FF321A607B689B68BB6019E0B86800F0D4
:102B4C0049F84CF25030FFF727FF0346FB73124B4A
:102B5C001B69114A23F002031361FB7B002B03D08A
:102B6C003B68BA681A600CE0BB6803F58063BB6015
:102B7C007B68DB689A027B689B681344BA689A424C
:102B8C00DCD3044B00221A76FB7B18461037BD466B
:102B9C0080BD00BFE00500200020024080B483B05F
:102BAC0000AF7860094B0022DA61094B1B69084AB7
:102BBC0043F004031361064B1B69054A43F04003C1
:102BCC00136100BF0C37BD4680BC7047E005002088
:102BDC000020024080B483B000AF78600B4B002221
:102BEC00DA610B4B1B690A4A43F002031361084A72
:102BFC007B685361064B1B69054A43F04003136124
:102C0C0000BF0C37BD4680BC704700BFE0050020FC
:102C1C000020024080B48BB000AF78603960002394
:102C2C007B6200233B6269E101227B6A02FA03F3B7
:102C3C00FB613B681B68FA691340BB61BA69FB69AD
:102C4C009A4240F058813B685B689A4A93425ED046
:102C5C00984A934275D8984A934258D0964A9342D0
:102C6C006FD8964A934252D0944A934269D8944A68
:102C7C0093424CD0924A934263D8924A934246D0A4
:102C8C00904A93425DD8122B2AD8122B59D801A204
:102C9C0052F823F01B2D0008F52C0008072D000816
:102CAC00492D00084F2D00084F2D00084F2D00080E
:102CBC004F2D00084F2D00084F2D00084F2D0008F8
:102CCC004F2D00084F2D00084F2D00084F2D0008E8
:102CDC004F2D00084F2D0008FD2C0008112D000869
:102CEC00794A934213D02CE03B68DB683B6229E0C5
:102CFC003B68DB6804333B6224E03B68DB680833E9
:102D0C003B621FE03B68DB680C333B621AE03B68BC
:102D1C009B68002B02D104233B6213E03B689B6849
:102D2C00012B05D108233B627B68FA691A6109E023
:102D3C0008233B627B68FA695A6103E000233B621B
:102D4C0000E000BFBB69FF2B01D87B6801E07B680A
:102D5C0004337B61BB69FF2B02D87B6A9B0002E0CA
:102D6C007B6A083B9B003B617B691A680F213B69BE
:102D7C0001FA03F3DB431A40396A3B6901FA03F3A6
:102D8C001A437B691A603B685B6803F08053002B25
:102D9C0000F0B1804D4B9B694C4A43F001039361A9
:102DAC004A4B9B6903F00103BB60BB68484A7B6AD2
:102DBC009B08023352F82330FB607B6A03F0030359
:102DCC009B000F2202FA03F3DB43FA681340FB600B
:102DDC007B68404A934213D07B683F4A93420DD0A4
:102DEC007B683E4A934207D07B683D4A934201D1AF
:102DFC00032306E0042304E0022302E0012300E0A5
:102E0C0000237A6A02F0030292009340FA6813439B
:102E1C00FB602F497B6A9B080233FA6841F8232038
:102E2C003B685B6803F48013002B06D02D4B9A682B
:102E3C002C49BB6913438B6006E02A4B9A68BB692B
:102E4C00DB43284913408B603B685B6803F4001339
:102E5C00002B06D0234BDA682249BB691343CB60A5
:102E6C0006E0204BDA68BB69DB431E491340CB609C
:102E7C003B685B6803F40033002B06D0194B5A688F
:102E8C001849BB6913434B6006E0164B5A68BB6983
:102E9C00DB43144913404B603B685B6803F480339D
:102EAC00002B21D00F4B1A680E49BB6913430B60E2
:102EBC0021E000BF00003210000031100000221091
:102ECC000000211000001210000011100010024030
:102EDC000000014000080140000C014000100140BE
:102EEC0000140140000401400B4B1A68BB69DB4322
:102EFC00094913400B607B6A01337B623B681A689B
:102F0C007B6A22FA03F3002B7FF48EAE00BF00BF66
:102F1C002C37BD4680BC70470004014080B483B0A0
:102F2C0000AF78600B467B8013467B707B78002B60
:102F3C0003D07A887B681A6103E07B881A047B686B
:102F4C001A6100BF0C37BD4680BC704780B584B099
:102F5C0000AF78607B68002B01D101232BE17B68EB
:102F6C0093F83D30DBB2002B06D17B68002283F84E
:102F7C003C207868FEF744FD7B68242283F83D20D2
:102F8C007B681B681A687B681B6822F001021A6058
:102F9C007B681B681A687B681B6842F400421A60E5
:102FAC007B681B681A687B681B6822F400421A60F5
:102FBC0000F0DAFCF8607B685B68814A934207D8C2
:102FCC00FB68804A934294BF01230023DBB206E0E6
:102FDC00FB687D4A934294BF01230023DBB2002B94
:102FEC0001D00123E7E0FB68784AA2FB03239B0C8A
:102FFC00BB607B681B685B6823F03F017B681B68C8
:10300C00BA680A435A607B681B681B6A23F03F014D
:10301C007B685B686A4A934202D8BB68013309E05B
:10302C00BB684FF4967202FB03F3694AA2FB0323BD
:10303C009B0901337A6812680B4313627B681B6827
:10304C00DB6923F44F4222F0FF027B685B685C492A
:10305C008B4219D8FB68591E7B685B685B00B1FB1F
:10306C00F3F3591C40F6FC730B40002B0AD0FB68A1
:10307C00591E7B685B685B00B1FBF3F30133C3F350
:10308C000B0351E004234FE07B689B68002B11D1AC
:10309C00FB68581E7B6859680B465B000B44B0FB01
:1030AC00F3F30133C3F30B03002B0CBF01230023F9
:1030BC00DBB212E0FB68581E7B6859680B469B001C
:1030CC000B4499000B44B0FBF3F30133C3F30B0334
:1030DC00002B0CBF01230023DBB2002B01D00123FA
:1030EC0022E07B689B68002B0ED1FB68581E7B6826
:1030FC0059680B465B000B44B0FBF3F30133C3F38D
:10310C000B0343F400430FE0FB68581E7B685968BF
:10311C000B469B000B4499000B44B0FBF3F30133BB
:10312C00C3F30B0343F44043796809681343CB6141
:10313C007B681B681B6823F0C0017B68DA697B68BD
:10314C001B6A1A437B681B680A431A607B681B68FE
:10315C009B6823F4034323F0FF037A6811697A68B0
:10316C00D26811437A6812680B4393607B681B68C2
:10317C00DB6823F0FF017B685A697B689B691A4303
:10318C007B681B680A43DA607B681B681A687B687B
:10319C001B6842F001021A607B6800221A647B688B
:1031AC00202283F83D207B6800221A637B68002272
:1031BC0083F83E20002318461037BD4680BD00BF63
:1031CC00A08601007F841E00FF083D0083DE1B43A8
:1031DC00D34D621080B586B000AF78607B68002B51
:1031EC0001D1012372E27B681B6803F00103002B01
:1031FC0000F08780924B5B6803F00C03042B0CD01F
:10320C008F4B5B6803F00C03082B12D18C4B5B6863
:10321C0003F48033B3F5803F0BD1894B1B6803F467
:10322C000033002B6CD07B685B68002B68D10123CA
:10323C004CE27B685B68B3F5803F06D1804B1B6822
:10324C007F4A43F4803313602EE07B685B68002B6D
:10325C000CD17B4B1B687A4A23F480331360784B78
:10326C001B68774A23F4802313601DE07B685B683E
:10327C00B3F5A02F0CD1724B1B68714A43F4802319
:10328C0013606F4B1B686E4A43F4803313600BE082
:10329C006B4B1B686A4A23F480331360684B1B68C2
:1032AC00674A23F4802313607B685B68002B13D080
:1032BC00FEF7EEFC386108E0FEF7EAFC02463B69DB
:1032CC00D31A642B01D9032300E25D4B1B6803F472
:1032DC000033002BF0D014E0FEF7DAFC386108E084
:1032EC00FEF7D6FC02463B69D31A642B01D90323A3
:1032FC00ECE1534B1B6803F40033002BF0D100E0DE
:10330C0000BF7B681B6803F00203002B63D04C4B9F
:10331C005B6803F00C03002B0BD0494B5B6803F08C
:10332C000C03082B1CD1464B5B6803F48033002B39
:10333C0016D1434B1B6803F00203002B05D07B68AE
:10334C001B69012B01D00123C0E13D4B1B6823F00D
:10335C00F8027B685B69DB00394913430B603AE088
:10336C007B681B69002B20D0364B01221A60FEF7BC
:10337C008FFC386108E0FEF78BFC02463B69D31AE0
:10338C00022B01D90323A1E12D4B1B6803F002038F
:10339C00002BF0D02A4B1B6823F0F8027B685B698A
:1033AC00DB00274913430B6015E0264B00221A6003
:1033BC00FEF76EFC386108E0FEF76AFC02463B69DA
:1033CC00D31A022B01D9032380E11D4B1B6803F098
:1033DC000203002BF0D17B681B6803F00803002B61
:1033EC003AD07B689B69002B19D0174B01221A60CD
:1033FC00FEF74EFC386108E0FEF74AFC02463B69DA
:10340C00D31A022B01D9032360E10D4B5B6A03F045
:10341C000203002BF0D0012000F0CEFA1CE00A4B86
:10342C0000221A60FEF734FC38610FE0FEF730FC26
:10343C0002463B69D31A022B08D9032346E100BF8D
:10344C00001002400000424280044242924B5B6AF0
:10345C0003F00203002BE9D17B681B6803F0040323
:10346C00002B00F0A6800023FB758B4BDB6903F06F
:10347C008053002B0DD1884BDB69874A43F0805376
:10348C00D361854BDB6903F08053BB60BB680123C0
:10349C00FB75824B1B6803F48073002B18D17F4B98
:1034AC001B687E4A43F480731360FEF7F1FB3861AE
:1034BC0008E0FEF7EDFB02463B69D31A642B01D9F9
:1034CC00032303E1754B1B6803F48073002BF0D0CE
:1034DC007B68DB68012B06D16F4B1B6A6E4A43F08D
:1034EC00010313622DE07B68DB68002B0CD16A4B67
:1034FC001B6A694A23F001031362674B1B6A664A15
:10350C0023F0040313621CE07B68DB68052B0CD1F1
:10351C00614B1B6A604A43F0040313625E4B1B6AE7
:10352C005D4A43F0010313620BE05B4B1B6A5A4A82
:10353C0023F001031362584B1B6A574A23F0040310
:10354C0013627B68DB68002B15D0FEF7A1FB38619A
:10355C000AE0FEF79DFB02463B69D31A41F2883222
:10356C00934201D90323B1E04B4B1B6A03F00203D6
:10357C00002BEED014E0FEF78BFB38610AE0FEF76F
:10358C0087FB02463B69D31A41F28832934201D938
:10359C0003239BE0404B1B6A03F00203002BEED18C
:1035AC00FB7D012B05D13C4BDB693B4A23F080535F
:1035BC00D3617B68DB69002B00F08780364B5B683E
:1035CC0003F00C03082B61D07B68DB69022B46D11E
:1035DC00334B00221A60FEF75BFB386108E0FEF704
:1035EC0057FB02463B69D31A022B01D903236DE02A
:1035FC00294B1B6803F00073002BF0D17B681B6A0E
:10360C00B3F5803F08D1244B5B6823F400327B6810
:10361C009B68214913434B601F4B5B6823F4741266
:10362C007B68196A7B685B6A0B431B4913434B60CD
:10363C001B4B01221A60FEF72BFB386108E0FEF7EA
:10364C0027FB02463B69D31A022B01D903233DE029
:10365C00114B1B6803F00073002BF0D035E0104BBE
:10366C0000221A60FEF714FB386108E0FEF710FB2D
:10367C0002463B69D31A022B01D9032326E0064BE1
:10368C001B6803F00073002BF0D11EE07B68DB6934
:10369C00012B07D1012319E00010024000700040FB
:1036AC00600042420B4B5B68FB60FB6803F48032AA
:1036BC007B681B6A9A4206D1FB6803F470127B6824
:1036CC005B6A9A4201D0012300E0002318461837A8
:1036DC00BD4680BD0010024080B584B000AF78605C
:1036EC0039607B68002B01D10123D0E06A4B1B6849
:1036FC0003F007033A689A4210D9674B1B6823F012
:10370C00070265493B6813430B60634B1B6803F06E
:10371C0007033A689A4201D00123B8E07B681B6822
:10372C0003F00203002B20D07B681B6803F004031A
:10373C00002B05D0594B5B68584A43F4E063536047
:10374C007B681B6803F00803002B05D0534B5B68A8
:10375C00524A43F460535360504B5B6823F0F002C1
:10376C007B689B684D4913434B607B681B6803F077
:10377C000103002B40D07B685B68012B07D1474BC2
:10378C001B6803F40033002B15D101237FE07B6809
:10379C005B68022B07D1414B1B6803F00073002BB5
:1037AC0009D1012373E03D4B1B6803F00203002B8E
:1037BC0001D101236BE0394B5B6823F003027B687A
:1037CC005B68364913434B60FEF762FAF8600AE017
:1037DC00FEF75EFA0246FB68D31A41F28832934236
:1037EC0001D9032353E02D4B5B6803F00C027B687B
:1037FC005B689B009A42EBD1274B1B6803F00703D5
:10380C003A689A4210D2244B1B6823F007022249D3
:10381C003B6813430B60204B1B6803F007033A68AB
:10382C009A4201D0012332E07B681B6803F0040349
:10383C00002B08D0194B5B6823F4E0627B68DB68D3
:10384C00164913434B607B681B6803F00803002B7D
:10385C0009D0124B5B6823F460527B681B69DB0058
:10386C000E4913434B6000F021F802460B4B5B688A
:10387C001B0903F00F030A49CB5C22FA03F3094A34
:10388C001360094B1B681846FEF7C0F90023184655
:10389C001037BD4680BD00BF002002400010024022
:1038AC00C8470008000000200400002080B487B046
:1038BC0000AF0023FB600023BB6000237B6100236F
:1038CC007B6000233B611E4B5B68FB60FB6803F075
:1038DC000C03042B02D0082B03D027E0194B3B61BF
:1038EC0027E0FB689B0C03F00F03174AD35C7B604B
:1038FC00FB6803F48033002B10D0114B5B685B0C1E
:10390C0003F00103114AD35CBB607B680D4A03FBD7
:10391C0002F2BB68B2FBF3F37B6104E07B680C4AF8
:10392C0002FB03F37B617B693B6102E0054B3B616E
:10393C0000BF3B6918461C37BD4680BC704700BFB2
:10394C000010024000127A00E0470008F04700081F
:10395C0000093D0080B400AF024B1B681846BD4601
:10396C0080BC70470000002080B500AFFFF7F2FF6D
:10397C000246054B5B681B0A03F007030349CB5C4B
:10398C0022FA03F3184680BD00100240D847000805
:10399C0080B500AFFFF7DEFF0246054B5B68DB0A24
:1039AC0003F007030349CB5C22FA03F3184680BDEE
:1039BC0000100240D847000880B485B000AF786092
:1039CC000A4B1B680A4AA2FB03235B0A7A6802FBB8
:1039DC0003F3FB6000BFFB685A1EFA60002BF9D1A1
:1039EC0000BF00BF1437BD4680BC704700000020EC
:1039FC00D34D621080B582B000AF78607B68002B2D
:103A0C0001D1012342E07B6893F84130DBB2002BFB
:103A1C0006D17B68002283F840207868FEF72EF8E8
:103A2C007B68242283F841207B681B68DA687B68FA
:103A3C001B6822F40052DA60786800F0F9FD7B68AC
:103A4C001B681A697B681B6822F490421A617B68B8
:103A5C001B685A697B681B6822F02A025A617B68D2
:103A6C001B68DA687B681B6842F40052DA607B687A
:103A7C0000225A647B68202283F841207B68202234
:103A8C0083F842207B6800225A63002318460837CB
:103A9C00BD4680BD80B58AB002AFF860B9603B60AE
:103AAC001346FB8000237B61FB6893F84130DBB24B
:103ABC00202B6DD1BB68002B02D0FB88002B01D1D1
:103ACC00012366E0FB6800225A64FB68212283F81C
:103ADC004120FEF7DDF87861FB68FA889A84FB6870
:103AEC00FA88DA84FB689B68B3F5805F08D1FB68C1
:103AFC001B69002B04D10023FB61BB68BB6103E095
:103B0C00BB68FB610023BB612AE03B6800937B69C7
:103B1C0000228021F86800F082FB0346002B01D0C4
:103B2C00032336E0FB69002B0BD1BB691B881A46BB
:103B3C00FB681B68C2F308025A60BB690233BB61A5
:103B4C0007E0FB691A78FB681B685A60FB69013354
:103B5C00FB61FB68DB8C9BB2013B9AB2FB68DA849D
:103B6C00FB68DB8C9BB2002BCFD13B6800937B694D
:103B7C0000224021F86800F052FB0346002B01D0D4
:103B8C00032306E0FB68202283F84120002300E099
:103B9C00022318462037BD4680BD80B58AB002AFDF
:103BAC00F860B9603B601346FB8000237B61FB68C7
:103BBC0093F84230DBB2202B7CD1BB68002B02D0B7
:103BCC00FB88002B01D1012375E0FB6800225A64AD
:103BDC00FB68222283F84220FB6800221A63FEF75E
:103BEC0057F87861FB68FA889A85FB68FA88DA8559
:103BFC00FB689B68B3F5805F08D1FB681B69002BE1
:103C0C0004D10023FB61BB68BB6103E0BB68FB61B3
:103C1C000023BB6143E03B6800937B6900222021B9
:103C2C00F86800F0FCFA0346002B01D0032342E0B5
:103C3C00FB69002B0CD1FB681B685B689BB2C3F360
:103C4C0008039AB2BB691A80BB690233BB611FE0DF
:103C5C00FB689B68B3F5805F07D0FB689B68002B03
:103C6C000AD1FB681B69002B06D1FB681B685B68DB
:103C7C00DAB2FB691A7008E0FB681B685B68DBB2A0
:103C8C0003F07F03DAB2FB691A70FB690133FB6145
:103C9C00FB68DB8D9BB2013B9AB2FB68DA85FB6853
:103CAC00DB8D9BB2002BB6D1FB68202283F842201F
:103CBC00002300E0022318462037BD4680BD0000DB
:103CCC0080B5BAB000AF78607B681B681B68C7F81A
:103CDC00E4307B681B68DB68C7F8E0307B681B68E6
:103CEC005B69C7F8DC300023C7F8D8300023C7F86D
:103CFC00D430D7F8E43003F00F03C7F8D830D7F836
:103D0C00D830002B0FD1D7F8E43003F02003002B70
:103D1C0009D0D7F8E03003F02003002B03D07868EB
:103D2C0000F0C8FB5BE2D7F8D830002B00F0DE8047
:103D3C00D7F8DC3003F00103002B06D1D7F8E030C4
:103D4C0003F49073002B00F0D180D7F8E43003F02B
:103D5C000103002B0BD0D7F8E03003F48073002B59
:103D6C0005D07B685B6C43F001027B685A64D7F822
:103D7C00E43003F00403002B0BD0D7F8DC3003F055
:103D8C000103002B05D07B685B6C43F002027B685F
:103D9C005A64D7F8E43003F00203002B0BD0D7F8A9
:103DAC00DC3003F00103002B05D07B685B6C43F027
:103DBC0004027B685A64D7F8E43003F00803002B44
:103DCC0011D0D7F8E03003F02003002B05D1D7F841
:103DDC00DC3003F00103002B05D07B685B6C43F0F7
:103DEC0008027B685A647B685B6C002B00F0F281E4
:103DFC00D7F8E43003F02003002B08D0D7F8E030DC
:103E0C0003F02003002B02D0786800F053FB7B6892
:103E1C001B685B6903F04003002B14BF01230023D4
:103E2C00DBB2C7F8D4307B685B6C03F00803002B63
:103E3C0003D1D7F8D430002B4FD0786800F05DFA5E
:103E4C007B681B685B6903F04003002B41D07B68E7
:103E5C001B681433C7F89C30D7F89C3053E8003FEC
:103E6C00C7F89830D7F8983023F04003C7F8D03013
:103E7C007B681B681433D7F8D020C7F8A820C7F884
:103E8C00A430D7F8A410D7F8A82041E80023C7F82D
:103E9C00A030D7F8A030002BD9D17B68DB6B002B7E
:103EAC0013D07B68DB6B7E4A5A637B68DB6B1846EE
:103EBC00FEF738FC0346002B16D07B68DB6B5B6B84
:103ECC007A68D26B104698470EE0786800F093F948
:103EDC000AE0786800F08FF906E0786800F08BF95A
:103EEC007B6800225A6475E100BF73E17B681B6B31
:103EFC00012B40F04F81D7F8E43003F01003002B76
:103F0C0000F04881D7F8E03003F01003002B00F0EC
:103F1C0041810023BB607B681B681B68BB607B68AE
:103F2C001B685B68BB60BB687B681B685B6903F0E4
:103F3C004003002B00F0B6807B68DB6B1B685B6872
:103F4C00A7F8BE30B7F8BE30002B00F045817B6877
:103F5C009B8DB7F8BE209A4280F03E817B68B7F803
:103F6C00BE20DA857B68DB6B9B69202B00F0888098
:103F7C007B681B680C33C7F88830D7F8883053E857
:103F8C00003FC7F88430D7F8843023F48073C7F827
:103F9C00B8307B681B680C33D7F8B820C7F894206E
:103FAC00C7F89030D7F89010D7F8942041E8002348
:103FBC00C7F88C30D7F88C30002BD9D17B681B68B4
:103FCC0014337B677B6F53E8003F3B673B6F23F0F9
:103FDC000103C7F8B4307B681B681433D7F8B420DE
:103FEC00C7F88020FB67F96FD7F8802041E80023E1
:103FFC00BB67BB6F002BE1D17B681B6814333B663E
:10400C003B6E53E8003FFB65FB6D23F04003C7F8A4
:10401C00B0307B681B681433D7F8B020FA66BB66E7
:10402C00B96EFA6E41E800237B667B6E002BE3D100
:10403C007B68202283F842207B6800221A637B680D
:10404C001B680C33FB64FB6C53E8003FBB64BB6C1C
:10405C0023F01003C7F8AC307B681B680C33D7F81F
:10406C00AC20BA657B65796DBA6D41E800233B6580
:10407C003B6D002BE3D17B68DB6B1846FEF717FB1F
:10408C007B6802225A637B689A8D7B68DB8D9BB2BE
:10409C00D31A9BB21946786800F0B6F89CE000BFC2
:1040AC00CB4300087B689A8D7B68DB8D9BB2D31A5F
:1040BC00A7F8CE307B68DB8D9BB2002B00F08E8096
:1040CC00B7F8CE30002B00F089807B681B680C336E
:1040DC00BB63BB6B53E8003F7B637B6B23F4907338
:1040EC00C7F8C8307B681B680C33D7F8C8207A64D3
:1040FC003B64396C7A6C41E80023FB63FB6B002B4F
:10410C00E3D17B681B6814337B627B6A53E8003F06
:10411C003B623B6A23F00103C7F8C4307B681B6821
:10412C001433D7F8C4203A63FB62F96A3A6B41E85E
:10413C000023BB62BB6A002BE3D17B68202283F88F
:10414C0042207B6800221A637B681B680C333B613E
:10415C003B6953E8003FFB60FB6823F01003C7F892
:10416C00C0307B681B680C33D7F8C020FA61BB6188
:10417C00B969FA6941E800237B617B69002BE3D1C3
:10418C007B6802225A63B7F8CE301946786800F083
:10419C003BF823E0D7F8E43003F08003002B09D080
:1041AC00D7F8E03003F08003002B03D0786800F0E0
:1041BC001AF914E0D7F8E43003F04003002B0ED0CA
:1041CC00D7F8E03003F04003002B08D0786800F0FB
:1041DC0059F904E000BF02E000BF00E000BFE8377F
:1041EC00BD4680BD80B483B000AF786000BF0C3793
:1041FC00BD4680BC704780B483B000AF786000BF10
:10420C000C37BD4680BC704780B483B000AF78607B
:10421C000B467B8000BF0C37BD4680BC704780B519
:10422C0090B000AFF860B9603B601346FB7150E092
:10423C00BB6CB3F1FF3F4CD0BB6C002B07D0FDF730
:10424C0027FD02463B68D31ABA6C9A4241D2FB68EE
:10425C001B680C33BB62BB6A53E8003F7B627B6A12
:10426C0023F4D073FB63FB681B680C33FA6B7A6323
:10427C003B63396B7A6B41E80023FB62FB6A002BD2
:10428C00E5D1FB681B6814337B617B6953E8003F05
:10429C003B613B6923F00103BB63FB681B68143370
:1042AC00BA6B3A62FB61F9693A6A41E80023BB6177
:1042BC00BB69002BE5D1FB68202283F84120FB6809
:1042CC00202283F84220FB68002283F8402003233D
:1042DC000FE0FB681B681A68BB681340BA689A4207
:1042EC000CBF01230023DBB21A46FB799A429FD004
:1042FC00002318464037BD4680BD80B495B000AF52
:10430C0078607B681B680C337B637B6B53E8003FE6
:10431C003B633B6B23F49073FB647B681B680C332F
:10432C00FA6C3A64FB63F96B3A6C41E80023BB63AB
:10433C00BB6B002BE5D17B681B6814333B623B6A7B
:10434C0053E8003FFB61FB6923F00103BB647B680E
:10435C001B681433BA6CFA62BB62B96AFA6A41E838
:10436C0000237B627B6A002BE5D17B681B6B012BE6
:10437C0019D17B681B680C33FB60FB6853E8003F6A
:10438C00BB60BB6823F010037B647B681B680C3339
:10439C007A6CBA617B617969BA6941E800233B6147
:1043AC003B69002BE5D17B68202283F842207B6897
:1043BC0000221A6300BF5437BD4680BC704780B5DD
:1043CC0084B000AF78607B685B6AFB60FB6800229E
:1043DC00DA85FB680022DA84F868FFF70CFF00BF6F
:1043EC001037BD4680BD80B485B000AF78607B6867
:1043FC0093F84130DBB2212B3ED17B689B68B3F53F
:10440C00805F14D17B681B69002B10D17B681B6A01
:10441C00FB60FB681B881A467B681B68C2F30802AA
:10442C005A607B681B6A9A1C7B681A6208E07B687E
:10443C001B6A591C7A6811621A787B681B685A606F
:10444C007B68DB8C9BB2013B9BB27A681946D184AA
:10445C00002B0FD17B681B68DA687B681B6822F025
:10446C008002DA607B681B68DA687B681B6842F044
:10447C004002DA60002300E0022318461437BD46E0
:10448C0080BC704780B582B000AF78607B681B68D9
:10449C00DA687B681B6822F04002DA607B682022B5
:1044AC0083F841207868FFF79DFE002318460837F3
:1044BC00BD4680BD80B58CB000AF78607B6893F84A
:1044CC004230DBB2222B40F0AE807B689B68B3F5A8
:1044DC00805F17D17B681B69002B13D10023FB6213
:1044EC007B689B6ABB627B681B685B689BB2C3F38F
:1044FC0008039AB2BB6A1A807B689B6A9A1C7B6819
:10450C009A6226E07B689B6AFB620023BB627B6835
:10451C009B68B3F5805F07D07B689B68002B0AD142
:10452C007B681B69002B06D17B681B685B68DAB261
:10453C00FB6A1A7008E07B681B685B68DBB203F0EF
:10454C007F03DAB2FB6A1A707B689B6A5A1C7B6821
:10455C009A627B68DB8D9BB2013B9BB27A681946F1
:10456C00D185002B5DD17B681B68DA687B681B6882
:10457C0022F02002DA607B681B68DA687B681B68B3
:10458C0022F48072DA607B681B685A697B681B684E
:10459C0022F001025A617B68202283F842207B685A
:1045AC0000225A637B681B6B012B35D17B68002280
:1045BC001A637B681B680C337B617B6953E8003F93
:1045CC003B613B6923F010037B627B681B680C33F7
:1045DC007A6A3A62FB61F9693A6A41E80023BB6185
:1045EC00BB69002BE5D17B681B681B6803F01003CB
:1045FC00102B0AD10023FB607B681B681B68FB60D7
:10460C007B681B685B68FB60FB687B689B8D19464D
:10461C007868FFF7F9FD02E07868FCF72FFB0023C0
:10462C0002E0002300E0022318463037BD4680BD6F
:10463C0080B584B000AF78607B681B681B6923F47D
:10464C0040517B68DA687B681B680A431A617B6897
:10465C009A687B681B691A437B685B691343BB6070
:10466C007B681B68DB6823F4B05323F00C037A6877
:10467C001268B9680B43D3607B681B685B6923F4D1
:10468C0040717B689A697B681B680A435A617B6836
:10469C001B682C4A934203D1FFF77AF9F86002E0C9
:1046AC00FFF762F9F860FA6813469B0013449A000E
:1046BC001A447B685B689B00B2FBF3F3224AA2FBB3
:1046CC0003235B091901FA6813469B0013449A00F3
:1046DC001A447B685B689B00B2FBF3F21A4BA3FB9A
:1046EC0002035B09642000FB03F3D31A1B01323372
:1046FC00154AA2FB03235B0903F0F0031944FA6883
:10470C0013469B0013449A001A447B685B689B0019
:10471C00B2FBF3F20C4BA3FB02035B09642000FB1E
:10472C0003F3D31A1B013233074AA2FB03235B09A1
:10473C0003F00F027B681B680A449A6000BF1037B5
:10474C00BD4680BD003801401F85EB510346024435
:10475C00934200D1704703F8011BF9E770B50026AE
:10476C000C4D0D4C641BA410A64209D100F01AF894
:10477C0000260A4D0A4C641BA410A64205D170BD3C
:10478C0055F8043B98470136EEE755F8043B98473B
:10479C000136F2E7F4470008F4470008F447000834
:1047AC00F8470008F8B500BFF8BC08BC9E46704737
:0C47BC00F8B500BFF8BC08BC9E46704772
:1047C80000000000000000000102030406070809B9
:1047D800000000000102030402030405060708099B
:0C47E8000A0B0C0D0E0F10100102000057
:0447F4003101000887
:0447F8000D010008A7
:0C47FC000024F400100000000100000088
:0400000508001BA133
:00000001FF
